{"contracts/musicID.sol":{"MusicID":{"abi":[{"anonymous":false,"inputs":[{"indexed":false,"internalType":"uint256","name":"id","type":"uint256"},{"indexed":false,"internalType":"string","name":"name","type":"string"},{"indexed":false,"internalType":"string","name":"model","type":"string"},{"indexed":false,"internalType":"uint256","name":"year","type":"uint256"},{"indexed":false,"internalType":"address","name":"owner","type":"address"}],"name":"InstrumentAdded","type":"event"},{"inputs":[{"internalType":"string","name":"_name","type":"string"},{"internalType":"string","name":"_model","type":"string"},{"internalType":"uint256","name":"_year","type":"uint256"},{"internalType":"string","name":"_maintenanceRecords","type":"string"},{"internalType":"string","name":"_image","type":"string"}],"name":"addInstrument","outputs":[],"stateMutability":"nonpayable","type":"function"},{"inputs":[{"internalType":"uint256","name":"","type":"uint256"}],"name":"instruments","outputs":[{"internalType":"string","name":"name","type":"string"},{"internalType":"string","name":"model","type":"string"},{"internalType":"uint256","name":"year","type":"uint256"},{"internalType":"address","name":"owner","type":"address"},{"internalType":"string","name":"maintenanceRecords","type":"string"},{"internalType":"string","name":"image","type":"string"}],"stateMutability":"view","type":"function"},{"inputs":[],"name":"instrumentsCount","outputs":[{"internalType":"uint256","name":"","type":"uint256"}],"stateMutability":"view","type":"function"}],"evm":{"bytecode":{"linkReferences":{},"object":"608060405234801561001057600080fd5b50610df5806100206000396000f3fe608060405234801561001057600080fd5b50600436106100415760003560e01c806322bbad0b146100465780633ef439ff1461007b5780638b6d416514610099575b600080fd5b610060600480360381019061005b919061056c565b6100b5565b60405161007296959493929190610679565b60405180910390f35b610083610331565b60405161009091906106f6565b60405180910390f35b6100b360048036038101906100ae9190610846565b610337565b005b60006020528060005260406000206000915090508060000180546100d890610960565b80601f016020809104026020016040519081016040528092919081815260200182805461010490610960565b80156101515780601f1061012657610100808354040283529160200191610151565b820191906000526020600020905b81548152906001019060200180831161013457829003601f168201915b50505050509080600101805461016690610960565b80601f016020809104026020016040519081016040528092919081815260200182805461019290610960565b80156101df5780601f106101b4576101008083540402835291602001916101df565b820191906000526020600020905b8154815290600101906020018083116101c257829003601f168201915b5050505050908060020154908060030160009054906101000a900473ffffffffffffffffffffffffffffffffffffffff169080600401805461022090610960565b80601f016020809104026020016040519081016040528092919081815260200182805461024c90610960565b80156102995780601f1061026e57610100808354040283529160200191610299565b820191906000526020600020905b81548152906001019060200180831161027c57829003601f168201915b5050505050908060050180546102ae90610960565b80601f01602080910402602001604051908101604052809291908181526020018280546102da90610960565b80156103275780601f106102fc57610100808354040283529160200191610327565b820191906000526020600020905b81548152906001019060200180831161030a57829003601f168201915b5050505050905086565b60015481565b600085511161037b576040517f08c379a0000000000000000000000000000000000000000000000000000000008152600401610372906109dd565b60405180910390fd5b60008451116103bf576040517f08c379a00000000000000000000000000000000000000000000000000000000081526004016103b690610a49565b60405180910390fd5b600160008154809291906103d290610a98565b91905055506040518060c001604052808681526020018581526020018481526020013373ffffffffffffffffffffffffffffffffffffffff16815260200183815260200182815250600080600154815260200190815260200160002060008201518160000190816104439190610c8c565b5060208201518160010190816104599190610c8c565b506040820151816002015560608201518160030160006101000a81548173ffffffffffffffffffffffffffffffffffffffff021916908373ffffffffffffffffffffffffffffffffffffffff16021790555060808201518160040190816104c09190610c8c565b5060a08201518160050190816104d69190610c8c565b509050507f141b42f63df8b1bba1373e6a0aa2e34b8f8d2df9a7374053782b6840cfaea95c60015486868633604051610513959493929190610d5e565b60405180910390a15050505050565b6000604051905090565b600080fd5b600080fd5b6000819050919050565b61054981610536565b811461055457600080fd5b50565b60008135905061056681610540565b92915050565b6000602082840312156105825761058161052c565b5b600061059084828501610557565b91505092915050565b600081519050919050565b600082825260208201905092915050565b60005b838110156105d35780820151818401526020810190506105b8565b60008484015250505050565b6000601f19601f8301169050919050565b60006105fb82610599565b61060581856105a4565b93506106158185602086016105b5565b61061e816105df565b840191505092915050565b61063281610536565b82525050565b600073ffffffffffffffffffffffffffffffffffffffff82169050919050565b600061066382610638565b9050919050565b61067381610658565b82525050565b600060c082019050818103600083015261069381896105f0565b905081810360208301526106a781886105f0565b90506106b66040830187610629565b6106c3606083018661066a565b81810360808301526106d581856105f0565b905081810360a08301526106e981846105f0565b9050979650505050505050565b600060208201905061070b6000830184610629565b92915050565b600080fd5b600080fd5b7f4e487b7100000000000000000000000000000000000000000000000000000000600052604160045260246000fd5b610753826105df565b810181811067ffffffffffffffff821117156107725761077161071b565b5b80604052505050565b6000610785610522565b9050610791828261074a565b919050565b600067ffffffffffffffff8211156107b1576107b061071b565b5b6107ba826105df565b9050602081019050919050565b82818337600083830152505050565b60006107e96107e484610796565b61077b565b90508281526020810184848401111561080557610804610716565b5b6108108482856107c7565b509392505050565b600082601f83011261082d5761082c610711565b5b813561083d8482602086016107d6565b91505092915050565b600080600080600060a086880312156108625761086161052c565b5b600086013567ffffffffffffffff8111156108805761087f610531565b5b61088c88828901610818565b955050602086013567ffffffffffffffff8111156108ad576108ac610531565b5b6108b988828901610818565b94505060406108ca88828901610557565b935050606086013567ffffffffffffffff8111156108eb576108ea610531565b5b6108f788828901610818565b925050608086013567ffffffffffffffff81111561091857610917610531565b5b61092488828901610818565b9150509295509295909350565b7f4e487b7100000000000000000000000000000000000000000000000000000000600052602260045260246000fd5b6000600282049050600182168061097857607f821691505b60208210810361098b5761098a610931565b5b50919050565b7f4e616d652063616e6e6f7420626520656d707479000000000000000000000000600082015250565b60006109c76014836105a4565b91506109d282610991565b602082019050919050565b600060208201905081810360008301526109f6816109ba565b9050919050565b7f4d6f64656c2063616e6e6f7420626520656d7074790000000000000000000000600082015250565b6000610a336015836105a4565b9150610a3e826109fd565b602082019050919050565b60006020820190508181036000830152610a6281610a26565b9050919050565b7f4e487b7100000000000000000000000000000000000000000000000000000000600052601160045260246000fd5b6000610aa382610536565b91507fffffffffffffffffffffffffffffffffffffffffffffffffffffffffffffffff8203610ad557610ad4610a69565b5b600182019050919050565b60008190508160005260206000209050919050565b60006020601f8301049050919050565b600082821b905092915050565b600060088302610b427fffffffffffffffffffffffffffffffffffffffffffffffffffffffffffffffff82610b05565b610b4c8683610b05565b95508019841693508086168417925050509392505050565b6000819050919050565b6000610b89610b84610b7f84610536565b610b64565b610536565b9050919050565b6000819050919050565b610ba383610b6e565b610bb7610baf82610b90565b848454610b12565b825550505050565b600090565b610bcc610bbf565b610bd7818484610b9a565b505050565b5b81811015610bfb57610bf0600082610bc4565b600181019050610bdd565b5050565b601f821115610c4057610c1181610ae0565b610c1a84610af5565b81016020851015610c29578190505b610c3d610c3585610af5565b830182610bdc565b50505b505050565b600082821c905092915050565b6000610c6360001984600802610c45565b1980831691505092915050565b6000610c7c8383610c52565b9150826002028217905092915050565b610c9582610599565b67ffffffffffffffff811115610cae57610cad61071b565b5b610cb88254610960565b610cc3828285610bff565b600060209050601f831160018114610cf65760008415610ce4578287015190505b610cee8582610c70565b865550610d56565b601f198416610d0486610ae0565b60005b82811015610d2c57848901518255600182019150602085019450602081019050610d07565b86831015610d495784890151610d45601f891682610c52565b8355505b6001600288020188555050505b505050505050565b600060a082019050610d736000830188610629565b8181036020830152610d8581876105f0565b90508181036040830152610d9981866105f0565b9050610da86060830185610629565b610db5608083018461066a565b969550505050505056fea26469706673582212207f826abfd5e62bc7225999cb90f391a5372126ced2187370709008205b551d4e64736f6c63430008180033","opcodes":"PUSH1 0x80 PUSH1 0x40 MSTORE CALLVALUE DUP1 ISZERO PUSH2 0x10 JUMPI PUSH1 0x0 DUP1 REVERT JUMPDEST POP PUSH2 0xDF5 DUP1 PUSH2 0x20 PUSH1 0x0 CODECOPY PUSH1 0x0 RETURN INVALID PUSH1 0x80 PUSH1 0x40 MSTORE CALLVALUE DUP1 ISZERO PUSH2 0x10 JUMPI PUSH1 0x0 DUP1 REVERT JUMPDEST POP PUSH1 0x4 CALLDATASIZE LT PUSH2 0x41 JUMPI PUSH1 0x0 CALLDATALOAD PUSH1 0xE0 SHR DUP1 PUSH4 0x22BBAD0B EQ PUSH2 0x46 JUMPI DUP1 PUSH4 0x3EF439FF EQ PUSH2 0x7B JUMPI DUP1 PUSH4 0x8B6D4165 EQ PUSH2 0x99 JUMPI JUMPDEST PUSH1 0x0 DUP1 REVERT JUMPDEST PUSH2 0x60 PUSH1 0x4 DUP1 CALLDATASIZE SUB DUP2 ADD SWAP1 PUSH2 0x5B SWAP2 SWAP1 PUSH2 0x56C JUMP JUMPDEST PUSH2 0xB5 JUMP JUMPDEST PUSH1 0x40 MLOAD PUSH2 0x72 SWAP7 SWAP6 SWAP5 SWAP4 SWAP3 SWAP2 SWAP1 PUSH2 0x679 JUMP JUMPDEST PUSH1 0x40 MLOAD DUP1 SWAP2 SUB SWAP1 RETURN JUMPDEST PUSH2 0x83 PUSH2 0x331 JUMP JUMPDEST PUSH1 0x40 MLOAD PUSH2 0x90 SWAP2 SWAP1 PUSH2 0x6F6 JUMP JUMPDEST PUSH1 0x40 MLOAD DUP1 SWAP2 SUB SWAP1 RETURN JUMPDEST PUSH2 0xB3 PUSH1 0x4 DUP1 CALLDATASIZE SUB DUP2 ADD SWAP1 PUSH2 0xAE SWAP2 SWAP1 PUSH2 0x846 JUMP JUMPDEST PUSH2 0x337 JUMP JUMPDEST STOP JUMPDEST PUSH1 0x0 PUSH1 0x20 MSTORE DUP1 PUSH1 0x0 MSTORE PUSH1 0x40 PUSH1 0x0 KECCAK256 PUSH1 0x0 SWAP2 POP SWAP1 POP DUP1 PUSH1 0x0 ADD DUP1 SLOAD PUSH2 0xD8 SWAP1 PUSH2 0x960 JUMP JUMPDEST DUP1 PUSH1 0x1F ADD PUSH1 0x20 DUP1 SWAP2 DIV MUL PUSH1 0x20 ADD PUSH1 0x40 MLOAD SWAP1 DUP2 ADD PUSH1 0x40 MSTORE DUP1 SWAP3 SWAP2 SWAP1 DUP2 DUP2 MSTORE PUSH1 0x20 ADD DUP3 DUP1 SLOAD PUSH2 0x104 SWAP1 PUSH2 0x960 JUMP JUMPDEST DUP1 ISZERO PUSH2 0x151 JUMPI DUP1 PUSH1 0x1F LT PUSH2 0x126 JUMPI PUSH2 0x100 DUP1 DUP4 SLOAD DIV MUL DUP4 MSTORE SWAP2 PUSH1 0x20 ADD SWAP2 PUSH2 0x151 JUMP JUMPDEST DUP3 ADD SWAP2 SWAP1 PUSH1 0x0 MSTORE PUSH1 0x20 PUSH1 0x0 KECCAK256 SWAP1 JUMPDEST DUP2 SLOAD DUP2 MSTORE SWAP1 PUSH1 0x1 ADD SWAP1 PUSH1 0x20 ADD DUP1 DUP4 GT PUSH2 0x134 JUMPI DUP3 SWAP1 SUB PUSH1 0x1F AND DUP3 ADD SWAP2 JUMPDEST POP POP POP POP POP SWAP1 DUP1 PUSH1 0x1 ADD DUP1 SLOAD PUSH2 0x166 SWAP1 PUSH2 0x960 JUMP JUMPDEST DUP1 PUSH1 0x1F ADD PUSH1 0x20 DUP1 SWAP2 DIV MUL PUSH1 0x20 ADD PUSH1 0x40 MLOAD SWAP1 DUP2 ADD PUSH1 0x40 MSTORE DUP1 SWAP3 SWAP2 SWAP1 DUP2 DUP2 MSTORE PUSH1 0x20 ADD DUP3 DUP1 SLOAD PUSH2 0x192 SWAP1 PUSH2 0x960 JUMP JUMPDEST DUP1 ISZERO PUSH2 0x1DF JUMPI DUP1 PUSH1 0x1F LT PUSH2 0x1B4 JUMPI PUSH2 0x100 DUP1 DUP4 SLOAD DIV MUL DUP4 MSTORE SWAP2 PUSH1 0x20 ADD SWAP2 PUSH2 0x1DF JUMP JUMPDEST DUP3 ADD SWAP2 SWAP1 PUSH1 0x0 MSTORE PUSH1 0x20 PUSH1 0x0 KECCAK256 SWAP1 JUMPDEST DUP2 SLOAD DUP2 MSTORE SWAP1 PUSH1 0x1 ADD SWAP1 PUSH1 0x20 ADD DUP1 DUP4 GT PUSH2 0x1C2 JUMPI DUP3 SWAP1 SUB PUSH1 0x1F AND DUP3 ADD SWAP2 JUMPDEST POP POP POP POP POP SWAP1 DUP1 PUSH1 0x2 ADD SLOAD SWAP1 DUP1 PUSH1 0x3 ADD PUSH1 0x0 SWAP1 SLOAD SWAP1 PUSH2 0x100 EXP SWAP1 DIV PUSH20 0xFFFFFFFFFFFFFFFFFFFFFFFFFFFFFFFFFFFFFFFF AND SWAP1 DUP1 PUSH1 0x4 ADD DUP1 SLOAD PUSH2 0x220 SWAP1 PUSH2 0x960 JUMP JUMPDEST DUP1 PUSH1 0x1F ADD PUSH1 0x20 DUP1 SWAP2 DIV MUL PUSH1 0x20 ADD PUSH1 0x40 MLOAD SWAP1 DUP2 ADD PUSH1 0x40 MSTORE DUP1 SWAP3 SWAP2 SWAP1 DUP2 DUP2 MSTORE PUSH1 0x20 ADD DUP3 DUP1 SLOAD PUSH2 0x24C SWAP1 PUSH2 0x960 JUMP JUMPDEST DUP1 ISZERO PUSH2 0x299 JUMPI DUP1 PUSH1 0x1F LT PUSH2 0x26E JUMPI PUSH2 0x100 DUP1 DUP4 SLOAD DIV MUL DUP4 MSTORE SWAP2 PUSH1 0x20 ADD SWAP2 PUSH2 0x299 JUMP JUMPDEST DUP3 ADD SWAP2 SWAP1 PUSH1 0x0 MSTORE PUSH1 0x20 PUSH1 0x0 KECCAK256 SWAP1 JUMPDEST DUP2 SLOAD DUP2 MSTORE SWAP1 PUSH1 0x1 ADD SWAP1 PUSH1 0x20 ADD DUP1 DUP4 GT PUSH2 0x27C JUMPI DUP3 SWAP1 SUB PUSH1 0x1F AND DUP3 ADD SWAP2 JUMPDEST POP POP POP POP POP SWAP1 DUP1 PUSH1 0x5 ADD DUP1 SLOAD PUSH2 0x2AE SWAP1 PUSH2 0x960 JUMP JUMPDEST DUP1 PUSH1 0x1F ADD PUSH1 0x20 DUP1 SWAP2 DIV MUL PUSH1 0x20 ADD PUSH1 0x40 MLOAD SWAP1 DUP2 ADD PUSH1 0x40 MSTORE DUP1 SWAP3 SWAP2 SWAP1 DUP2 DUP2 MSTORE PUSH1 0x20 ADD DUP3 DUP1 SLOAD PUSH2 0x2DA SWAP1 PUSH2 0x960 JUMP JUMPDEST DUP1 ISZERO PUSH2 0x327 JUMPI DUP1 PUSH1 0x1F LT PUSH2 0x2FC JUMPI PUSH2 0x100 DUP1 DUP4 SLOAD DIV MUL DUP4 MSTORE SWAP2 PUSH1 0x20 ADD SWAP2 PUSH2 0x327 JUMP JUMPDEST DUP3 ADD SWAP2 SWAP1 PUSH1 0x0 MSTORE PUSH1 0x20 PUSH1 0x0 KECCAK256 SWAP1 JUMPDEST DUP2 SLOAD DUP2 MSTORE SWAP1 PUSH1 0x1 ADD SWAP1 PUSH1 0x20 ADD DUP1 DUP4 GT PUSH2 0x30A JUMPI DUP3 SWAP1 SUB PUSH1 0x1F AND DUP3 ADD SWAP2 JUMPDEST POP POP POP POP POP SWAP1 POP DUP7 JUMP JUMPDEST PUSH1 0x1 SLOAD DUP2 JUMP JUMPDEST PUSH1 0x0 DUP6 MLOAD GT PUSH2 0x37B JUMPI PUSH1 0x40 MLOAD PUSH32 0x8C379A000000000000000000000000000000000000000000000000000000000 DUP2 MSTORE PUSH1 0x4 ADD PUSH2 0x372 SWAP1 PUSH2 0x9DD JUMP JUMPDEST PUSH1 0x40 MLOAD DUP1 SWAP2 SUB SWAP1 REVERT JUMPDEST PUSH1 0x0 DUP5 MLOAD GT PUSH2 0x3BF JUMPI PUSH1 0x40 MLOAD PUSH32 0x8C379A000000000000000000000000000000000000000000000000000000000 DUP2 MSTORE PUSH1 0x4 ADD PUSH2 0x3B6 SWAP1 PUSH2 0xA49 JUMP JUMPDEST PUSH1 0x40 MLOAD DUP1 SWAP2 SUB SWAP1 REVERT JUMPDEST PUSH1 0x1 PUSH1 0x0 DUP2 SLOAD DUP1 SWAP3 SWAP2 SWAP1 PUSH2 0x3D2 SWAP1 PUSH2 0xA98 JUMP JUMPDEST SWAP2 SWAP1 POP SSTORE POP PUSH1 0x40 MLOAD DUP1 PUSH1 0xC0 ADD PUSH1 0x40 MSTORE DUP1 DUP7 DUP2 MSTORE PUSH1 0x20 ADD DUP6 DUP2 MSTORE PUSH1 0x20 ADD DUP5 DUP2 MSTORE PUSH1 0x20 ADD CALLER PUSH20 0xFFFFFFFFFFFFFFFFFFFFFFFFFFFFFFFFFFFFFFFF AND DUP2 MSTORE PUSH1 0x20 ADD DUP4 DUP2 MSTORE PUSH1 0x20 ADD DUP3 DUP2 MSTORE POP PUSH1 0x0 DUP1 PUSH1 0x1 SLOAD DUP2 MSTORE PUSH1 0x20 ADD SWAP1 DUP2 MSTORE PUSH1 0x20 ADD PUSH1 0x0 KECCAK256 PUSH1 0x0 DUP3 ADD MLOAD DUP2 PUSH1 0x0 ADD SWAP1 DUP2 PUSH2 0x443 SWAP2 SWAP1 PUSH2 0xC8C JUMP JUMPDEST POP PUSH1 0x20 DUP3 ADD MLOAD DUP2 PUSH1 0x1 ADD SWAP1 DUP2 PUSH2 0x459 SWAP2 SWAP1 PUSH2 0xC8C JUMP JUMPDEST POP PUSH1 0x40 DUP3 ADD MLOAD DUP2 PUSH1 0x2 ADD SSTORE PUSH1 0x60 DUP3 ADD MLOAD DUP2 PUSH1 0x3 ADD PUSH1 0x0 PUSH2 0x100 EXP DUP2 SLOAD DUP2 PUSH20 0xFFFFFFFFFFFFFFFFFFFFFFFFFFFFFFFFFFFFFFFF MUL NOT AND SWAP1 DUP4 PUSH20 0xFFFFFFFFFFFFFFFFFFFFFFFFFFFFFFFFFFFFFFFF AND MUL OR SWAP1 SSTORE POP PUSH1 0x80 DUP3 ADD MLOAD DUP2 PUSH1 0x4 ADD SWAP1 DUP2 PUSH2 0x4C0 SWAP2 SWAP1 PUSH2 0xC8C JUMP JUMPDEST POP PUSH1 0xA0 DUP3 ADD MLOAD DUP2 PUSH1 0x5 ADD SWAP1 DUP2 PUSH2 0x4D6 SWAP2 SWAP1 PUSH2 0xC8C JUMP JUMPDEST POP SWAP1 POP POP PUSH32 0x141B42F63DF8B1BBA1373E6A0AA2E34B8F8D2DF9A7374053782B6840CFAEA95C PUSH1 0x1 SLOAD DUP7 DUP7 DUP7 CALLER PUSH1 0x40 MLOAD PUSH2 0x513 SWAP6 SWAP5 SWAP4 SWAP3 SWAP2 SWAP1 PUSH2 0xD5E JUMP JUMPDEST PUSH1 0x40 MLOAD DUP1 SWAP2 SUB SWAP1 LOG1 POP POP POP POP POP JUMP JUMPDEST PUSH1 0x0 PUSH1 0x40 MLOAD SWAP1 POP SWAP1 JUMP JUMPDEST PUSH1 0x0 DUP1 REVERT JUMPDEST PUSH1 0x0 DUP1 REVERT JUMPDEST PUSH1 0x0 DUP2 SWAP1 POP SWAP2 SWAP1 POP JUMP JUMPDEST PUSH2 0x549 DUP2 PUSH2 0x536 JUMP JUMPDEST DUP2 EQ PUSH2 0x554 JUMPI PUSH1 0x0 DUP1 REVERT JUMPDEST POP JUMP JUMPDEST PUSH1 0x0 DUP2 CALLDATALOAD SWAP1 POP PUSH2 0x566 DUP2 PUSH2 0x540 JUMP JUMPDEST SWAP3 SWAP2 POP POP JUMP JUMPDEST PUSH1 0x0 PUSH1 0x20 DUP3 DUP5 SUB SLT ISZERO PUSH2 0x582 JUMPI PUSH2 0x581 PUSH2 0x52C JUMP JUMPDEST JUMPDEST PUSH1 0x0 PUSH2 0x590 DUP5 DUP3 DUP6 ADD PUSH2 0x557 JUMP JUMPDEST SWAP2 POP POP SWAP3 SWAP2 POP POP JUMP JUMPDEST PUSH1 0x0 DUP2 MLOAD SWAP1 POP SWAP2 SWAP1 POP JUMP JUMPDEST PUSH1 0x0 DUP3 DUP3 MSTORE PUSH1 0x20 DUP3 ADD SWAP1 POP SWAP3 SWAP2 POP POP JUMP JUMPDEST PUSH1 0x0 JUMPDEST DUP4 DUP2 LT ISZERO PUSH2 0x5D3 JUMPI DUP1 DUP3 ADD MLOAD DUP2 DUP5 ADD MSTORE PUSH1 0x20 DUP2 ADD SWAP1 POP PUSH2 0x5B8 JUMP JUMPDEST PUSH1 0x0 DUP5 DUP5 ADD MSTORE POP POP POP POP JUMP JUMPDEST PUSH1 0x0 PUSH1 0x1F NOT PUSH1 0x1F DUP4 ADD AND SWAP1 POP SWAP2 SWAP1 POP JUMP JUMPDEST PUSH1 0x0 PUSH2 0x5FB DUP3 PUSH2 0x599 JUMP JUMPDEST PUSH2 0x605 DUP2 DUP6 PUSH2 0x5A4 JUMP JUMPDEST SWAP4 POP PUSH2 0x615 DUP2 DUP6 PUSH1 0x20 DUP7 ADD PUSH2 0x5B5 JUMP JUMPDEST PUSH2 0x61E DUP2 PUSH2 0x5DF JUMP JUMPDEST DUP5 ADD SWAP2 POP POP SWAP3 SWAP2 POP POP JUMP JUMPDEST PUSH2 0x632 DUP2 PUSH2 0x536 JUMP JUMPDEST DUP3 MSTORE POP POP JUMP JUMPDEST PUSH1 0x0 PUSH20 0xFFFFFFFFFFFFFFFFFFFFFFFFFFFFFFFFFFFFFFFF DUP3 AND SWAP1 POP SWAP2 SWAP1 POP JUMP JUMPDEST PUSH1 0x0 PUSH2 0x663 DUP3 PUSH2 0x638 JUMP JUMPDEST SWAP1 POP SWAP2 SWAP1 POP JUMP JUMPDEST PUSH2 0x673 DUP2 PUSH2 0x658 JUMP JUMPDEST DUP3 MSTORE POP POP JUMP JUMPDEST PUSH1 0x0 PUSH1 0xC0 DUP3 ADD SWAP1 POP DUP2 DUP2 SUB PUSH1 0x0 DUP4 ADD MSTORE PUSH2 0x693 DUP2 DUP10 PUSH2 0x5F0 JUMP JUMPDEST SWAP1 POP DUP2 DUP2 SUB PUSH1 0x20 DUP4 ADD MSTORE PUSH2 0x6A7 DUP2 DUP9 PUSH2 0x5F0 JUMP JUMPDEST SWAP1 POP PUSH2 0x6B6 PUSH1 0x40 DUP4 ADD DUP8 PUSH2 0x629 JUMP JUMPDEST PUSH2 0x6C3 PUSH1 0x60 DUP4 ADD DUP7 PUSH2 0x66A JUMP JUMPDEST DUP2 DUP2 SUB PUSH1 0x80 DUP4 ADD MSTORE PUSH2 0x6D5 DUP2 DUP6 PUSH2 0x5F0 JUMP JUMPDEST SWAP1 POP DUP2 DUP2 SUB PUSH1 0xA0 DUP4 ADD MSTORE PUSH2 0x6E9 DUP2 DUP5 PUSH2 0x5F0 JUMP JUMPDEST SWAP1 POP SWAP8 SWAP7 POP POP POP POP POP POP POP JUMP JUMPDEST PUSH1 0x0 PUSH1 0x20 DUP3 ADD SWAP1 POP PUSH2 0x70B PUSH1 0x0 DUP4 ADD DUP5 PUSH2 0x629 JUMP JUMPDEST SWAP3 SWAP2 POP POP JUMP JUMPDEST PUSH1 0x0 DUP1 REVERT JUMPDEST PUSH1 0x0 DUP1 REVERT JUMPDEST PUSH32 0x4E487B7100000000000000000000000000000000000000000000000000000000 PUSH1 0x0 MSTORE PUSH1 0x41 PUSH1 0x4 MSTORE PUSH1 0x24 PUSH1 0x0 REVERT JUMPDEST PUSH2 0x753 DUP3 PUSH2 0x5DF JUMP JUMPDEST DUP2 ADD DUP2 DUP2 LT PUSH8 0xFFFFFFFFFFFFFFFF DUP3 GT OR ISZERO PUSH2 0x772 JUMPI PUSH2 0x771 PUSH2 0x71B JUMP JUMPDEST JUMPDEST DUP1 PUSH1 0x40 MSTORE POP POP POP JUMP JUMPDEST PUSH1 0x0 PUSH2 0x785 PUSH2 0x522 JUMP JUMPDEST SWAP1 POP PUSH2 0x791 DUP3 DUP3 PUSH2 0x74A JUMP JUMPDEST SWAP2 SWAP1 POP JUMP JUMPDEST PUSH1 0x0 PUSH8 0xFFFFFFFFFFFFFFFF DUP3 GT ISZERO PUSH2 0x7B1 JUMPI PUSH2 0x7B0 PUSH2 0x71B JUMP JUMPDEST JUMPDEST PUSH2 0x7BA DUP3 PUSH2 0x5DF JUMP JUMPDEST SWAP1 POP PUSH1 0x20 DUP2 ADD SWAP1 POP SWAP2 SWAP1 POP JUMP JUMPDEST DUP3 DUP2 DUP4 CALLDATACOPY PUSH1 0x0 DUP4 DUP4 ADD MSTORE POP POP POP JUMP JUMPDEST PUSH1 0x0 PUSH2 0x7E9 PUSH2 0x7E4 DUP5 PUSH2 0x796 JUMP JUMPDEST PUSH2 0x77B JUMP JUMPDEST SWAP1 POP DUP3 DUP2 MSTORE PUSH1 0x20 DUP2 ADD DUP5 DUP5 DUP5 ADD GT ISZERO PUSH2 0x805 JUMPI PUSH2 0x804 PUSH2 0x716 JUMP JUMPDEST JUMPDEST PUSH2 0x810 DUP5 DUP3 DUP6 PUSH2 0x7C7 JUMP JUMPDEST POP SWAP4 SWAP3 POP POP POP JUMP JUMPDEST PUSH1 0x0 DUP3 PUSH1 0x1F DUP4 ADD SLT PUSH2 0x82D JUMPI PUSH2 0x82C PUSH2 0x711 JUMP JUMPDEST JUMPDEST DUP2 CALLDATALOAD PUSH2 0x83D DUP5 DUP3 PUSH1 0x20 DUP7 ADD PUSH2 0x7D6 JUMP JUMPDEST SWAP2 POP POP SWAP3 SWAP2 POP POP JUMP JUMPDEST PUSH1 0x0 DUP1 PUSH1 0x0 DUP1 PUSH1 0x0 PUSH1 0xA0 DUP7 DUP9 SUB SLT ISZERO PUSH2 0x862 JUMPI PUSH2 0x861 PUSH2 0x52C JUMP JUMPDEST JUMPDEST PUSH1 0x0 DUP7 ADD CALLDATALOAD PUSH8 0xFFFFFFFFFFFFFFFF DUP2 GT ISZERO PUSH2 0x880 JUMPI PUSH2 0x87F PUSH2 0x531 JUMP JUMPDEST JUMPDEST PUSH2 0x88C DUP9 DUP3 DUP10 ADD PUSH2 0x818 JUMP JUMPDEST SWAP6 POP POP PUSH1 0x20 DUP7 ADD CALLDATALOAD PUSH8 0xFFFFFFFFFFFFFFFF DUP2 GT ISZERO PUSH2 0x8AD JUMPI PUSH2 0x8AC PUSH2 0x531 JUMP JUMPDEST JUMPDEST PUSH2 0x8B9 DUP9 DUP3 DUP10 ADD PUSH2 0x818 JUMP JUMPDEST SWAP5 POP POP PUSH1 0x40 PUSH2 0x8CA DUP9 DUP3 DUP10 ADD PUSH2 0x557 JUMP JUMPDEST SWAP4 POP POP PUSH1 0x60 DUP7 ADD CALLDATALOAD PUSH8 0xFFFFFFFFFFFFFFFF DUP2 GT ISZERO PUSH2 0x8EB JUMPI PUSH2 0x8EA PUSH2 0x531 JUMP JUMPDEST JUMPDEST PUSH2 0x8F7 DUP9 DUP3 DUP10 ADD PUSH2 0x818 JUMP JUMPDEST SWAP3 POP POP PUSH1 0x80 DUP7 ADD CALLDATALOAD PUSH8 0xFFFFFFFFFFFFFFFF DUP2 GT ISZERO PUSH2 0x918 JUMPI PUSH2 0x917 PUSH2 0x531 JUMP JUMPDEST JUMPDEST PUSH2 0x924 DUP9 DUP3 DUP10 ADD PUSH2 0x818 JUMP JUMPDEST SWAP2 POP POP SWAP3 SWAP6 POP SWAP3 SWAP6 SWAP1 SWAP4 POP JUMP JUMPDEST PUSH32 0x4E487B7100000000000000000000000000000000000000000000000000000000 PUSH1 0x0 MSTORE PUSH1 0x22 PUSH1 0x4 MSTORE PUSH1 0x24 PUSH1 0x0 REVERT JUMPDEST PUSH1 0x0 PUSH1 0x2 DUP3 DIV SWAP1 POP PUSH1 0x1 DUP3 AND DUP1 PUSH2 0x978 JUMPI PUSH1 0x7F DUP3 AND SWAP2 POP JUMPDEST PUSH1 0x20 DUP3 LT DUP2 SUB PUSH2 0x98B JUMPI PUSH2 0x98A PUSH2 0x931 JUMP JUMPDEST JUMPDEST POP SWAP2 SWAP1 POP JUMP JUMPDEST PUSH32 0x4E616D652063616E6E6F7420626520656D707479000000000000000000000000 PUSH1 0x0 DUP3 ADD MSTORE POP JUMP JUMPDEST PUSH1 0x0 PUSH2 0x9C7 PUSH1 0x14 DUP4 PUSH2 0x5A4 JUMP JUMPDEST SWAP2 POP PUSH2 0x9D2 DUP3 PUSH2 0x991 JUMP JUMPDEST PUSH1 0x20 DUP3 ADD SWAP1 POP SWAP2 SWAP1 POP JUMP JUMPDEST PUSH1 0x0 PUSH1 0x20 DUP3 ADD SWAP1 POP DUP2 DUP2 SUB PUSH1 0x0 DUP4 ADD MSTORE PUSH2 0x9F6 DUP2 PUSH2 0x9BA JUMP JUMPDEST SWAP1 POP SWAP2 SWAP1 POP JUMP JUMPDEST PUSH32 0x4D6F64656C2063616E6E6F7420626520656D7074790000000000000000000000 PUSH1 0x0 DUP3 ADD MSTORE POP JUMP JUMPDEST PUSH1 0x0 PUSH2 0xA33 PUSH1 0x15 DUP4 PUSH2 0x5A4 JUMP JUMPDEST SWAP2 POP PUSH2 0xA3E DUP3 PUSH2 0x9FD JUMP JUMPDEST PUSH1 0x20 DUP3 ADD SWAP1 POP SWAP2 SWAP1 POP JUMP JUMPDEST PUSH1 0x0 PUSH1 0x20 DUP3 ADD SWAP1 POP DUP2 DUP2 SUB PUSH1 0x0 DUP4 ADD MSTORE PUSH2 0xA62 DUP2 PUSH2 0xA26 JUMP JUMPDEST SWAP1 POP SWAP2 SWAP1 POP JUMP JUMPDEST PUSH32 0x4E487B7100000000000000000000000000000000000000000000000000000000 PUSH1 0x0 MSTORE PUSH1 0x11 PUSH1 0x4 MSTORE PUSH1 0x24 PUSH1 0x0 REVERT JUMPDEST PUSH1 0x0 PUSH2 0xAA3 DUP3 PUSH2 0x536 JUMP JUMPDEST SWAP2 POP PUSH32 0xFFFFFFFFFFFFFFFFFFFFFFFFFFFFFFFFFFFFFFFFFFFFFFFFFFFFFFFFFFFFFFFF DUP3 SUB PUSH2 0xAD5 JUMPI PUSH2 0xAD4 PUSH2 0xA69 JUMP JUMPDEST JUMPDEST PUSH1 0x1 DUP3 ADD SWAP1 POP SWAP2 SWAP1 POP JUMP JUMPDEST PUSH1 0x0 DUP2 SWAP1 POP DUP2 PUSH1 0x0 MSTORE PUSH1 0x20 PUSH1 0x0 KECCAK256 SWAP1 POP SWAP2 SWAP1 POP JUMP JUMPDEST PUSH1 0x0 PUSH1 0x20 PUSH1 0x1F DUP4 ADD DIV SWAP1 POP SWAP2 SWAP1 POP JUMP JUMPDEST PUSH1 0x0 DUP3 DUP3 SHL SWAP1 POP SWAP3 SWAP2 POP POP JUMP JUMPDEST PUSH1 0x0 PUSH1 0x8 DUP4 MUL PUSH2 0xB42 PUSH32 0xFFFFFFFFFFFFFFFFFFFFFFFFFFFFFFFFFFFFFFFFFFFFFFFFFFFFFFFFFFFFFFFF DUP3 PUSH2 0xB05 JUMP JUMPDEST PUSH2 0xB4C DUP7 DUP4 PUSH2 0xB05 JUMP JUMPDEST SWAP6 POP DUP1 NOT DUP5 AND SWAP4 POP DUP1 DUP7 AND DUP5 OR SWAP3 POP POP POP SWAP4 SWAP3 POP POP POP JUMP JUMPDEST PUSH1 0x0 DUP2 SWAP1 POP SWAP2 SWAP1 POP JUMP JUMPDEST PUSH1 0x0 PUSH2 0xB89 PUSH2 0xB84 PUSH2 0xB7F DUP5 PUSH2 0x536 JUMP JUMPDEST PUSH2 0xB64 JUMP JUMPDEST PUSH2 0x536 JUMP JUMPDEST SWAP1 POP SWAP2 SWAP1 POP JUMP JUMPDEST PUSH1 0x0 DUP2 SWAP1 POP SWAP2 SWAP1 POP JUMP JUMPDEST PUSH2 0xBA3 DUP4 PUSH2 0xB6E JUMP JUMPDEST PUSH2 0xBB7 PUSH2 0xBAF DUP3 PUSH2 0xB90 JUMP JUMPDEST DUP5 DUP5 SLOAD PUSH2 0xB12 JUMP JUMPDEST DUP3 SSTORE POP POP POP POP JUMP JUMPDEST PUSH1 0x0 SWAP1 JUMP JUMPDEST PUSH2 0xBCC PUSH2 0xBBF JUMP JUMPDEST PUSH2 0xBD7 DUP2 DUP5 DUP5 PUSH2 0xB9A JUMP JUMPDEST POP POP POP JUMP JUMPDEST JUMPDEST DUP2 DUP2 LT ISZERO PUSH2 0xBFB JUMPI PUSH2 0xBF0 PUSH1 0x0 DUP3 PUSH2 0xBC4 JUMP JUMPDEST PUSH1 0x1 DUP2 ADD SWAP1 POP PUSH2 0xBDD JUMP JUMPDEST POP POP JUMP JUMPDEST PUSH1 0x1F DUP3 GT ISZERO PUSH2 0xC40 JUMPI PUSH2 0xC11 DUP2 PUSH2 0xAE0 JUMP JUMPDEST PUSH2 0xC1A DUP5 PUSH2 0xAF5 JUMP JUMPDEST DUP2 ADD PUSH1 0x20 DUP6 LT ISZERO PUSH2 0xC29 JUMPI DUP2 SWAP1 POP JUMPDEST PUSH2 0xC3D PUSH2 0xC35 DUP6 PUSH2 0xAF5 JUMP JUMPDEST DUP4 ADD DUP3 PUSH2 0xBDC JUMP JUMPDEST POP POP JUMPDEST POP POP POP JUMP JUMPDEST PUSH1 0x0 DUP3 DUP3 SHR SWAP1 POP SWAP3 SWAP2 POP POP JUMP JUMPDEST PUSH1 0x0 PUSH2 0xC63 PUSH1 0x0 NOT DUP5 PUSH1 0x8 MUL PUSH2 0xC45 JUMP JUMPDEST NOT DUP1 DUP4 AND SWAP2 POP POP SWAP3 SWAP2 POP POP JUMP JUMPDEST PUSH1 0x0 PUSH2 0xC7C DUP4 DUP4 PUSH2 0xC52 JUMP JUMPDEST SWAP2 POP DUP3 PUSH1 0x2 MUL DUP3 OR SWAP1 POP SWAP3 SWAP2 POP POP JUMP JUMPDEST PUSH2 0xC95 DUP3 PUSH2 0x599 JUMP JUMPDEST PUSH8 0xFFFFFFFFFFFFFFFF DUP2 GT ISZERO PUSH2 0xCAE JUMPI PUSH2 0xCAD PUSH2 0x71B JUMP JUMPDEST JUMPDEST PUSH2 0xCB8 DUP3 SLOAD PUSH2 0x960 JUMP JUMPDEST PUSH2 0xCC3 DUP3 DUP3 DUP6 PUSH2 0xBFF JUMP JUMPDEST PUSH1 0x0 PUSH1 0x20 SWAP1 POP PUSH1 0x1F DUP4 GT PUSH1 0x1 DUP2 EQ PUSH2 0xCF6 JUMPI PUSH1 0x0 DUP5 ISZERO PUSH2 0xCE4 JUMPI DUP3 DUP8 ADD MLOAD SWAP1 POP JUMPDEST PUSH2 0xCEE DUP6 DUP3 PUSH2 0xC70 JUMP JUMPDEST DUP7 SSTORE POP PUSH2 0xD56 JUMP JUMPDEST PUSH1 0x1F NOT DUP5 AND PUSH2 0xD04 DUP7 PUSH2 0xAE0 JUMP JUMPDEST PUSH1 0x0 JUMPDEST DUP3 DUP2 LT ISZERO PUSH2 0xD2C JUMPI DUP5 DUP10 ADD MLOAD DUP3 SSTORE PUSH1 0x1 DUP3 ADD SWAP2 POP PUSH1 0x20 DUP6 ADD SWAP5 POP PUSH1 0x20 DUP2 ADD SWAP1 POP PUSH2 0xD07 JUMP JUMPDEST DUP7 DUP4 LT ISZERO PUSH2 0xD49 JUMPI DUP5 DUP10 ADD MLOAD PUSH2 0xD45 PUSH1 0x1F DUP10 AND DUP3 PUSH2 0xC52 JUMP JUMPDEST DUP4 SSTORE POP JUMPDEST PUSH1 0x1 PUSH1 0x2 DUP9 MUL ADD DUP9 SSTORE POP POP POP JUMPDEST POP POP POP POP POP POP JUMP JUMPDEST PUSH1 0x0 PUSH1 0xA0 DUP3 ADD SWAP1 POP PUSH2 0xD73 PUSH1 0x0 DUP4 ADD DUP9 PUSH2 0x629 JUMP JUMPDEST DUP2 DUP2 SUB PUSH1 0x20 DUP4 ADD MSTORE PUSH2 0xD85 DUP2 DUP8 PUSH2 0x5F0 JUMP JUMPDEST SWAP1 POP DUP2 DUP2 SUB PUSH1 0x40 DUP4 ADD MSTORE PUSH2 0xD99 DUP2 DUP7 PUSH2 0x5F0 JUMP JUMPDEST SWAP1 POP PUSH2 0xDA8 PUSH1 0x60 DUP4 ADD DUP6 PUSH2 0x629 JUMP JUMPDEST PUSH2 0xDB5 PUSH1 0x80 DUP4 ADD DUP5 PUSH2 0x66A JUMP JUMPDEST SWAP7 SWAP6 POP POP POP POP POP POP JUMP INVALID LOG2 PUSH5 0x6970667358 0x22 SLT KECCAK256 PUSH32 0x826ABFD5E62BC7225999CB90F391A5372126CED2187370709008205B551D4E64 PUSH20 0x6F6C634300081800330000000000000000000000 "},"methodIdentifiers":{"addInstrument(string,string,uint256,string,string)":"8b6d4165","instruments(uint256)":"22bbad0b","instrumentsCount()":"3ef439ff"}}}}}