{"contracts/musicID.sol":{"MusicID":{"abi":[{"anonymous":false,"inputs":[{"indexed":false,"internalType":"uint256","name":"id","type":"uint256"},{"indexed":false,"internalType":"string","name":"name","type":"string"},{"indexed":false,"internalType":"string","name":"model","type":"string"},{"indexed":false,"internalType":"string","name":"serialNumber","type":"string"},{"indexed":false,"internalType":"address","name":"owner","type":"address"}],"name":"InstrumentAdded","type":"event"},{"anonymous":false,"inputs":[{"indexed":false,"internalType":"uint256","name":"id","type":"uint256"},{"indexed":false,"internalType":"bool","name":"isStolen","type":"bool"}],"name":"InstrumentMarkedAsStolen","type":"event"},{"anonymous":false,"inputs":[{"indexed":false,"internalType":"uint256","name":"id","type":"uint256"},{"indexed":false,"internalType":"string","name":"maintenanceRecords","type":"string"},{"indexed":false,"internalType":"string","name":"image","type":"string"}],"name":"InstrumentUpdated","type":"event"},{"inputs":[{"internalType":"string","name":"_name","type":"string"},{"internalType":"string","name":"_model","type":"string"},{"internalType":"string","name":"_serialNumber","type":"string"},{"internalType":"string","name":"_maintenanceRecords","type":"string"},{"internalType":"string","name":"_image","type":"string"}],"name":"addInstrument","outputs":[{"internalType":"uint256","name":"","type":"uint256"}],"stateMutability":"nonpayable","type":"function"},{"inputs":[{"internalType":"uint256","name":"_id","type":"uint256"}],"name":"getInstrumentById","outputs":[{"internalType":"uint256","name":"id","type":"uint256"},{"internalType":"string","name":"name","type":"string"},{"internalType":"string","name":"model","type":"string"},{"internalType":"string","name":"serialNumber","type":"string"},{"internalType":"address","name":"owner","type":"address"},{"internalType":"string","name":"maintenanceRecords","type":"string"},{"internalType":"string","name":"image","type":"string"},{"internalType":"bool","name":"isStolen","type":"bool"}],"stateMutability":"view","type":"function"},{"inputs":[{"internalType":"address","name":"_owner","type":"address"}],"name":"getInstrumentsByOwner","outputs":[{"internalType":"uint256[]","name":"","type":"uint256[]"},{"internalType":"string[]","name":"","type":"string[]"}],"stateMutability":"view","type":"function"},{"inputs":[{"internalType":"uint256","name":"","type":"uint256"}],"name":"instruments","outputs":[{"internalType":"string","name":"name","type":"string"},{"internalType":"string","name":"model","type":"string"},{"internalType":"string","name":"serialNumber","type":"string"},{"internalType":"address","name":"owner","type":"address"},{"internalType":"string","name":"maintenanceRecords","type":"string"},{"internalType":"string","name":"image","type":"string"},{"internalType":"bool","name":"isStolen","type":"bool"}],"stateMutability":"view","type":"function"},{"inputs":[],"name":"instrumentsCount","outputs":[{"internalType":"uint256","name":"","type":"uint256"}],"stateMutability":"view","type":"function"},{"inputs":[{"internalType":"uint256","name":"_id","type":"uint256"}],"name":"markInstrumentAsStolen","outputs":[],"stateMutability":"nonpayable","type":"function"},{"inputs":[{"internalType":"uint256","name":"_id","type":"uint256"},{"internalType":"string","name":"_maintenanceRecords","type":"string"},{"internalType":"string","name":"_image","type":"string"}],"name":"updateInstrument","outputs":[],"stateMutability":"nonpayable","type":"function"}],"evm":{"bytecode":{"linkReferences":{},"object":"608060405234801561001057600080fd5b50612018806100206000396000f3fe608060405234801561001057600080fd5b506004361061007d5760003560e01c8063bb1607be1161005b578063bb1607be146100f2578063c9fc0b131461010e578063cc2012131461013f578063e705c17b1461016f5761007d565b806322bbad0b146100825780633ef439ff146100b85780638e607ca3146100d6575b600080fd5b61009c6004803603810190610097919061111d565b6101a6565b6040516100af9796959493929190611236565b60405180910390f35b6100c06104bd565b6040516100cd91906112d7565b60405180910390f35b6100f060048036038101906100eb9190611427565b6104c3565b005b61010c6004803603810190610107919061111d565b610621565b005b610128600480360381019061012391906114de565b610796565b6040516101369291906116d5565b60405180910390f35b6101596004803603810190610154919061170c565b610a5b565b60405161016691906112d7565b60405180910390f35b6101896004803603810190610184919061111d565b610cc9565b60405161019d989796959493929190611813565b60405180910390f35b60006020528060005260406000206000915090508060000180546101c9906118e3565b80601f01602080910402602001604051908101604052809291908181526020018280546101f5906118e3565b80156102425780601f1061021757610100808354040283529160200191610242565b820191906000526020600020905b81548152906001019060200180831161022557829003601f168201915b505050505090806001018054610257906118e3565b80601f0160208091040260200160405190810160405280929190818152602001828054610283906118e3565b80156102d05780601f106102a5576101008083540402835291602001916102d0565b820191906000526020600020905b8154815290600101906020018083116102b357829003601f168201915b5050505050908060020180546102e5906118e3565b80601f0160208091040260200160405190810160405280929190818152602001828054610311906118e3565b801561035e5780601f106103335761010080835404028352916020019161035e565b820191906000526020600020905b81548152906001019060200180831161034157829003601f168201915b5050505050908060030160009054906101000a900473ffffffffffffffffffffffffffffffffffffffff1690806004018054610399906118e3565b80601f01602080910402602001604051908101604052809291908181526020018280546103c5906118e3565b80156104125780601f106103e757610100808354040283529160200191610412565b820191906000526020600020905b8154815290600101906020018083116103f557829003601f168201915b505050505090806005018054610427906118e3565b80601f0160208091040260200160405190810160405280929190818152602001828054610453906118e3565b80156104a05780601f10610475576101008083540402835291602001916104a0565b820191906000526020600020905b81548152906001019060200180831161048357829003601f168201915b5050505050908060060160009054906101000a900460ff16905087565b60015481565b6000831180156104d557506001548311155b610514576040517f08c379a000000000000000000000000000000000000000000000000000000000815260040161050b90611960565b60405180910390fd5b600080600085815260200190815260200160002090508060030160009054906101000a900473ffffffffffffffffffffffffffffffffffffffff1673ffffffffffffffffffffffffffffffffffffffff163373ffffffffffffffffffffffffffffffffffffffff16146105bc576040517f08c379a00000000000000000000000000000000000000000000000000000000081526004016105b3906119f2565b60405180910390fd5b828160040190816105cd9190611bbe565b50818160050190816105df9190611bbe565b507fb5a80eb1cb6eefef81a9fd32ac38c18c963edf35f4456ffbe221ac23bcf0880584848460405161061393929190611c90565b60405180910390a150505050565b60008111801561063357506001548111155b610672576040517f08c379a000000000000000000000000000000000000000000000000000000000815260040161066990611960565b60405180910390fd5b600080600083815260200190815260200160002090508060030160009054906101000a900473ffffffffffffffffffffffffffffffffffffffff1673ffffffffffffffffffffffffffffffffffffffff163373ffffffffffffffffffffffffffffffffffffffff161461071a576040517f08c379a000000000000000000000000000000000000000000000000000000000815260040161071190611d47565b60405180910390fd5b8060060160009054906101000a900460ff16158160060160006101000a81548160ff0219169083151502179055507ffc1a307220fbfe718488a3431d1a645da1c4d5ddd7ecc7c32a1d7a324e569167828260060160009054906101000a900460ff1660405161078a929190611d67565b60405180910390a15050565b606080600080600190505b6001548111610834578473ffffffffffffffffffffffffffffffffffffffff1660008083815260200190815260200160002060030160009054906101000a900473ffffffffffffffffffffffffffffffffffffffff1673ffffffffffffffffffffffffffffffffffffffff160361082157818061081d90611dbf565b9250505b808061082c90611dbf565b9150506107a1565b5060008167ffffffffffffffff811115610851576108506112fc565b5b60405190808252806020026020018201604052801561087f5781602001602082028036833780820191505090505b50905060008267ffffffffffffffff81111561089e5761089d6112fc565b5b6040519080825280602002602001820160405280156108d157816020015b60608152602001906001900390816108bc5790505b509050600080600190505b6001548111610a4b578773ffffffffffffffffffffffffffffffffffffffff1660008083815260200190815260200160002060030160009054906101000a900473ffffffffffffffffffffffffffffffffffffffff1673ffffffffffffffffffffffffffffffffffffffff1603610a38578084838151811061096157610960611e07565b5b602002602001018181525050600080828152602001908152602001600020600001805461098d906118e3565b80601f01602080910402602001604051908101604052809291908181526020018280546109b9906118e3565b8015610a065780601f106109db57610100808354040283529160200191610a06565b820191906000526020600020905b8154815290600101906020018083116109e957829003601f168201915b5050505050838381518110610a1e57610a1d611e07565b5b60200260200101819052508180610a3490611dbf565b9250505b8080610a4390611dbf565b9150506108dc565b5082829550955050505050915091565b600080865111610aa0576040517f08c379a0000000000000000000000000000000000000000000000000000000008152600401610a9790611e82565b60405180910390fd5b6000855111610ae4576040517f08c379a0000000000000000000000000000000000000000000000000000000008152600401610adb90611eee565b60405180910390fd5b6000845111610b28576040517f08c379a0000000000000000000000000000000000000000000000000000000008152600401610b1f90611f5a565b60405180910390fd5b60016000815480929190610b3b90611dbf565b9190505550600060015490506040518060e001604052808881526020018781526020018681526020013373ffffffffffffffffffffffffffffffffffffffff168152602001858152602001848152602001600015158152506000808381526020019081526020016000206000820151816000019081610bba9190611bbe565b506020820151816001019081610bd09190611bbe565b506040820151816002019081610be69190611bbe565b5060608201518160030160006101000a81548173ffffffffffffffffffffffffffffffffffffffff021916908373ffffffffffffffffffffffffffffffffffffffff1602179055506080820151816004019081610c439190611bbe565b5060a0820151816005019081610c599190611bbe565b5060c08201518160060160006101000a81548160ff0219169083151502179055509050507f6c5814bfa67cbb27bfae5c6c9a59d6009633b65ffe8287b75a716b8ad365a70f8188888833604051610cb4959493929190611f7a565b60405180910390a18091505095945050505050565b60006060806060600060608060008089118015610ce857506001548911155b610d27576040517f08c379a0000000000000000000000000000000000000000000000000000000008152600401610d1e90611960565b60405180910390fd5b60008060008b81526020019081526020016000206040518060e0016040529081600082018054610d56906118e3565b80601f0160208091040260200160405190810160405280929190818152602001828054610d82906118e3565b8015610dcf5780601f10610da457610100808354040283529160200191610dcf565b820191906000526020600020905b815481529060010190602001808311610db257829003601f168201915b50505050508152602001600182018054610de8906118e3565b80601f0160208091040260200160405190810160405280929190818152602001828054610e14906118e3565b8015610e615780601f10610e3657610100808354040283529160200191610e61565b820191906000526020600020905b815481529060010190602001808311610e4457829003601f168201915b50505050508152602001600282018054610e7a906118e3565b80601f0160208091040260200160405190810160405280929190818152602001828054610ea6906118e3565b8015610ef35780601f10610ec857610100808354040283529160200191610ef3565b820191906000526020600020905b815481529060010190602001808311610ed657829003601f168201915b505050505081526020016003820160009054906101000a900473ffffffffffffffffffffffffffffffffffffffff1673ffffffffffffffffffffffffffffffffffffffff1673ffffffffffffffffffffffffffffffffffffffff168152602001600482018054610f62906118e3565b80601f0160208091040260200160405190810160405280929190818152602001828054610f8e906118e3565b8015610fdb5780601f10610fb057610100808354040283529160200191610fdb565b820191906000526020600020905b815481529060010190602001808311610fbe57829003601f168201915b50505050508152602001600582018054610ff4906118e3565b80601f0160208091040260200160405190810160405280929190818152602001828054611020906118e3565b801561106d5780601f106110425761010080835404028352916020019161106d565b820191906000526020600020905b81548152906001019060200180831161105057829003601f168201915b505050505081526020016006820160009054906101000a900460ff161515151581525050905089816000015182602001518360400151846060015185608001518660a001518760c001519850985098509850985098509850985050919395975091939597565b6000604051905090565b600080fd5b600080fd5b6000819050919050565b6110fa816110e7565b811461110557600080fd5b50565b600081359050611117816110f1565b92915050565b600060208284031215611133576111326110dd565b5b600061114184828501611108565b91505092915050565b600081519050919050565b600082825260208201905092915050565b60005b83811015611184578082015181840152602081019050611169565b60008484015250505050565b6000601f19601f8301169050919050565b60006111ac8261114a565b6111b68185611155565b93506111c6818560208601611166565b6111cf81611190565b840191505092915050565b600073ffffffffffffffffffffffffffffffffffffffff82169050919050565b6000611205826111da565b9050919050565b611215816111fa565b82525050565b60008115159050919050565b6112308161121b565b82525050565b600060e0820190508181036000830152611250818a6111a1565b9050818103602083015261126481896111a1565b9050818103604083015261127881886111a1565b9050611287606083018761120c565b818103608083015261129981866111a1565b905081810360a08301526112ad81856111a1565b90506112bc60c0830184611227565b98975050505050505050565b6112d1816110e7565b82525050565b60006020820190506112ec60008301846112c8565b92915050565b600080fd5b600080fd5b7f4e487b7100000000000000000000000000000000000000000000000000000000600052604160045260246000fd5b61133482611190565b810181811067ffffffffffffffff82111715611353576113526112fc565b5b80604052505050565b60006113666110d3565b9050611372828261132b565b919050565b600067ffffffffffffffff821115611392576113916112fc565b5b61139b82611190565b9050602081019050919050565b82818337600083830152505050565b60006113ca6113c584611377565b61135c565b9050828152602081018484840111156113e6576113e56112f7565b5b6113f18482856113a8565b509392505050565b600082601f83011261140e5761140d6112f2565b5b813561141e8482602086016113b7565b91505092915050565b6000806000606084860312156114405761143f6110dd565b5b600061144e86828701611108565b935050602084013567ffffffffffffffff81111561146f5761146e6110e2565b5b61147b868287016113f9565b925050604084013567ffffffffffffffff81111561149c5761149b6110e2565b5b6114a8868287016113f9565b9150509250925092565b6114bb816111fa565b81146114c657600080fd5b50565b6000813590506114d8816114b2565b92915050565b6000602082840312156114f4576114f36110dd565b5b6000611502848285016114c9565b91505092915050565b600081519050919050565b600082825260208201905092915050565b6000819050602082019050919050565b611540816110e7565b82525050565b60006115528383611537565b60208301905092915050565b6000602082019050919050565b60006115768261150b565b6115808185611516565b935061158b83611527565b8060005b838110156115bc5781516115a38882611546565b97506115ae8361155e565b92505060018101905061158f565b5085935050505092915050565b600081519050919050565b600082825260208201905092915050565b6000819050602082019050919050565b600082825260208201905092915050565b60006116118261114a565b61161b81856115f5565b935061162b818560208601611166565b61163481611190565b840191505092915050565b600061164b8383611606565b905092915050565b6000602082019050919050565b600061166b826115c9565b61167581856115d4565b935083602082028501611687856115e5565b8060005b858110156116c357848403895281516116a4858261163f565b94506116af83611653565b925060208a0199505060018101905061168b565b50829750879550505050505092915050565b600060408201905081810360008301526116ef818561156b565b905081810360208301526117038184611660565b90509392505050565b600080600080600060a08688031215611728576117276110dd565b5b600086013567ffffffffffffffff811115611746576117456110e2565b5b611752888289016113f9565b955050602086013567ffffffffffffffff811115611773576117726110e2565b5b61177f888289016113f9565b945050604086013567ffffffffffffffff8111156117a05761179f6110e2565b5b6117ac888289016113f9565b935050606086013567ffffffffffffffff8111156117cd576117cc6110e2565b5b6117d9888289016113f9565b925050608086013567ffffffffffffffff8111156117fa576117f96110e2565b5b611806888289016113f9565b9150509295509295909350565b600061010082019050611829600083018b6112c8565b818103602083015261183b818a6111a1565b9050818103604083015261184f81896111a1565b9050818103606083015261186381886111a1565b9050611872608083018761120c565b81810360a083015261188481866111a1565b905081810360c083015261189881856111a1565b90506118a760e0830184611227565b9998505050505050505050565b7f4e487b7100000000000000000000000000000000000000000000000000000000600052602260045260246000fd5b600060028204905060018216806118fb57607f821691505b60208210810361190e5761190d6118b4565b5b50919050565b7f496e737472756d656e74204944206973206f7574206f6620626f756e64730000600082015250565b600061194a601e83611155565b915061195582611914565b602082019050919050565b600060208201905081810360008301526119798161193d565b9050919050565b7f4f6e6c7920746865206f776e65722063616e207570646174652074686973206960008201527f6e737472756d656e740000000000000000000000000000000000000000000000602082015250565b60006119dc602983611155565b91506119e782611980565b604082019050919050565b60006020820190508181036000830152611a0b816119cf565b9050919050565b60008190508160005260206000209050919050565b60006020601f8301049050919050565b600082821b905092915050565b600060088302611a747fffffffffffffffffffffffffffffffffffffffffffffffffffffffffffffffff82611a37565b611a7e8683611a37565b95508019841693508086168417925050509392505050565b6000819050919050565b6000611abb611ab6611ab1846110e7565b611a96565b6110e7565b9050919050565b6000819050919050565b611ad583611aa0565b611ae9611ae182611ac2565b848454611a44565b825550505050565b600090565b611afe611af1565b611b09818484611acc565b505050565b5b81811015611b2d57611b22600082611af6565b600181019050611b0f565b5050565b601f821115611b7257611b4381611a12565b611b4c84611a27565b81016020851015611b5b578190505b611b6f611b6785611a27565b830182611b0e565b50505b505050565b600082821c905092915050565b6000611b9560001984600802611b77565b1980831691505092915050565b6000611bae8383611b84565b9150826002028217905092915050565b611bc78261114a565b67ffffffffffffffff811115611be057611bdf6112fc565b5b611bea82546118e3565b611bf5828285611b31565b600060209050601f831160018114611c285760008415611c16578287015190505b611c208582611ba2565b865550611c88565b601f198416611c3686611a12565b60005b82811015611c5e57848901518255600182019150602085019450602081019050611c39565b86831015611c7b5784890151611c77601f891682611b84565b8355505b6001600288020188555050505b505050505050565b6000606082019050611ca560008301866112c8565b8181036020830152611cb781856111a1565b90508181036040830152611ccb81846111a1565b9050949350505050565b7f4f6e6c7920746865206f776e65722063616e206d61726b207468697320696e7360008201527f7472756d656e742061732073746f6c656e000000000000000000000000000000602082015250565b6000611d31603183611155565b9150611d3c82611cd5565b604082019050919050565b60006020820190508181036000830152611d6081611d24565b9050919050565b6000604082019050611d7c60008301856112c8565b611d896020830184611227565b9392505050565b7f4e487b7100000000000000000000000000000000000000000000000000000000600052601160045260246000fd5b6000611dca826110e7565b91507fffffffffffffffffffffffffffffffffffffffffffffffffffffffffffffffff8203611dfc57611dfb611d90565b5b600182019050919050565b7f4e487b7100000000000000000000000000000000000000000000000000000000600052603260045260246000fd5b7f4e616d652063616e6e6f7420626520656d707479000000000000000000000000600082015250565b6000611e6c601483611155565b9150611e7782611e36565b602082019050919050565b60006020820190508181036000830152611e9b81611e5f565b9050919050565b7f4d6f64656c2063616e6e6f7420626520656d7074790000000000000000000000600082015250565b6000611ed8601583611155565b9150611ee382611ea2565b602082019050919050565b60006020820190508181036000830152611f0781611ecb565b9050919050565b7f53657269616c206e756d6265722063616e6e6f7420626520656d707479000000600082015250565b6000611f44601d83611155565b9150611f4f82611f0e565b602082019050919050565b60006020820190508181036000830152611f7381611f37565b9050919050565b600060a082019050611f8f60008301886112c8565b8181036020830152611fa181876111a1565b90508181036040830152611fb581866111a1565b90508181036060830152611fc981856111a1565b9050611fd8608083018461120c565b969550505050505056fea2646970667358221220435ae1c8aca0fbcdb97f0e4ebebfea4674e2de5b3f5ab236e2e236751334329164736f6c63430008120033","opcodes":"PUSH1 0x80 PUSH1 0x40 MSTORE CALLVALUE DUP1 ISZERO PUSH2 0x10 JUMPI PUSH1 0x0 DUP1 REVERT JUMPDEST POP PUSH2 0x2018 DUP1 PUSH2 0x20 PUSH1 0x0 CODECOPY PUSH1 0x0 RETURN INVALID PUSH1 0x80 PUSH1 0x40 MSTORE CALLVALUE DUP1 ISZERO PUSH2 0x10 JUMPI PUSH1 0x0 DUP1 REVERT JUMPDEST POP PUSH1 0x4 CALLDATASIZE LT PUSH2 0x7D JUMPI PUSH1 0x0 CALLDATALOAD PUSH1 0xE0 SHR DUP1 PUSH4 0xBB1607BE GT PUSH2 0x5B JUMPI DUP1 PUSH4 0xBB1607BE EQ PUSH2 0xF2 JUMPI DUP1 PUSH4 0xC9FC0B13 EQ PUSH2 0x10E JUMPI DUP1 PUSH4 0xCC201213 EQ PUSH2 0x13F JUMPI DUP1 PUSH4 0xE705C17B EQ PUSH2 0x16F JUMPI PUSH2 0x7D JUMP JUMPDEST DUP1 PUSH4 0x22BBAD0B EQ PUSH2 0x82 JUMPI DUP1 PUSH4 0x3EF439FF EQ PUSH2 0xB8 JUMPI DUP1 PUSH4 0x8E607CA3 EQ PUSH2 0xD6 JUMPI JUMPDEST PUSH1 0x0 DUP1 REVERT JUMPDEST PUSH2 0x9C PUSH1 0x4 DUP1 CALLDATASIZE SUB DUP2 ADD SWAP1 PUSH2 0x97 SWAP2 SWAP1 PUSH2 0x111D JUMP JUMPDEST PUSH2 0x1A6 JUMP JUMPDEST PUSH1 0x40 MLOAD PUSH2 0xAF SWAP8 SWAP7 SWAP6 SWAP5 SWAP4 SWAP3 SWAP2 SWAP1 PUSH2 0x1236 JUMP JUMPDEST PUSH1 0x40 MLOAD DUP1 SWAP2 SUB SWAP1 RETURN JUMPDEST PUSH2 0xC0 PUSH2 0x4BD JUMP JUMPDEST PUSH1 0x40 MLOAD PUSH2 0xCD SWAP2 SWAP1 PUSH2 0x12D7 JUMP JUMPDEST PUSH1 0x40 MLOAD DUP1 SWAP2 SUB SWAP1 RETURN JUMPDEST PUSH2 0xF0 PUSH1 0x4 DUP1 CALLDATASIZE SUB DUP2 ADD SWAP1 PUSH2 0xEB SWAP2 SWAP1 PUSH2 0x1427 JUMP JUMPDEST PUSH2 0x4C3 JUMP JUMPDEST STOP JUMPDEST PUSH2 0x10C PUSH1 0x4 DUP1 CALLDATASIZE SUB DUP2 ADD SWAP1 PUSH2 0x107 SWAP2 SWAP1 PUSH2 0x111D JUMP JUMPDEST PUSH2 0x621 JUMP JUMPDEST STOP JUMPDEST PUSH2 0x128 PUSH1 0x4 DUP1 CALLDATASIZE SUB DUP2 ADD SWAP1 PUSH2 0x123 SWAP2 SWAP1 PUSH2 0x14DE JUMP JUMPDEST PUSH2 0x796 JUMP JUMPDEST PUSH1 0x40 MLOAD PUSH2 0x136 SWAP3 SWAP2 SWAP1 PUSH2 0x16D5 JUMP JUMPDEST PUSH1 0x40 MLOAD DUP1 SWAP2 SUB SWAP1 RETURN JUMPDEST PUSH2 0x159 PUSH1 0x4 DUP1 CALLDATASIZE SUB DUP2 ADD SWAP1 PUSH2 0x154 SWAP2 SWAP1 PUSH2 0x170C JUMP JUMPDEST PUSH2 0xA5B JUMP JUMPDEST PUSH1 0x40 MLOAD PUSH2 0x166 SWAP2 SWAP1 PUSH2 0x12D7 JUMP JUMPDEST PUSH1 0x40 MLOAD DUP1 SWAP2 SUB SWAP1 RETURN JUMPDEST PUSH2 0x189 PUSH1 0x4 DUP1 CALLDATASIZE SUB DUP2 ADD SWAP1 PUSH2 0x184 SWAP2 SWAP1 PUSH2 0x111D JUMP JUMPDEST PUSH2 0xCC9 JUMP JUMPDEST PUSH1 0x40 MLOAD PUSH2 0x19D SWAP9 SWAP8 SWAP7 SWAP6 SWAP5 SWAP4 SWAP3 SWAP2 SWAP1 PUSH2 0x1813 JUMP JUMPDEST PUSH1 0x40 MLOAD DUP1 SWAP2 SUB SWAP1 RETURN JUMPDEST PUSH1 0x0 PUSH1 0x20 MSTORE DUP1 PUSH1 0x0 MSTORE PUSH1 0x40 PUSH1 0x0 KECCAK256 PUSH1 0x0 SWAP2 POP SWAP1 POP DUP1 PUSH1 0x0 ADD DUP1 SLOAD PUSH2 0x1C9 SWAP1 PUSH2 0x18E3 JUMP JUMPDEST DUP1 PUSH1 0x1F ADD PUSH1 0x20 DUP1 SWAP2 DIV MUL PUSH1 0x20 ADD PUSH1 0x40 MLOAD SWAP1 DUP2 ADD PUSH1 0x40 MSTORE DUP1 SWAP3 SWAP2 SWAP1 DUP2 DUP2 MSTORE PUSH1 0x20 ADD DUP3 DUP1 SLOAD PUSH2 0x1F5 SWAP1 PUSH2 0x18E3 JUMP JUMPDEST DUP1 ISZERO PUSH2 0x242 JUMPI DUP1 PUSH1 0x1F LT PUSH2 0x217 JUMPI PUSH2 0x100 DUP1 DUP4 SLOAD DIV MUL DUP4 MSTORE SWAP2 PUSH1 0x20 ADD SWAP2 PUSH2 0x242 JUMP JUMPDEST DUP3 ADD SWAP2 SWAP1 PUSH1 0x0 MSTORE PUSH1 0x20 PUSH1 0x0 KECCAK256 SWAP1 JUMPDEST DUP2 SLOAD DUP2 MSTORE SWAP1 PUSH1 0x1 ADD SWAP1 PUSH1 0x20 ADD DUP1 DUP4 GT PUSH2 0x225 JUMPI DUP3 SWAP1 SUB PUSH1 0x1F AND DUP3 ADD SWAP2 JUMPDEST POP POP POP POP POP SWAP1 DUP1 PUSH1 0x1 ADD DUP1 SLOAD PUSH2 0x257 SWAP1 PUSH2 0x18E3 JUMP JUMPDEST DUP1 PUSH1 0x1F ADD PUSH1 0x20 DUP1 SWAP2 DIV MUL PUSH1 0x20 ADD PUSH1 0x40 MLOAD SWAP1 DUP2 ADD PUSH1 0x40 MSTORE DUP1 SWAP3 SWAP2 SWAP1 DUP2 DUP2 MSTORE PUSH1 0x20 ADD DUP3 DUP1 SLOAD PUSH2 0x283 SWAP1 PUSH2 0x18E3 JUMP JUMPDEST DUP1 ISZERO PUSH2 0x2D0 JUMPI DUP1 PUSH1 0x1F LT PUSH2 0x2A5 JUMPI PUSH2 0x100 DUP1 DUP4 SLOAD DIV MUL DUP4 MSTORE SWAP2 PUSH1 0x20 ADD SWAP2 PUSH2 0x2D0 JUMP JUMPDEST DUP3 ADD SWAP2 SWAP1 PUSH1 0x0 MSTORE PUSH1 0x20 PUSH1 0x0 KECCAK256 SWAP1 JUMPDEST DUP2 SLOAD DUP2 MSTORE SWAP1 PUSH1 0x1 ADD SWAP1 PUSH1 0x20 ADD DUP1 DUP4 GT PUSH2 0x2B3 JUMPI DUP3 SWAP1 SUB PUSH1 0x1F AND DUP3 ADD SWAP2 JUMPDEST POP POP POP POP POP SWAP1 DUP1 PUSH1 0x2 ADD DUP1 SLOAD PUSH2 0x2E5 SWAP1 PUSH2 0x18E3 JUMP JUMPDEST DUP1 PUSH1 0x1F ADD PUSH1 0x20 DUP1 SWAP2 DIV MUL PUSH1 0x20 ADD PUSH1 0x40 MLOAD SWAP1 DUP2 ADD PUSH1 0x40 MSTORE DUP1 SWAP3 SWAP2 SWAP1 DUP2 DUP2 MSTORE PUSH1 0x20 ADD DUP3 DUP1 SLOAD PUSH2 0x311 SWAP1 PUSH2 0x18E3 JUMP JUMPDEST DUP1 ISZERO PUSH2 0x35E JUMPI DUP1 PUSH1 0x1F LT PUSH2 0x333 JUMPI PUSH2 0x100 DUP1 DUP4 SLOAD DIV MUL DUP4 MSTORE SWAP2 PUSH1 0x20 ADD SWAP2 PUSH2 0x35E JUMP JUMPDEST DUP3 ADD SWAP2 SWAP1 PUSH1 0x0 MSTORE PUSH1 0x20 PUSH1 0x0 KECCAK256 SWAP1 JUMPDEST DUP2 SLOAD DUP2 MSTORE SWAP1 PUSH1 0x1 ADD SWAP1 PUSH1 0x20 ADD DUP1 DUP4 GT PUSH2 0x341 JUMPI DUP3 SWAP1 SUB PUSH1 0x1F AND DUP3 ADD SWAP2 JUMPDEST POP POP POP POP POP SWAP1 DUP1 PUSH1 0x3 ADD PUSH1 0x0 SWAP1 SLOAD SWAP1 PUSH2 0x100 EXP SWAP1 DIV PUSH20 0xFFFFFFFFFFFFFFFFFFFFFFFFFFFFFFFFFFFFFFFF AND SWAP1 DUP1 PUSH1 0x4 ADD DUP1 SLOAD PUSH2 0x399 SWAP1 PUSH2 0x18E3 JUMP JUMPDEST DUP1 PUSH1 0x1F ADD PUSH1 0x20 DUP1 SWAP2 DIV MUL PUSH1 0x20 ADD PUSH1 0x40 MLOAD SWAP1 DUP2 ADD PUSH1 0x40 MSTORE DUP1 SWAP3 SWAP2 SWAP1 DUP2 DUP2 MSTORE PUSH1 0x20 ADD DUP3 DUP1 SLOAD PUSH2 0x3C5 SWAP1 PUSH2 0x18E3 JUMP JUMPDEST DUP1 ISZERO PUSH2 0x412 JUMPI DUP1 PUSH1 0x1F LT PUSH2 0x3E7 JUMPI PUSH2 0x100 DUP1 DUP4 SLOAD DIV MUL DUP4 MSTORE SWAP2 PUSH1 0x20 ADD SWAP2 PUSH2 0x412 JUMP JUMPDEST DUP3 ADD SWAP2 SWAP1 PUSH1 0x0 MSTORE PUSH1 0x20 PUSH1 0x0 KECCAK256 SWAP1 JUMPDEST DUP2 SLOAD DUP2 MSTORE SWAP1 PUSH1 0x1 ADD SWAP1 PUSH1 0x20 ADD DUP1 DUP4 GT PUSH2 0x3F5 JUMPI DUP3 SWAP1 SUB PUSH1 0x1F AND DUP3 ADD SWAP2 JUMPDEST POP POP POP POP POP SWAP1 DUP1 PUSH1 0x5 ADD DUP1 SLOAD PUSH2 0x427 SWAP1 PUSH2 0x18E3 JUMP JUMPDEST DUP1 PUSH1 0x1F ADD PUSH1 0x20 DUP1 SWAP2 DIV MUL PUSH1 0x20 ADD PUSH1 0x40 MLOAD SWAP1 DUP2 ADD PUSH1 0x40 MSTORE DUP1 SWAP3 SWAP2 SWAP1 DUP2 DUP2 MSTORE PUSH1 0x20 ADD DUP3 DUP1 SLOAD PUSH2 0x453 SWAP1 PUSH2 0x18E3 JUMP JUMPDEST DUP1 ISZERO PUSH2 0x4A0 JUMPI DUP1 PUSH1 0x1F LT PUSH2 0x475 JUMPI PUSH2 0x100 DUP1 DUP4 SLOAD DIV MUL DUP4 MSTORE SWAP2 PUSH1 0x20 ADD SWAP2 PUSH2 0x4A0 JUMP JUMPDEST DUP3 ADD SWAP2 SWAP1 PUSH1 0x0 MSTORE PUSH1 0x20 PUSH1 0x0 KECCAK256 SWAP1 JUMPDEST DUP2 SLOAD DUP2 MSTORE SWAP1 PUSH1 0x1 ADD SWAP1 PUSH1 0x20 ADD DUP1 DUP4 GT PUSH2 0x483 JUMPI DUP3 SWAP1 SUB PUSH1 0x1F AND DUP3 ADD SWAP2 JUMPDEST POP POP POP POP POP SWAP1 DUP1 PUSH1 0x6 ADD PUSH1 0x0 SWAP1 SLOAD SWAP1 PUSH2 0x100 EXP SWAP1 DIV PUSH1 0xFF AND SWAP1 POP DUP8 JUMP JUMPDEST PUSH1 0x1 SLOAD DUP2 JUMP JUMPDEST PUSH1 0x0 DUP4 GT DUP1 ISZERO PUSH2 0x4D5 JUMPI POP PUSH1 0x1 SLOAD DUP4 GT ISZERO JUMPDEST PUSH2 0x514 JUMPI PUSH1 0x40 MLOAD PUSH32 0x8C379A000000000000000000000000000000000000000000000000000000000 DUP2 MSTORE PUSH1 0x4 ADD PUSH2 0x50B SWAP1 PUSH2 0x1960 JUMP JUMPDEST PUSH1 0x40 MLOAD DUP1 SWAP2 SUB SWAP1 REVERT JUMPDEST PUSH1 0x0 DUP1 PUSH1 0x0 DUP6 DUP2 MSTORE PUSH1 0x20 ADD SWAP1 DUP2 MSTORE PUSH1 0x20 ADD PUSH1 0x0 KECCAK256 SWAP1 POP DUP1 PUSH1 0x3 ADD PUSH1 0x0 SWAP1 SLOAD SWAP1 PUSH2 0x100 EXP SWAP1 DIV PUSH20 0xFFFFFFFFFFFFFFFFFFFFFFFFFFFFFFFFFFFFFFFF AND PUSH20 0xFFFFFFFFFFFFFFFFFFFFFFFFFFFFFFFFFFFFFFFF AND CALLER PUSH20 0xFFFFFFFFFFFFFFFFFFFFFFFFFFFFFFFFFFFFFFFF AND EQ PUSH2 0x5BC JUMPI PUSH1 0x40 MLOAD PUSH32 0x8C379A000000000000000000000000000000000000000000000000000000000 DUP2 MSTORE PUSH1 0x4 ADD PUSH2 0x5B3 SWAP1 PUSH2 0x19F2 JUMP JUMPDEST PUSH1 0x40 MLOAD DUP1 SWAP2 SUB SWAP1 REVERT JUMPDEST DUP3 DUP2 PUSH1 0x4 ADD SWAP1 DUP2 PUSH2 0x5CD SWAP2 SWAP1 PUSH2 0x1BBE JUMP JUMPDEST POP DUP2 DUP2 PUSH1 0x5 ADD SWAP1 DUP2 PUSH2 0x5DF SWAP2 SWAP1 PUSH2 0x1BBE JUMP JUMPDEST POP PUSH32 0xB5A80EB1CB6EEFEF81A9FD32AC38C18C963EDF35F4456FFBE221AC23BCF08805 DUP5 DUP5 DUP5 PUSH1 0x40 MLOAD PUSH2 0x613 SWAP4 SWAP3 SWAP2 SWAP1 PUSH2 0x1C90 JUMP JUMPDEST PUSH1 0x40 MLOAD DUP1 SWAP2 SUB SWAP1 LOG1 POP POP POP POP JUMP JUMPDEST PUSH1 0x0 DUP2 GT DUP1 ISZERO PUSH2 0x633 JUMPI POP PUSH1 0x1 SLOAD DUP2 GT ISZERO JUMPDEST PUSH2 0x672 JUMPI PUSH1 0x40 MLOAD PUSH32 0x8C379A000000000000000000000000000000000000000000000000000000000 DUP2 MSTORE PUSH1 0x4 ADD PUSH2 0x669 SWAP1 PUSH2 0x1960 JUMP JUMPDEST PUSH1 0x40 MLOAD DUP1 SWAP2 SUB SWAP1 REVERT JUMPDEST PUSH1 0x0 DUP1 PUSH1 0x0 DUP4 DUP2 MSTORE PUSH1 0x20 ADD SWAP1 DUP2 MSTORE PUSH1 0x20 ADD PUSH1 0x0 KECCAK256 SWAP1 POP DUP1 PUSH1 0x3 ADD PUSH1 0x0 SWAP1 SLOAD SWAP1 PUSH2 0x100 EXP SWAP1 DIV PUSH20 0xFFFFFFFFFFFFFFFFFFFFFFFFFFFFFFFFFFFFFFFF AND PUSH20 0xFFFFFFFFFFFFFFFFFFFFFFFFFFFFFFFFFFFFFFFF AND CALLER PUSH20 0xFFFFFFFFFFFFFFFFFFFFFFFFFFFFFFFFFFFFFFFF AND EQ PUSH2 0x71A JUMPI PUSH1 0x40 MLOAD PUSH32 0x8C379A000000000000000000000000000000000000000000000000000000000 DUP2 MSTORE PUSH1 0x4 ADD PUSH2 0x711 SWAP1 PUSH2 0x1D47 JUMP JUMPDEST PUSH1 0x40 MLOAD DUP1 SWAP2 SUB SWAP1 REVERT JUMPDEST DUP1 PUSH1 0x6 ADD PUSH1 0x0 SWAP1 SLOAD SWAP1 PUSH2 0x100 EXP SWAP1 DIV PUSH1 0xFF AND ISZERO DUP2 PUSH1 0x6 ADD PUSH1 0x0 PUSH2 0x100 EXP DUP2 SLOAD DUP2 PUSH1 0xFF MUL NOT AND SWAP1 DUP4 ISZERO ISZERO MUL OR SWAP1 SSTORE POP PUSH32 0xFC1A307220FBFE718488A3431D1A645DA1C4D5DDD7ECC7C32A1D7A324E569167 DUP3 DUP3 PUSH1 0x6 ADD PUSH1 0x0 SWAP1 SLOAD SWAP1 PUSH2 0x100 EXP SWAP1 DIV PUSH1 0xFF AND PUSH1 0x40 MLOAD PUSH2 0x78A SWAP3 SWAP2 SWAP1 PUSH2 0x1D67 JUMP JUMPDEST PUSH1 0x40 MLOAD DUP1 SWAP2 SUB SWAP1 LOG1 POP POP JUMP JUMPDEST PUSH1 0x60 DUP1 PUSH1 0x0 DUP1 PUSH1 0x1 SWAP1 POP JUMPDEST PUSH1 0x1 SLOAD DUP2 GT PUSH2 0x834 JUMPI DUP5 PUSH20 0xFFFFFFFFFFFFFFFFFFFFFFFFFFFFFFFFFFFFFFFF AND PUSH1 0x0 DUP1 DUP4 DUP2 MSTORE PUSH1 0x20 ADD SWAP1 DUP2 MSTORE PUSH1 0x20 ADD PUSH1 0x0 KECCAK256 PUSH1 0x3 ADD PUSH1 0x0 SWAP1 SLOAD SWAP1 PUSH2 0x100 EXP SWAP1 DIV PUSH20 0xFFFFFFFFFFFFFFFFFFFFFFFFFFFFFFFFFFFFFFFF AND PUSH20 0xFFFFFFFFFFFFFFFFFFFFFFFFFFFFFFFFFFFFFFFF AND SUB PUSH2 0x821 JUMPI DUP2 DUP1 PUSH2 0x81D SWAP1 PUSH2 0x1DBF JUMP JUMPDEST SWAP3 POP POP JUMPDEST DUP1 DUP1 PUSH2 0x82C SWAP1 PUSH2 0x1DBF JUMP JUMPDEST SWAP2 POP POP PUSH2 0x7A1 JUMP JUMPDEST POP PUSH1 0x0 DUP2 PUSH8 0xFFFFFFFFFFFFFFFF DUP2 GT ISZERO PUSH2 0x851 JUMPI PUSH2 0x850 PUSH2 0x12FC JUMP JUMPDEST JUMPDEST PUSH1 0x40 MLOAD SWAP1 DUP1 DUP3 MSTORE DUP1 PUSH1 0x20 MUL PUSH1 0x20 ADD DUP3 ADD PUSH1 0x40 MSTORE DUP1 ISZERO PUSH2 0x87F JUMPI DUP2 PUSH1 0x20 ADD PUSH1 0x20 DUP3 MUL DUP1 CALLDATASIZE DUP4 CALLDATACOPY DUP1 DUP3 ADD SWAP2 POP POP SWAP1 POP JUMPDEST POP SWAP1 POP PUSH1 0x0 DUP3 PUSH8 0xFFFFFFFFFFFFFFFF DUP2 GT ISZERO PUSH2 0x89E JUMPI PUSH2 0x89D PUSH2 0x12FC JUMP JUMPDEST JUMPDEST PUSH1 0x40 MLOAD SWAP1 DUP1 DUP3 MSTORE DUP1 PUSH1 0x20 MUL PUSH1 0x20 ADD DUP3 ADD PUSH1 0x40 MSTORE DUP1 ISZERO PUSH2 0x8D1 JUMPI DUP2 PUSH1 0x20 ADD JUMPDEST PUSH1 0x60 DUP2 MSTORE PUSH1 0x20 ADD SWAP1 PUSH1 0x1 SWAP1 SUB SWAP1 DUP2 PUSH2 0x8BC JUMPI SWAP1 POP JUMPDEST POP SWAP1 POP PUSH1 0x0 DUP1 PUSH1 0x1 SWAP1 POP JUMPDEST PUSH1 0x1 SLOAD DUP2 GT PUSH2 0xA4B JUMPI DUP8 PUSH20 0xFFFFFFFFFFFFFFFFFFFFFFFFFFFFFFFFFFFFFFFF AND PUSH1 0x0 DUP1 DUP4 DUP2 MSTORE PUSH1 0x20 ADD SWAP1 DUP2 MSTORE PUSH1 0x20 ADD PUSH1 0x0 KECCAK256 PUSH1 0x3 ADD PUSH1 0x0 SWAP1 SLOAD SWAP1 PUSH2 0x100 EXP SWAP1 DIV PUSH20 0xFFFFFFFFFFFFFFFFFFFFFFFFFFFFFFFFFFFFFFFF AND PUSH20 0xFFFFFFFFFFFFFFFFFFFFFFFFFFFFFFFFFFFFFFFF AND SUB PUSH2 0xA38 JUMPI DUP1 DUP5 DUP4 DUP2 MLOAD DUP2 LT PUSH2 0x961 JUMPI PUSH2 0x960 PUSH2 0x1E07 JUMP JUMPDEST JUMPDEST PUSH1 0x20 MUL PUSH1 0x20 ADD ADD DUP2 DUP2 MSTORE POP POP PUSH1 0x0 DUP1 DUP3 DUP2 MSTORE PUSH1 0x20 ADD SWAP1 DUP2 MSTORE PUSH1 0x20 ADD PUSH1 0x0 KECCAK256 PUSH1 0x0 ADD DUP1 SLOAD PUSH2 0x98D SWAP1 PUSH2 0x18E3 JUMP JUMPDEST DUP1 PUSH1 0x1F ADD PUSH1 0x20 DUP1 SWAP2 DIV MUL PUSH1 0x20 ADD PUSH1 0x40 MLOAD SWAP1 DUP2 ADD PUSH1 0x40 MSTORE DUP1 SWAP3 SWAP2 SWAP1 DUP2 DUP2 MSTORE PUSH1 0x20 ADD DUP3 DUP1 SLOAD PUSH2 0x9B9 SWAP1 PUSH2 0x18E3 JUMP JUMPDEST DUP1 ISZERO PUSH2 0xA06 JUMPI DUP1 PUSH1 0x1F LT PUSH2 0x9DB JUMPI PUSH2 0x100 DUP1 DUP4 SLOAD DIV MUL DUP4 MSTORE SWAP2 PUSH1 0x20 ADD SWAP2 PUSH2 0xA06 JUMP JUMPDEST DUP3 ADD SWAP2 SWAP1 PUSH1 0x0 MSTORE PUSH1 0x20 PUSH1 0x0 KECCAK256 SWAP1 JUMPDEST DUP2 SLOAD DUP2 MSTORE SWAP1 PUSH1 0x1 ADD SWAP1 PUSH1 0x20 ADD DUP1 DUP4 GT PUSH2 0x9E9 JUMPI DUP3 SWAP1 SUB PUSH1 0x1F AND DUP3 ADD SWAP2 JUMPDEST POP POP POP POP POP DUP4 DUP4 DUP2 MLOAD DUP2 LT PUSH2 0xA1E JUMPI PUSH2 0xA1D PUSH2 0x1E07 JUMP JUMPDEST JUMPDEST PUSH1 0x20 MUL PUSH1 0x20 ADD ADD DUP2 SWAP1 MSTORE POP DUP2 DUP1 PUSH2 0xA34 SWAP1 PUSH2 0x1DBF JUMP JUMPDEST SWAP3 POP POP JUMPDEST DUP1 DUP1 PUSH2 0xA43 SWAP1 PUSH2 0x1DBF JUMP JUMPDEST SWAP2 POP POP PUSH2 0x8DC JUMP JUMPDEST POP DUP3 DUP3 SWAP6 POP SWAP6 POP POP POP POP POP SWAP2 POP SWAP2 JUMP JUMPDEST PUSH1 0x0 DUP1 DUP7 MLOAD GT PUSH2 0xAA0 JUMPI PUSH1 0x40 MLOAD PUSH32 0x8C379A000000000000000000000000000000000000000000000000000000000 DUP2 MSTORE PUSH1 0x4 ADD PUSH2 0xA97 SWAP1 PUSH2 0x1E82 JUMP JUMPDEST PUSH1 0x40 MLOAD DUP1 SWAP2 SUB SWAP1 REVERT JUMPDEST PUSH1 0x0 DUP6 MLOAD GT PUSH2 0xAE4 JUMPI PUSH1 0x40 MLOAD PUSH32 0x8C379A000000000000000000000000000000000000000000000000000000000 DUP2 MSTORE PUSH1 0x4 ADD PUSH2 0xADB SWAP1 PUSH2 0x1EEE JUMP JUMPDEST PUSH1 0x40 MLOAD DUP1 SWAP2 SUB SWAP1 REVERT JUMPDEST PUSH1 0x0 DUP5 MLOAD GT PUSH2 0xB28 JUMPI PUSH1 0x40 MLOAD PUSH32 0x8C379A000000000000000000000000000000000000000000000000000000000 DUP2 MSTORE PUSH1 0x4 ADD PUSH2 0xB1F SWAP1 PUSH2 0x1F5A JUMP JUMPDEST PUSH1 0x40 MLOAD DUP1 SWAP2 SUB SWAP1 REVERT JUMPDEST PUSH1 0x1 PUSH1 0x0 DUP2 SLOAD DUP1 SWAP3 SWAP2 SWAP1 PUSH2 0xB3B SWAP1 PUSH2 0x1DBF JUMP JUMPDEST SWAP2 SWAP1 POP SSTORE POP PUSH1 0x0 PUSH1 0x1 SLOAD SWAP1 POP PUSH1 0x40 MLOAD DUP1 PUSH1 0xE0 ADD PUSH1 0x40 MSTORE DUP1 DUP9 DUP2 MSTORE PUSH1 0x20 ADD DUP8 DUP2 MSTORE PUSH1 0x20 ADD DUP7 DUP2 MSTORE PUSH1 0x20 ADD CALLER PUSH20 0xFFFFFFFFFFFFFFFFFFFFFFFFFFFFFFFFFFFFFFFF AND DUP2 MSTORE PUSH1 0x20 ADD DUP6 DUP2 MSTORE PUSH1 0x20 ADD DUP5 DUP2 MSTORE PUSH1 0x20 ADD PUSH1 0x0 ISZERO ISZERO DUP2 MSTORE POP PUSH1 0x0 DUP1 DUP4 DUP2 MSTORE PUSH1 0x20 ADD SWAP1 DUP2 MSTORE PUSH1 0x20 ADD PUSH1 0x0 KECCAK256 PUSH1 0x0 DUP3 ADD MLOAD DUP2 PUSH1 0x0 ADD SWAP1 DUP2 PUSH2 0xBBA SWAP2 SWAP1 PUSH2 0x1BBE JUMP JUMPDEST POP PUSH1 0x20 DUP3 ADD MLOAD DUP2 PUSH1 0x1 ADD SWAP1 DUP2 PUSH2 0xBD0 SWAP2 SWAP1 PUSH2 0x1BBE JUMP JUMPDEST POP PUSH1 0x40 DUP3 ADD MLOAD DUP2 PUSH1 0x2 ADD SWAP1 DUP2 PUSH2 0xBE6 SWAP2 SWAP1 PUSH2 0x1BBE JUMP JUMPDEST POP PUSH1 0x60 DUP3 ADD MLOAD DUP2 PUSH1 0x3 ADD PUSH1 0x0 PUSH2 0x100 EXP DUP2 SLOAD DUP2 PUSH20 0xFFFFFFFFFFFFFFFFFFFFFFFFFFFFFFFFFFFFFFFF MUL NOT AND SWAP1 DUP4 PUSH20 0xFFFFFFFFFFFFFFFFFFFFFFFFFFFFFFFFFFFFFFFF AND MUL OR SWAP1 SSTORE POP PUSH1 0x80 DUP3 ADD MLOAD DUP2 PUSH1 0x4 ADD SWAP1 DUP2 PUSH2 0xC43 SWAP2 SWAP1 PUSH2 0x1BBE JUMP JUMPDEST POP PUSH1 0xA0 DUP3 ADD MLOAD DUP2 PUSH1 0x5 ADD SWAP1 DUP2 PUSH2 0xC59 SWAP2 SWAP1 PUSH2 0x1BBE JUMP JUMPDEST POP PUSH1 0xC0 DUP3 ADD MLOAD DUP2 PUSH1 0x6 ADD PUSH1 0x0 PUSH2 0x100 EXP DUP2 SLOAD DUP2 PUSH1 0xFF MUL NOT AND SWAP1 DUP4 ISZERO ISZERO MUL OR SWAP1 SSTORE POP SWAP1 POP POP PUSH32 0x6C5814BFA67CBB27BFAE5C6C9A59D6009633B65FFE8287B75A716B8AD365A70F DUP2 DUP9 DUP9 DUP9 CALLER PUSH1 0x40 MLOAD PUSH2 0xCB4 SWAP6 SWAP5 SWAP4 SWAP3 SWAP2 SWAP1 PUSH2 0x1F7A JUMP JUMPDEST PUSH1 0x40 MLOAD DUP1 SWAP2 SUB SWAP1 LOG1 DUP1 SWAP2 POP POP SWAP6 SWAP5 POP POP POP POP POP JUMP JUMPDEST PUSH1 0x0 PUSH1 0x60 DUP1 PUSH1 0x60 PUSH1 0x0 PUSH1 0x60 DUP1 PUSH1 0x0 DUP1 DUP10 GT DUP1 ISZERO PUSH2 0xCE8 JUMPI POP PUSH1 0x1 SLOAD DUP10 GT ISZERO JUMPDEST PUSH2 0xD27 JUMPI PUSH1 0x40 MLOAD PUSH32 0x8C379A000000000000000000000000000000000000000000000000000000000 DUP2 MSTORE PUSH1 0x4 ADD PUSH2 0xD1E SWAP1 PUSH2 0x1960 JUMP JUMPDEST PUSH1 0x40 MLOAD DUP1 SWAP2 SUB SWAP1 REVERT JUMPDEST PUSH1 0x0 DUP1 PUSH1 0x0 DUP12 DUP2 MSTORE PUSH1 0x20 ADD SWAP1 DUP2 MSTORE PUSH1 0x20 ADD PUSH1 0x0 KECCAK256 PUSH1 0x40 MLOAD DUP1 PUSH1 0xE0 ADD PUSH1 0x40 MSTORE SWAP1 DUP2 PUSH1 0x0 DUP3 ADD DUP1 SLOAD PUSH2 0xD56 SWAP1 PUSH2 0x18E3 JUMP JUMPDEST DUP1 PUSH1 0x1F ADD PUSH1 0x20 DUP1 SWAP2 DIV MUL PUSH1 0x20 ADD PUSH1 0x40 MLOAD SWAP1 DUP2 ADD PUSH1 0x40 MSTORE DUP1 SWAP3 SWAP2 SWAP1 DUP2 DUP2 MSTORE PUSH1 0x20 ADD DUP3 DUP1 SLOAD PUSH2 0xD82 SWAP1 PUSH2 0x18E3 JUMP JUMPDEST DUP1 ISZERO PUSH2 0xDCF JUMPI DUP1 PUSH1 0x1F LT PUSH2 0xDA4 JUMPI PUSH2 0x100 DUP1 DUP4 SLOAD DIV MUL DUP4 MSTORE SWAP2 PUSH1 0x20 ADD SWAP2 PUSH2 0xDCF JUMP JUMPDEST DUP3 ADD SWAP2 SWAP1 PUSH1 0x0 MSTORE PUSH1 0x20 PUSH1 0x0 KECCAK256 SWAP1 JUMPDEST DUP2 SLOAD DUP2 MSTORE SWAP1 PUSH1 0x1 ADD SWAP1 PUSH1 0x20 ADD DUP1 DUP4 GT PUSH2 0xDB2 JUMPI DUP3 SWAP1 SUB PUSH1 0x1F AND DUP3 ADD SWAP2 JUMPDEST POP POP POP POP POP DUP2 MSTORE PUSH1 0x20 ADD PUSH1 0x1 DUP3 ADD DUP1 SLOAD PUSH2 0xDE8 SWAP1 PUSH2 0x18E3 JUMP JUMPDEST DUP1 PUSH1 0x1F ADD PUSH1 0x20 DUP1 SWAP2 DIV MUL PUSH1 0x20 ADD PUSH1 0x40 MLOAD SWAP1 DUP2 ADD PUSH1 0x40 MSTORE DUP1 SWAP3 SWAP2 SWAP1 DUP2 DUP2 MSTORE PUSH1 0x20 ADD DUP3 DUP1 SLOAD PUSH2 0xE14 SWAP1 PUSH2 0x18E3 JUMP JUMPDEST DUP1 ISZERO PUSH2 0xE61 JUMPI DUP1 PUSH1 0x1F LT PUSH2 0xE36 JUMPI PUSH2 0x100 DUP1 DUP4 SLOAD DIV MUL DUP4 MSTORE SWAP2 PUSH1 0x20 ADD SWAP2 PUSH2 0xE61 JUMP JUMPDEST DUP3 ADD SWAP2 SWAP1 PUSH1 0x0 MSTORE PUSH1 0x20 PUSH1 0x0 KECCAK256 SWAP1 JUMPDEST DUP2 SLOAD DUP2 MSTORE SWAP1 PUSH1 0x1 ADD SWAP1 PUSH1 0x20 ADD DUP1 DUP4 GT PUSH2 0xE44 JUMPI DUP3 SWAP1 SUB PUSH1 0x1F AND DUP3 ADD SWAP2 JUMPDEST POP POP POP POP POP DUP2 MSTORE PUSH1 0x20 ADD PUSH1 0x2 DUP3 ADD DUP1 SLOAD PUSH2 0xE7A SWAP1 PUSH2 0x18E3 JUMP JUMPDEST DUP1 PUSH1 0x1F ADD PUSH1 0x20 DUP1 SWAP2 DIV MUL PUSH1 0x20 ADD PUSH1 0x40 MLOAD SWAP1 DUP2 ADD PUSH1 0x40 MSTORE DUP1 SWAP3 SWAP2 SWAP1 DUP2 DUP2 MSTORE PUSH1 0x20 ADD DUP3 DUP1 SLOAD PUSH2 0xEA6 SWAP1 PUSH2 0x18E3 JUMP JUMPDEST DUP1 ISZERO PUSH2 0xEF3 JUMPI DUP1 PUSH1 0x1F LT PUSH2 0xEC8 JUMPI PUSH2 0x100 DUP1 DUP4 SLOAD DIV MUL DUP4 MSTORE SWAP2 PUSH1 0x20 ADD SWAP2 PUSH2 0xEF3 JUMP JUMPDEST DUP3 ADD SWAP2 SWAP1 PUSH1 0x0 MSTORE PUSH1 0x20 PUSH1 0x0 KECCAK256 SWAP1 JUMPDEST DUP2 SLOAD DUP2 MSTORE SWAP1 PUSH1 0x1 ADD SWAP1 PUSH1 0x20 ADD DUP1 DUP4 GT PUSH2 0xED6 JUMPI DUP3 SWAP1 SUB PUSH1 0x1F AND DUP3 ADD SWAP2 JUMPDEST POP POP POP POP POP DUP2 MSTORE PUSH1 0x20 ADD PUSH1 0x3 DUP3 ADD PUSH1 0x0 SWAP1 SLOAD SWAP1 PUSH2 0x100 EXP SWAP1 DIV PUSH20 0xFFFFFFFFFFFFFFFFFFFFFFFFFFFFFFFFFFFFFFFF AND PUSH20 0xFFFFFFFFFFFFFFFFFFFFFFFFFFFFFFFFFFFFFFFF AND PUSH20 0xFFFFFFFFFFFFFFFFFFFFFFFFFFFFFFFFFFFFFFFF AND DUP2 MSTORE PUSH1 0x20 ADD PUSH1 0x4 DUP3 ADD DUP1 SLOAD PUSH2 0xF62 SWAP1 PUSH2 0x18E3 JUMP JUMPDEST DUP1 PUSH1 0x1F ADD PUSH1 0x20 DUP1 SWAP2 DIV MUL PUSH1 0x20 ADD PUSH1 0x40 MLOAD SWAP1 DUP2 ADD PUSH1 0x40 MSTORE DUP1 SWAP3 SWAP2 SWAP1 DUP2 DUP2 MSTORE PUSH1 0x20 ADD DUP3 DUP1 SLOAD PUSH2 0xF8E SWAP1 PUSH2 0x18E3 JUMP JUMPDEST DUP1 ISZERO PUSH2 0xFDB JUMPI DUP1 PUSH1 0x1F LT PUSH2 0xFB0 JUMPI PUSH2 0x100 DUP1 DUP4 SLOAD DIV MUL DUP4 MSTORE SWAP2 PUSH1 0x20 ADD SWAP2 PUSH2 0xFDB JUMP JUMPDEST DUP3 ADD SWAP2 SWAP1 PUSH1 0x0 MSTORE PUSH1 0x20 PUSH1 0x0 KECCAK256 SWAP1 JUMPDEST DUP2 SLOAD DUP2 MSTORE SWAP1 PUSH1 0x1 ADD SWAP1 PUSH1 0x20 ADD DUP1 DUP4 GT PUSH2 0xFBE JUMPI DUP3 SWAP1 SUB PUSH1 0x1F AND DUP3 ADD SWAP2 JUMPDEST POP POP POP POP POP DUP2 MSTORE PUSH1 0x20 ADD PUSH1 0x5 DUP3 ADD DUP1 SLOAD PUSH2 0xFF4 SWAP1 PUSH2 0x18E3 JUMP JUMPDEST DUP1 PUSH1 0x1F ADD PUSH1 0x20 DUP1 SWAP2 DIV MUL PUSH1 0x20 ADD PUSH1 0x40 MLOAD SWAP1 DUP2 ADD PUSH1 0x40 MSTORE DUP1 SWAP3 SWAP2 SWAP1 DUP2 DUP2 MSTORE PUSH1 0x20 ADD DUP3 DUP1 SLOAD PUSH2 0x1020 SWAP1 PUSH2 0x18E3 JUMP JUMPDEST DUP1 ISZERO PUSH2 0x106D JUMPI DUP1 PUSH1 0x1F LT PUSH2 0x1042 JUMPI PUSH2 0x100 DUP1 DUP4 SLOAD DIV MUL DUP4 MSTORE SWAP2 PUSH1 0x20 ADD SWAP2 PUSH2 0x106D JUMP JUMPDEST DUP3 ADD SWAP2 SWAP1 PUSH1 0x0 MSTORE PUSH1 0x20 PUSH1 0x0 KECCAK256 SWAP1 JUMPDEST DUP2 SLOAD DUP2 MSTORE SWAP1 PUSH1 0x1 ADD SWAP1 PUSH1 0x20 ADD DUP1 DUP4 GT PUSH2 0x1050 JUMPI DUP3 SWAP1 SUB PUSH1 0x1F AND DUP3 ADD SWAP2 JUMPDEST POP POP POP POP POP DUP2 MSTORE PUSH1 0x20 ADD PUSH1 0x6 DUP3 ADD PUSH1 0x0 SWAP1 SLOAD SWAP1 PUSH2 0x100 EXP SWAP1 DIV PUSH1 0xFF AND ISZERO ISZERO ISZERO ISZERO DUP2 MSTORE POP POP SWAP1 POP DUP10 DUP2 PUSH1 0x0 ADD MLOAD DUP3 PUSH1 0x20 ADD MLOAD DUP4 PUSH1 0x40 ADD MLOAD DUP5 PUSH1 0x60 ADD MLOAD DUP6 PUSH1 0x80 ADD MLOAD DUP7 PUSH1 0xA0 ADD MLOAD DUP8 PUSH1 0xC0 ADD MLOAD SWAP9 POP SWAP9 POP SWAP9 POP SWAP9 POP SWAP9 POP SWAP9 POP SWAP9 POP SWAP9 POP POP SWAP2 SWAP4 SWAP6 SWAP8 POP SWAP2 SWAP4 SWAP6 SWAP8 JUMP JUMPDEST PUSH1 0x0 PUSH1 0x40 MLOAD SWAP1 POP SWAP1 JUMP JUMPDEST PUSH1 0x0 DUP1 REVERT JUMPDEST PUSH1 0x0 DUP1 REVERT JUMPDEST PUSH1 0x0 DUP2 SWAP1 POP SWAP2 SWAP1 POP JUMP JUMPDEST PUSH2 0x10FA DUP2 PUSH2 0x10E7 JUMP JUMPDEST DUP2 EQ PUSH2 0x1105 JUMPI PUSH1 0x0 DUP1 REVERT JUMPDEST POP JUMP JUMPDEST PUSH1 0x0 DUP2 CALLDATALOAD SWAP1 POP PUSH2 0x1117 DUP2 PUSH2 0x10F1 JUMP JUMPDEST SWAP3 SWAP2 POP POP JUMP JUMPDEST PUSH1 0x0 PUSH1 0x20 DUP3 DUP5 SUB SLT ISZERO PUSH2 0x1133 JUMPI PUSH2 0x1132 PUSH2 0x10DD JUMP JUMPDEST JUMPDEST PUSH1 0x0 PUSH2 0x1141 DUP5 DUP3 DUP6 ADD PUSH2 0x1108 JUMP JUMPDEST SWAP2 POP POP SWAP3 SWAP2 POP POP JUMP JUMPDEST PUSH1 0x0 DUP2 MLOAD SWAP1 POP SWAP2 SWAP1 POP JUMP JUMPDEST PUSH1 0x0 DUP3 DUP3 MSTORE PUSH1 0x20 DUP3 ADD SWAP1 POP SWAP3 SWAP2 POP POP JUMP JUMPDEST PUSH1 0x0 JUMPDEST DUP4 DUP2 LT ISZERO PUSH2 0x1184 JUMPI DUP1 DUP3 ADD MLOAD DUP2 DUP5 ADD MSTORE PUSH1 0x20 DUP2 ADD SWAP1 POP PUSH2 0x1169 JUMP JUMPDEST PUSH1 0x0 DUP5 DUP5 ADD MSTORE POP POP POP POP JUMP JUMPDEST PUSH1 0x0 PUSH1 0x1F NOT PUSH1 0x1F DUP4 ADD AND SWAP1 POP SWAP2 SWAP1 POP JUMP JUMPDEST PUSH1 0x0 PUSH2 0x11AC DUP3 PUSH2 0x114A JUMP JUMPDEST PUSH2 0x11B6 DUP2 DUP6 PUSH2 0x1155 JUMP JUMPDEST SWAP4 POP PUSH2 0x11C6 DUP2 DUP6 PUSH1 0x20 DUP7 ADD PUSH2 0x1166 JUMP JUMPDEST PUSH2 0x11CF DUP2 PUSH2 0x1190 JUMP JUMPDEST DUP5 ADD SWAP2 POP POP SWAP3 SWAP2 POP POP JUMP JUMPDEST PUSH1 0x0 PUSH20 0xFFFFFFFFFFFFFFFFFFFFFFFFFFFFFFFFFFFFFFFF DUP3 AND SWAP1 POP SWAP2 SWAP1 POP JUMP JUMPDEST PUSH1 0x0 PUSH2 0x1205 DUP3 PUSH2 0x11DA JUMP JUMPDEST SWAP1 POP SWAP2 SWAP1 POP JUMP JUMPDEST PUSH2 0x1215 DUP2 PUSH2 0x11FA JUMP JUMPDEST DUP3 MSTORE POP POP JUMP JUMPDEST PUSH1 0x0 DUP2 ISZERO ISZERO SWAP1 POP SWAP2 SWAP1 POP JUMP JUMPDEST PUSH2 0x1230 DUP2 PUSH2 0x121B JUMP JUMPDEST DUP3 MSTORE POP POP JUMP JUMPDEST PUSH1 0x0 PUSH1 0xE0 DUP3 ADD SWAP1 POP DUP2 DUP2 SUB PUSH1 0x0 DUP4 ADD MSTORE PUSH2 0x1250 DUP2 DUP11 PUSH2 0x11A1 JUMP JUMPDEST SWAP1 POP DUP2 DUP2 SUB PUSH1 0x20 DUP4 ADD MSTORE PUSH2 0x1264 DUP2 DUP10 PUSH2 0x11A1 JUMP JUMPDEST SWAP1 POP DUP2 DUP2 SUB PUSH1 0x40 DUP4 ADD MSTORE PUSH2 0x1278 DUP2 DUP9 PUSH2 0x11A1 JUMP JUMPDEST SWAP1 POP PUSH2 0x1287 PUSH1 0x60 DUP4 ADD DUP8 PUSH2 0x120C JUMP JUMPDEST DUP2 DUP2 SUB PUSH1 0x80 DUP4 ADD MSTORE PUSH2 0x1299 DUP2 DUP7 PUSH2 0x11A1 JUMP JUMPDEST SWAP1 POP DUP2 DUP2 SUB PUSH1 0xA0 DUP4 ADD MSTORE PUSH2 0x12AD DUP2 DUP6 PUSH2 0x11A1 JUMP JUMPDEST SWAP1 POP PUSH2 0x12BC PUSH1 0xC0 DUP4 ADD DUP5 PUSH2 0x1227 JUMP JUMPDEST SWAP9 SWAP8 POP POP POP POP POP POP POP POP JUMP JUMPDEST PUSH2 0x12D1 DUP2 PUSH2 0x10E7 JUMP JUMPDEST DUP3 MSTORE POP POP JUMP JUMPDEST PUSH1 0x0 PUSH1 0x20 DUP3 ADD SWAP1 POP PUSH2 0x12EC PUSH1 0x0 DUP4 ADD DUP5 PUSH2 0x12C8 JUMP JUMPDEST SWAP3 SWAP2 POP POP JUMP JUMPDEST PUSH1 0x0 DUP1 REVERT JUMPDEST PUSH1 0x0 DUP1 REVERT JUMPDEST PUSH32 0x4E487B7100000000000000000000000000000000000000000000000000000000 PUSH1 0x0 MSTORE PUSH1 0x41 PUSH1 0x4 MSTORE PUSH1 0x24 PUSH1 0x0 REVERT JUMPDEST PUSH2 0x1334 DUP3 PUSH2 0x1190 JUMP JUMPDEST DUP2 ADD DUP2 DUP2 LT PUSH8 0xFFFFFFFFFFFFFFFF DUP3 GT OR ISZERO PUSH2 0x1353 JUMPI PUSH2 0x1352 PUSH2 0x12FC JUMP JUMPDEST JUMPDEST DUP1 PUSH1 0x40 MSTORE POP POP POP JUMP JUMPDEST PUSH1 0x0 PUSH2 0x1366 PUSH2 0x10D3 JUMP JUMPDEST SWAP1 POP PUSH2 0x1372 DUP3 DUP3 PUSH2 0x132B JUMP JUMPDEST SWAP2 SWAP1 POP JUMP JUMPDEST PUSH1 0x0 PUSH8 0xFFFFFFFFFFFFFFFF DUP3 GT ISZERO PUSH2 0x1392 JUMPI PUSH2 0x1391 PUSH2 0x12FC JUMP JUMPDEST JUMPDEST PUSH2 0x139B DUP3 PUSH2 0x1190 JUMP JUMPDEST SWAP1 POP PUSH1 0x20 DUP2 ADD SWAP1 POP SWAP2 SWAP1 POP JUMP JUMPDEST DUP3 DUP2 DUP4 CALLDATACOPY PUSH1 0x0 DUP4 DUP4 ADD MSTORE POP POP POP JUMP JUMPDEST PUSH1 0x0 PUSH2 0x13CA PUSH2 0x13C5 DUP5 PUSH2 0x1377 JUMP JUMPDEST PUSH2 0x135C JUMP JUMPDEST SWAP1 POP DUP3 DUP2 MSTORE PUSH1 0x20 DUP2 ADD DUP5 DUP5 DUP5 ADD GT ISZERO PUSH2 0x13E6 JUMPI PUSH2 0x13E5 PUSH2 0x12F7 JUMP JUMPDEST JUMPDEST PUSH2 0x13F1 DUP5 DUP3 DUP6 PUSH2 0x13A8 JUMP JUMPDEST POP SWAP4 SWAP3 POP POP POP JUMP JUMPDEST PUSH1 0x0 DUP3 PUSH1 0x1F DUP4 ADD SLT PUSH2 0x140E JUMPI PUSH2 0x140D PUSH2 0x12F2 JUMP JUMPDEST JUMPDEST DUP2 CALLDATALOAD PUSH2 0x141E DUP5 DUP3 PUSH1 0x20 DUP7 ADD PUSH2 0x13B7 JUMP JUMPDEST SWAP2 POP POP SWAP3 SWAP2 POP POP JUMP JUMPDEST PUSH1 0x0 DUP1 PUSH1 0x0 PUSH1 0x60 DUP5 DUP7 SUB SLT ISZERO PUSH2 0x1440 JUMPI PUSH2 0x143F PUSH2 0x10DD JUMP JUMPDEST JUMPDEST PUSH1 0x0 PUSH2 0x144E DUP7 DUP3 DUP8 ADD PUSH2 0x1108 JUMP JUMPDEST SWAP4 POP POP PUSH1 0x20 DUP5 ADD CALLDATALOAD PUSH8 0xFFFFFFFFFFFFFFFF DUP2 GT ISZERO PUSH2 0x146F JUMPI PUSH2 0x146E PUSH2 0x10E2 JUMP JUMPDEST JUMPDEST PUSH2 0x147B DUP7 DUP3 DUP8 ADD PUSH2 0x13F9 JUMP JUMPDEST SWAP3 POP POP PUSH1 0x40 DUP5 ADD CALLDATALOAD PUSH8 0xFFFFFFFFFFFFFFFF DUP2 GT ISZERO PUSH2 0x149C JUMPI PUSH2 0x149B PUSH2 0x10E2 JUMP JUMPDEST JUMPDEST PUSH2 0x14A8 DUP7 DUP3 DUP8 ADD PUSH2 0x13F9 JUMP JUMPDEST SWAP2 POP POP SWAP3 POP SWAP3 POP SWAP3 JUMP JUMPDEST PUSH2 0x14BB DUP2 PUSH2 0x11FA JUMP JUMPDEST DUP2 EQ PUSH2 0x14C6 JUMPI PUSH1 0x0 DUP1 REVERT JUMPDEST POP JUMP JUMPDEST PUSH1 0x0 DUP2 CALLDATALOAD SWAP1 POP PUSH2 0x14D8 DUP2 PUSH2 0x14B2 JUMP JUMPDEST SWAP3 SWAP2 POP POP JUMP JUMPDEST PUSH1 0x0 PUSH1 0x20 DUP3 DUP5 SUB SLT ISZERO PUSH2 0x14F4 JUMPI PUSH2 0x14F3 PUSH2 0x10DD JUMP JUMPDEST JUMPDEST PUSH1 0x0 PUSH2 0x1502 DUP5 DUP3 DUP6 ADD PUSH2 0x14C9 JUMP JUMPDEST SWAP2 POP POP SWAP3 SWAP2 POP POP JUMP JUMPDEST PUSH1 0x0 DUP2 MLOAD SWAP1 POP SWAP2 SWAP1 POP JUMP JUMPDEST PUSH1 0x0 DUP3 DUP3 MSTORE PUSH1 0x20 DUP3 ADD SWAP1 POP SWAP3 SWAP2 POP POP JUMP JUMPDEST PUSH1 0x0 DUP2 SWAP1 POP PUSH1 0x20 DUP3 ADD SWAP1 POP SWAP2 SWAP1 POP JUMP JUMPDEST PUSH2 0x1540 DUP2 PUSH2 0x10E7 JUMP JUMPDEST DUP3 MSTORE POP POP JUMP JUMPDEST PUSH1 0x0 PUSH2 0x1552 DUP4 DUP4 PUSH2 0x1537 JUMP JUMPDEST PUSH1 0x20 DUP4 ADD SWAP1 POP SWAP3 SWAP2 POP POP JUMP JUMPDEST PUSH1 0x0 PUSH1 0x20 DUP3 ADD SWAP1 POP SWAP2 SWAP1 POP JUMP JUMPDEST PUSH1 0x0 PUSH2 0x1576 DUP3 PUSH2 0x150B JUMP JUMPDEST PUSH2 0x1580 DUP2 DUP6 PUSH2 0x1516 JUMP JUMPDEST SWAP4 POP PUSH2 0x158B DUP4 PUSH2 0x1527 JUMP JUMPDEST DUP1 PUSH1 0x0 JUMPDEST DUP4 DUP2 LT ISZERO PUSH2 0x15BC JUMPI DUP2 MLOAD PUSH2 0x15A3 DUP9 DUP3 PUSH2 0x1546 JUMP JUMPDEST SWAP8 POP PUSH2 0x15AE DUP4 PUSH2 0x155E JUMP JUMPDEST SWAP3 POP POP PUSH1 0x1 DUP2 ADD SWAP1 POP PUSH2 0x158F JUMP JUMPDEST POP DUP6 SWAP4 POP POP POP POP SWAP3 SWAP2 POP POP JUMP JUMPDEST PUSH1 0x0 DUP2 MLOAD SWAP1 POP SWAP2 SWAP1 POP JUMP JUMPDEST PUSH1 0x0 DUP3 DUP3 MSTORE PUSH1 0x20 DUP3 ADD SWAP1 POP SWAP3 SWAP2 POP POP JUMP JUMPDEST PUSH1 0x0 DUP2 SWAP1 POP PUSH1 0x20 DUP3 ADD SWAP1 POP SWAP2 SWAP1 POP JUMP JUMPDEST PUSH1 0x0 DUP3 DUP3 MSTORE PUSH1 0x20 DUP3 ADD SWAP1 POP SWAP3 SWAP2 POP POP JUMP JUMPDEST PUSH1 0x0 PUSH2 0x1611 DUP3 PUSH2 0x114A JUMP JUMPDEST PUSH2 0x161B DUP2 DUP6 PUSH2 0x15F5 JUMP JUMPDEST SWAP4 POP PUSH2 0x162B DUP2 DUP6 PUSH1 0x20 DUP7 ADD PUSH2 0x1166 JUMP JUMPDEST PUSH2 0x1634 DUP2 PUSH2 0x1190 JUMP JUMPDEST DUP5 ADD SWAP2 POP POP SWAP3 SWAP2 POP POP JUMP JUMPDEST PUSH1 0x0 PUSH2 0x164B DUP4 DUP4 PUSH2 0x1606 JUMP JUMPDEST SWAP1 POP SWAP3 SWAP2 POP POP JUMP JUMPDEST PUSH1 0x0 PUSH1 0x20 DUP3 ADD SWAP1 POP SWAP2 SWAP1 POP JUMP JUMPDEST PUSH1 0x0 PUSH2 0x166B DUP3 PUSH2 0x15C9 JUMP JUMPDEST PUSH2 0x1675 DUP2 DUP6 PUSH2 0x15D4 JUMP JUMPDEST SWAP4 POP DUP4 PUSH1 0x20 DUP3 MUL DUP6 ADD PUSH2 0x1687 DUP6 PUSH2 0x15E5 JUMP JUMPDEST DUP1 PUSH1 0x0 JUMPDEST DUP6 DUP2 LT ISZERO PUSH2 0x16C3 JUMPI DUP5 DUP5 SUB DUP10 MSTORE DUP2 MLOAD PUSH2 0x16A4 DUP6 DUP3 PUSH2 0x163F JUMP JUMPDEST SWAP5 POP PUSH2 0x16AF DUP4 PUSH2 0x1653 JUMP JUMPDEST SWAP3 POP PUSH1 0x20 DUP11 ADD SWAP10 POP POP PUSH1 0x1 DUP2 ADD SWAP1 POP PUSH2 0x168B JUMP JUMPDEST POP DUP3 SWAP8 POP DUP8 SWAP6 POP POP POP POP POP POP SWAP3 SWAP2 POP POP JUMP JUMPDEST PUSH1 0x0 PUSH1 0x40 DUP3 ADD SWAP1 POP DUP2 DUP2 SUB PUSH1 0x0 DUP4 ADD MSTORE PUSH2 0x16EF DUP2 DUP6 PUSH2 0x156B JUMP JUMPDEST SWAP1 POP DUP2 DUP2 SUB PUSH1 0x20 DUP4 ADD MSTORE PUSH2 0x1703 DUP2 DUP5 PUSH2 0x1660 JUMP JUMPDEST SWAP1 POP SWAP4 SWAP3 POP POP POP JUMP JUMPDEST PUSH1 0x0 DUP1 PUSH1 0x0 DUP1 PUSH1 0x0 PUSH1 0xA0 DUP7 DUP9 SUB SLT ISZERO PUSH2 0x1728 JUMPI PUSH2 0x1727 PUSH2 0x10DD JUMP JUMPDEST JUMPDEST PUSH1 0x0 DUP7 ADD CALLDATALOAD PUSH8 0xFFFFFFFFFFFFFFFF DUP2 GT ISZERO PUSH2 0x1746 JUMPI PUSH2 0x1745 PUSH2 0x10E2 JUMP JUMPDEST JUMPDEST PUSH2 0x1752 DUP9 DUP3 DUP10 ADD PUSH2 0x13F9 JUMP JUMPDEST SWAP6 POP POP PUSH1 0x20 DUP7 ADD CALLDATALOAD PUSH8 0xFFFFFFFFFFFFFFFF DUP2 GT ISZERO PUSH2 0x1773 JUMPI PUSH2 0x1772 PUSH2 0x10E2 JUMP JUMPDEST JUMPDEST PUSH2 0x177F DUP9 DUP3 DUP10 ADD PUSH2 0x13F9 JUMP JUMPDEST SWAP5 POP POP PUSH1 0x40 DUP7 ADD CALLDATALOAD PUSH8 0xFFFFFFFFFFFFFFFF DUP2 GT ISZERO PUSH2 0x17A0 JUMPI PUSH2 0x179F PUSH2 0x10E2 JUMP JUMPDEST JUMPDEST PUSH2 0x17AC DUP9 DUP3 DUP10 ADD PUSH2 0x13F9 JUMP JUMPDEST SWAP4 POP POP PUSH1 0x60 DUP7 ADD CALLDATALOAD PUSH8 0xFFFFFFFFFFFFFFFF DUP2 GT ISZERO PUSH2 0x17CD JUMPI PUSH2 0x17CC PUSH2 0x10E2 JUMP JUMPDEST JUMPDEST PUSH2 0x17D9 DUP9 DUP3 DUP10 ADD PUSH2 0x13F9 JUMP JUMPDEST SWAP3 POP POP PUSH1 0x80 DUP7 ADD CALLDATALOAD PUSH8 0xFFFFFFFFFFFFFFFF DUP2 GT ISZERO PUSH2 0x17FA JUMPI PUSH2 0x17F9 PUSH2 0x10E2 JUMP JUMPDEST JUMPDEST PUSH2 0x1806 DUP9 DUP3 DUP10 ADD PUSH2 0x13F9 JUMP JUMPDEST SWAP2 POP POP SWAP3 SWAP6 POP SWAP3 SWAP6 SWAP1 SWAP4 POP JUMP JUMPDEST PUSH1 0x0 PUSH2 0x100 DUP3 ADD SWAP1 POP PUSH2 0x1829 PUSH1 0x0 DUP4 ADD DUP12 PUSH2 0x12C8 JUMP JUMPDEST DUP2 DUP2 SUB PUSH1 0x20 DUP4 ADD MSTORE PUSH2 0x183B DUP2 DUP11 PUSH2 0x11A1 JUMP JUMPDEST SWAP1 POP DUP2 DUP2 SUB PUSH1 0x40 DUP4 ADD MSTORE PUSH2 0x184F DUP2 DUP10 PUSH2 0x11A1 JUMP JUMPDEST SWAP1 POP DUP2 DUP2 SUB PUSH1 0x60 DUP4 ADD MSTORE PUSH2 0x1863 DUP2 DUP9 PUSH2 0x11A1 JUMP JUMPDEST SWAP1 POP PUSH2 0x1872 PUSH1 0x80 DUP4 ADD DUP8 PUSH2 0x120C JUMP JUMPDEST DUP2 DUP2 SUB PUSH1 0xA0 DUP4 ADD MSTORE PUSH2 0x1884 DUP2 DUP7 PUSH2 0x11A1 JUMP JUMPDEST SWAP1 POP DUP2 DUP2 SUB PUSH1 0xC0 DUP4 ADD MSTORE PUSH2 0x1898 DUP2 DUP6 PUSH2 0x11A1 JUMP JUMPDEST SWAP1 POP PUSH2 0x18A7 PUSH1 0xE0 DUP4 ADD DUP5 PUSH2 0x1227 JUMP JUMPDEST SWAP10 SWAP9 POP POP POP POP POP POP POP POP POP JUMP JUMPDEST PUSH32 0x4E487B7100000000000000000000000000000000000000000000000000000000 PUSH1 0x0 MSTORE PUSH1 0x22 PUSH1 0x4 MSTORE PUSH1 0x24 PUSH1 0x0 REVERT JUMPDEST PUSH1 0x0 PUSH1 0x2 DUP3 DIV SWAP1 POP PUSH1 0x1 DUP3 AND DUP1 PUSH2 0x18FB JUMPI PUSH1 0x7F DUP3 AND SWAP2 POP JUMPDEST PUSH1 0x20 DUP3 LT DUP2 SUB PUSH2 0x190E JUMPI PUSH2 0x190D PUSH2 0x18B4 JUMP JUMPDEST JUMPDEST POP SWAP2 SWAP1 POP JUMP JUMPDEST PUSH32 0x496E737472756D656E74204944206973206F7574206F6620626F756E64730000 PUSH1 0x0 DUP3 ADD MSTORE POP JUMP JUMPDEST PUSH1 0x0 PUSH2 0x194A PUSH1 0x1E DUP4 PUSH2 0x1155 JUMP JUMPDEST SWAP2 POP PUSH2 0x1955 DUP3 PUSH2 0x1914 JUMP JUMPDEST PUSH1 0x20 DUP3 ADD SWAP1 POP SWAP2 SWAP1 POP JUMP JUMPDEST PUSH1 0x0 PUSH1 0x20 DUP3 ADD SWAP1 POP DUP2 DUP2 SUB PUSH1 0x0 DUP4 ADD MSTORE PUSH2 0x1979 DUP2 PUSH2 0x193D JUMP JUMPDEST SWAP1 POP SWAP2 SWAP1 POP JUMP JUMPDEST PUSH32 0x4F6E6C7920746865206F776E65722063616E2075706461746520746869732069 PUSH1 0x0 DUP3 ADD MSTORE PUSH32 0x6E737472756D656E740000000000000000000000000000000000000000000000 PUSH1 0x20 DUP3 ADD MSTORE POP JUMP JUMPDEST PUSH1 0x0 PUSH2 0x19DC PUSH1 0x29 DUP4 PUSH2 0x1155 JUMP JUMPDEST SWAP2 POP PUSH2 0x19E7 DUP3 PUSH2 0x1980 JUMP JUMPDEST PUSH1 0x40 DUP3 ADD SWAP1 POP SWAP2 SWAP1 POP JUMP JUMPDEST PUSH1 0x0 PUSH1 0x20 DUP3 ADD SWAP1 POP DUP2 DUP2 SUB PUSH1 0x0 DUP4 ADD MSTORE PUSH2 0x1A0B DUP2 PUSH2 0x19CF JUMP JUMPDEST SWAP1 POP SWAP2 SWAP1 POP JUMP JUMPDEST PUSH1 0x0 DUP2 SWAP1 POP DUP2 PUSH1 0x0 MSTORE PUSH1 0x20 PUSH1 0x0 KECCAK256 SWAP1 POP SWAP2 SWAP1 POP JUMP JUMPDEST PUSH1 0x0 PUSH1 0x20 PUSH1 0x1F DUP4 ADD DIV SWAP1 POP SWAP2 SWAP1 POP JUMP JUMPDEST PUSH1 0x0 DUP3 DUP3 SHL SWAP1 POP SWAP3 SWAP2 POP POP JUMP JUMPDEST PUSH1 0x0 PUSH1 0x8 DUP4 MUL PUSH2 0x1A74 PUSH32 0xFFFFFFFFFFFFFFFFFFFFFFFFFFFFFFFFFFFFFFFFFFFFFFFFFFFFFFFFFFFFFFFF DUP3 PUSH2 0x1A37 JUMP JUMPDEST PUSH2 0x1A7E DUP7 DUP4 PUSH2 0x1A37 JUMP JUMPDEST SWAP6 POP DUP1 NOT DUP5 AND SWAP4 POP DUP1 DUP7 AND DUP5 OR SWAP3 POP POP POP SWAP4 SWAP3 POP POP POP JUMP JUMPDEST PUSH1 0x0 DUP2 SWAP1 POP SWAP2 SWAP1 POP JUMP JUMPDEST PUSH1 0x0 PUSH2 0x1ABB PUSH2 0x1AB6 PUSH2 0x1AB1 DUP5 PUSH2 0x10E7 JUMP JUMPDEST PUSH2 0x1A96 JUMP JUMPDEST PUSH2 0x10E7 JUMP JUMPDEST SWAP1 POP SWAP2 SWAP1 POP JUMP JUMPDEST PUSH1 0x0 DUP2 SWAP1 POP SWAP2 SWAP1 POP JUMP JUMPDEST PUSH2 0x1AD5 DUP4 PUSH2 0x1AA0 JUMP JUMPDEST PUSH2 0x1AE9 PUSH2 0x1AE1 DUP3 PUSH2 0x1AC2 JUMP JUMPDEST DUP5 DUP5 SLOAD PUSH2 0x1A44 JUMP JUMPDEST DUP3 SSTORE POP POP POP POP JUMP JUMPDEST PUSH1 0x0 SWAP1 JUMP JUMPDEST PUSH2 0x1AFE PUSH2 0x1AF1 JUMP JUMPDEST PUSH2 0x1B09 DUP2 DUP5 DUP5 PUSH2 0x1ACC JUMP JUMPDEST POP POP POP JUMP JUMPDEST JUMPDEST DUP2 DUP2 LT ISZERO PUSH2 0x1B2D JUMPI PUSH2 0x1B22 PUSH1 0x0 DUP3 PUSH2 0x1AF6 JUMP JUMPDEST PUSH1 0x1 DUP2 ADD SWAP1 POP PUSH2 0x1B0F JUMP JUMPDEST POP POP JUMP JUMPDEST PUSH1 0x1F DUP3 GT ISZERO PUSH2 0x1B72 JUMPI PUSH2 0x1B43 DUP2 PUSH2 0x1A12 JUMP JUMPDEST PUSH2 0x1B4C DUP5 PUSH2 0x1A27 JUMP JUMPDEST DUP2 ADD PUSH1 0x20 DUP6 LT ISZERO PUSH2 0x1B5B JUMPI DUP2 SWAP1 POP JUMPDEST PUSH2 0x1B6F PUSH2 0x1B67 DUP6 PUSH2 0x1A27 JUMP JUMPDEST DUP4 ADD DUP3 PUSH2 0x1B0E JUMP JUMPDEST POP POP JUMPDEST POP POP POP JUMP JUMPDEST PUSH1 0x0 DUP3 DUP3 SHR SWAP1 POP SWAP3 SWAP2 POP POP JUMP JUMPDEST PUSH1 0x0 PUSH2 0x1B95 PUSH1 0x0 NOT DUP5 PUSH1 0x8 MUL PUSH2 0x1B77 JUMP JUMPDEST NOT DUP1 DUP4 AND SWAP2 POP POP SWAP3 SWAP2 POP POP JUMP JUMPDEST PUSH1 0x0 PUSH2 0x1BAE DUP4 DUP4 PUSH2 0x1B84 JUMP JUMPDEST SWAP2 POP DUP3 PUSH1 0x2 MUL DUP3 OR SWAP1 POP SWAP3 SWAP2 POP POP JUMP JUMPDEST PUSH2 0x1BC7 DUP3 PUSH2 0x114A JUMP JUMPDEST PUSH8 0xFFFFFFFFFFFFFFFF DUP2 GT ISZERO PUSH2 0x1BE0 JUMPI PUSH2 0x1BDF PUSH2 0x12FC JUMP JUMPDEST JUMPDEST PUSH2 0x1BEA DUP3 SLOAD PUSH2 0x18E3 JUMP JUMPDEST PUSH2 0x1BF5 DUP3 DUP3 DUP6 PUSH2 0x1B31 JUMP JUMPDEST PUSH1 0x0 PUSH1 0x20 SWAP1 POP PUSH1 0x1F DUP4 GT PUSH1 0x1 DUP2 EQ PUSH2 0x1C28 JUMPI PUSH1 0x0 DUP5 ISZERO PUSH2 0x1C16 JUMPI DUP3 DUP8 ADD MLOAD SWAP1 POP JUMPDEST PUSH2 0x1C20 DUP6 DUP3 PUSH2 0x1BA2 JUMP JUMPDEST DUP7 SSTORE POP PUSH2 0x1C88 JUMP JUMPDEST PUSH1 0x1F NOT DUP5 AND PUSH2 0x1C36 DUP7 PUSH2 0x1A12 JUMP JUMPDEST PUSH1 0x0 JUMPDEST DUP3 DUP2 LT ISZERO PUSH2 0x1C5E JUMPI DUP5 DUP10 ADD MLOAD DUP3 SSTORE PUSH1 0x1 DUP3 ADD SWAP2 POP PUSH1 0x20 DUP6 ADD SWAP5 POP PUSH1 0x20 DUP2 ADD SWAP1 POP PUSH2 0x1C39 JUMP JUMPDEST DUP7 DUP4 LT ISZERO PUSH2 0x1C7B JUMPI DUP5 DUP10 ADD MLOAD PUSH2 0x1C77 PUSH1 0x1F DUP10 AND DUP3 PUSH2 0x1B84 JUMP JUMPDEST DUP4 SSTORE POP JUMPDEST PUSH1 0x1 PUSH1 0x2 DUP9 MUL ADD DUP9 SSTORE POP POP POP JUMPDEST POP POP POP POP POP POP JUMP JUMPDEST PUSH1 0x0 PUSH1 0x60 DUP3 ADD SWAP1 POP PUSH2 0x1CA5 PUSH1 0x0 DUP4 ADD DUP7 PUSH2 0x12C8 JUMP JUMPDEST DUP2 DUP2 SUB PUSH1 0x20 DUP4 ADD MSTORE PUSH2 0x1CB7 DUP2 DUP6 PUSH2 0x11A1 JUMP JUMPDEST SWAP1 POP DUP2 DUP2 SUB PUSH1 0x40 DUP4 ADD MSTORE PUSH2 0x1CCB DUP2 DUP5 PUSH2 0x11A1 JUMP JUMPDEST SWAP1 POP SWAP5 SWAP4 POP POP POP POP JUMP JUMPDEST PUSH32 0x4F6E6C7920746865206F776E65722063616E206D61726B207468697320696E73 PUSH1 0x0 DUP3 ADD MSTORE PUSH32 0x7472756D656E742061732073746F6C656E000000000000000000000000000000 PUSH1 0x20 DUP3 ADD MSTORE POP JUMP JUMPDEST PUSH1 0x0 PUSH2 0x1D31 PUSH1 0x31 DUP4 PUSH2 0x1155 JUMP JUMPDEST SWAP2 POP PUSH2 0x1D3C DUP3 PUSH2 0x1CD5 JUMP JUMPDEST PUSH1 0x40 DUP3 ADD SWAP1 POP SWAP2 SWAP1 POP JUMP JUMPDEST PUSH1 0x0 PUSH1 0x20 DUP3 ADD SWAP1 POP DUP2 DUP2 SUB PUSH1 0x0 DUP4 ADD MSTORE PUSH2 0x1D60 DUP2 PUSH2 0x1D24 JUMP JUMPDEST SWAP1 POP SWAP2 SWAP1 POP JUMP JUMPDEST PUSH1 0x0 PUSH1 0x40 DUP3 ADD SWAP1 POP PUSH2 0x1D7C PUSH1 0x0 DUP4 ADD DUP6 PUSH2 0x12C8 JUMP JUMPDEST PUSH2 0x1D89 PUSH1 0x20 DUP4 ADD DUP5 PUSH2 0x1227 JUMP JUMPDEST SWAP4 SWAP3 POP POP POP JUMP JUMPDEST PUSH32 0x4E487B7100000000000000000000000000000000000000000000000000000000 PUSH1 0x0 MSTORE PUSH1 0x11 PUSH1 0x4 MSTORE PUSH1 0x24 PUSH1 0x0 REVERT JUMPDEST PUSH1 0x0 PUSH2 0x1DCA DUP3 PUSH2 0x10E7 JUMP JUMPDEST SWAP2 POP PUSH32 0xFFFFFFFFFFFFFFFFFFFFFFFFFFFFFFFFFFFFFFFFFFFFFFFFFFFFFFFFFFFFFFFF DUP3 SUB PUSH2 0x1DFC JUMPI PUSH2 0x1DFB PUSH2 0x1D90 JUMP JUMPDEST JUMPDEST PUSH1 0x1 DUP3 ADD SWAP1 POP SWAP2 SWAP1 POP JUMP JUMPDEST PUSH32 0x4E487B7100000000000000000000000000000000000000000000000000000000 PUSH1 0x0 MSTORE PUSH1 0x32 PUSH1 0x4 MSTORE PUSH1 0x24 PUSH1 0x0 REVERT JUMPDEST PUSH32 0x4E616D652063616E6E6F7420626520656D707479000000000000000000000000 PUSH1 0x0 DUP3 ADD MSTORE POP JUMP JUMPDEST PUSH1 0x0 PUSH2 0x1E6C PUSH1 0x14 DUP4 PUSH2 0x1155 JUMP JUMPDEST SWAP2 POP PUSH2 0x1E77 DUP3 PUSH2 0x1E36 JUMP JUMPDEST PUSH1 0x20 DUP3 ADD SWAP1 POP SWAP2 SWAP1 POP JUMP JUMPDEST PUSH1 0x0 PUSH1 0x20 DUP3 ADD SWAP1 POP DUP2 DUP2 SUB PUSH1 0x0 DUP4 ADD MSTORE PUSH2 0x1E9B DUP2 PUSH2 0x1E5F JUMP JUMPDEST SWAP1 POP SWAP2 SWAP1 POP JUMP JUMPDEST PUSH32 0x4D6F64656C2063616E6E6F7420626520656D7074790000000000000000000000 PUSH1 0x0 DUP3 ADD MSTORE POP JUMP JUMPDEST PUSH1 0x0 PUSH2 0x1ED8 PUSH1 0x15 DUP4 PUSH2 0x1155 JUMP JUMPDEST SWAP2 POP PUSH2 0x1EE3 DUP3 PUSH2 0x1EA2 JUMP JUMPDEST PUSH1 0x20 DUP3 ADD SWAP1 POP SWAP2 SWAP1 POP JUMP JUMPDEST PUSH1 0x0 PUSH1 0x20 DUP3 ADD SWAP1 POP DUP2 DUP2 SUB PUSH1 0x0 DUP4 ADD MSTORE PUSH2 0x1F07 DUP2 PUSH2 0x1ECB JUMP JUMPDEST SWAP1 POP SWAP2 SWAP1 POP JUMP JUMPDEST PUSH32 0x53657269616C206E756D6265722063616E6E6F7420626520656D707479000000 PUSH1 0x0 DUP3 ADD MSTORE POP JUMP JUMPDEST PUSH1 0x0 PUSH2 0x1F44 PUSH1 0x1D DUP4 PUSH2 0x1155 JUMP JUMPDEST SWAP2 POP PUSH2 0x1F4F DUP3 PUSH2 0x1F0E JUMP JUMPDEST PUSH1 0x20 DUP3 ADD SWAP1 POP SWAP2 SWAP1 POP JUMP JUMPDEST PUSH1 0x0 PUSH1 0x20 DUP3 ADD SWAP1 POP DUP2 DUP2 SUB PUSH1 0x0 DUP4 ADD MSTORE PUSH2 0x1F73 DUP2 PUSH2 0x1F37 JUMP JUMPDEST SWAP1 POP SWAP2 SWAP1 POP JUMP JUMPDEST PUSH1 0x0 PUSH1 0xA0 DUP3 ADD SWAP1 POP PUSH2 0x1F8F PUSH1 0x0 DUP4 ADD DUP9 PUSH2 0x12C8 JUMP JUMPDEST DUP2 DUP2 SUB PUSH1 0x20 DUP4 ADD MSTORE PUSH2 0x1FA1 DUP2 DUP8 PUSH2 0x11A1 JUMP JUMPDEST SWAP1 POP DUP2 DUP2 SUB PUSH1 0x40 DUP4 ADD MSTORE PUSH2 0x1FB5 DUP2 DUP7 PUSH2 0x11A1 JUMP JUMPDEST SWAP1 POP DUP2 DUP2 SUB PUSH1 0x60 DUP4 ADD MSTORE PUSH2 0x1FC9 DUP2 DUP6 PUSH2 0x11A1 JUMP JUMPDEST SWAP1 POP PUSH2 0x1FD8 PUSH1 0x80 DUP4 ADD DUP5 PUSH2 0x120C JUMP JUMPDEST SWAP7 SWAP6 POP POP POP POP POP POP JUMP INVALID LOG2 PUSH5 0x6970667358 0x22 SLT KECCAK256 NUMBER GAS 0xE1 0xC8 0xAC LOG0 0xFB 0xCD 0xB9 PUSH32 0xE4EBEBFEA4674E2DE5B3F5AB236E2E236751334329164736F6C634300081200 CALLER "},"methodIdentifiers":{"addInstrument(string,string,string,string,string)":"cc201213","getInstrumentById(uint256)":"e705c17b","getInstrumentsByOwner(address)":"c9fc0b13","instruments(uint256)":"22bbad0b","instrumentsCount()":"3ef439ff","markInstrumentAsStolen(uint256)":"bb1607be","updateInstrument(uint256,string,string)":"8e607ca3"}}}}}