{"contracts/musicID.sol":{"MusicID":{"abi":[{"anonymous":false,"inputs":[{"indexed":false,"internalType":"uint256","name":"id","type":"uint256"},{"indexed":false,"internalType":"string","name":"name","type":"string"},{"indexed":false,"internalType":"string","name":"model","type":"string"},{"indexed":false,"internalType":"string","name":"serialNumber","type":"string"},{"indexed":false,"internalType":"address","name":"owner","type":"address"}],"name":"InstrumentAdded","type":"event"},{"inputs":[{"internalType":"string","name":"_name","type":"string"},{"internalType":"string","name":"_model","type":"string"},{"internalType":"string","name":"_serialNumber","type":"string"},{"internalType":"string","name":"_maintenanceRecords","type":"string"},{"internalType":"string","name":"_image","type":"string"}],"name":"addInstrument","outputs":[],"stateMutability":"nonpayable","type":"function"},{"inputs":[{"internalType":"uint256","name":"","type":"uint256"}],"name":"instruments","outputs":[{"internalType":"string","name":"name","type":"string"},{"internalType":"string","name":"model","type":"string"},{"internalType":"string","name":"serialNumber","type":"string"},{"internalType":"address","name":"owner","type":"address"},{"internalType":"string","name":"maintenanceRecords","type":"string"},{"internalType":"string","name":"image","type":"string"}],"stateMutability":"view","type":"function"},{"inputs":[],"name":"instrumentsCount","outputs":[{"internalType":"uint256","name":"","type":"uint256"}],"stateMutability":"view","type":"function"}],"evm":{"bytecode":{"linkReferences":{},"object":"608060405234801561001057600080fd5b50610f63806100206000396000f3fe608060405234801561001057600080fd5b50600436106100415760003560e01c806322bbad0b146100465780633ef439ff1461007b578063cc20121314610099575b600080fd5b610060600480360381019061005b9190610644565b6100b5565b60405161007296959493929190610742565b60405180910390f35b6100836103b9565b60405161009091906107d5565b60405180910390f35b6100b360048036038101906100ae9190610925565b6103bf565b005b60006020528060005260406000206000915090508060000180546100d890610a5b565b80601f016020809104026020016040519081016040528092919081815260200182805461010490610a5b565b80156101515780601f1061012657610100808354040283529160200191610151565b820191906000526020600020905b81548152906001019060200180831161013457829003601f168201915b50505050509080600101805461016690610a5b565b80601f016020809104026020016040519081016040528092919081815260200182805461019290610a5b565b80156101df5780601f106101b4576101008083540402835291602001916101df565b820191906000526020600020905b8154815290600101906020018083116101c257829003601f168201915b5050505050908060020180546101f490610a5b565b80601f016020809104026020016040519081016040528092919081815260200182805461022090610a5b565b801561026d5780601f106102425761010080835404028352916020019161026d565b820191906000526020600020905b81548152906001019060200180831161025057829003601f168201915b5050505050908060030160009054906101000a900473ffffffffffffffffffffffffffffffffffffffff16908060040180546102a890610a5b565b80601f01602080910402602001604051908101604052809291908181526020018280546102d490610a5b565b80156103215780601f106102f657610100808354040283529160200191610321565b820191906000526020600020905b81548152906001019060200180831161030457829003601f168201915b50505050509080600501805461033690610a5b565b80601f016020809104026020016040519081016040528092919081815260200182805461036290610a5b565b80156103af5780601f10610384576101008083540402835291602001916103af565b820191906000526020600020905b81548152906001019060200180831161039257829003601f168201915b5050505050905086565b60015481565b6000855111610403576040517f08c379a00000000000000000000000000000000000000000000000000000000081526004016103fa90610ad8565b60405180910390fd5b6000845111610447576040517f08c379a000000000000000000000000000000000000000000000000000000000815260040161043e90610b44565b60405180910390fd5b600083511161048b576040517f08c379a000000000000000000000000000000000000000000000000000000000815260040161048290610bb0565b60405180910390fd5b6001600081548092919061049e90610bff565b91905055506040518060c001604052808681526020018581526020018481526020013373ffffffffffffffffffffffffffffffffffffffff168152602001838152602001828152506000806001548152602001908152602001600020600082015181600001908161050f9190610df3565b5060208201518160010190816105259190610df3565b50604082015181600201908161053b9190610df3565b5060608201518160030160006101000a81548173ffffffffffffffffffffffffffffffffffffffff021916908373ffffffffffffffffffffffffffffffffffffffff16021790555060808201518160040190816105989190610df3565b5060a08201518160050190816105ae9190610df3565b509050507f6c5814bfa67cbb27bfae5c6c9a59d6009633b65ffe8287b75a716b8ad365a70f600154868686336040516105eb959493929190610ec5565b60405180910390a15050505050565b6000604051905090565b600080fd5b600080fd5b6000819050919050565b6106218161060e565b811461062c57600080fd5b50565b60008135905061063e81610618565b92915050565b60006020828403121561065a57610659610604565b5b60006106688482850161062f565b91505092915050565b600081519050919050565b600082825260208201905092915050565b60005b838110156106ab578082015181840152602081019050610690565b60008484015250505050565b6000601f19601f8301169050919050565b60006106d382610671565b6106dd818561067c565b93506106ed81856020860161068d565b6106f6816106b7565b840191505092915050565b600073ffffffffffffffffffffffffffffffffffffffff82169050919050565b600061072c82610701565b9050919050565b61073c81610721565b82525050565b600060c082019050818103600083015261075c81896106c8565b9050818103602083015261077081886106c8565b9050818103604083015261078481876106c8565b90506107936060830186610733565b81810360808301526107a581856106c8565b905081810360a08301526107b981846106c8565b9050979650505050505050565b6107cf8161060e565b82525050565b60006020820190506107ea60008301846107c6565b92915050565b600080fd5b600080fd5b7f4e487b7100000000000000000000000000000000000000000000000000000000600052604160045260246000fd5b610832826106b7565b810181811067ffffffffffffffff82111715610851576108506107fa565b5b80604052505050565b60006108646105fa565b90506108708282610829565b919050565b600067ffffffffffffffff8211156108905761088f6107fa565b5b610899826106b7565b9050602081019050919050565b82818337600083830152505050565b60006108c86108c384610875565b61085a565b9050828152602081018484840111156108e4576108e36107f5565b5b6108ef8482856108a6565b509392505050565b600082601f83011261090c5761090b6107f0565b5b813561091c8482602086016108b5565b91505092915050565b600080600080600060a0868803121561094157610940610604565b5b600086013567ffffffffffffffff81111561095f5761095e610609565b5b61096b888289016108f7565b955050602086013567ffffffffffffffff81111561098c5761098b610609565b5b610998888289016108f7565b945050604086013567ffffffffffffffff8111156109b9576109b8610609565b5b6109c5888289016108f7565b935050606086013567ffffffffffffffff8111156109e6576109e5610609565b5b6109f2888289016108f7565b925050608086013567ffffffffffffffff811115610a1357610a12610609565b5b610a1f888289016108f7565b9150509295509295909350565b7f4e487b7100000000000000000000000000000000000000000000000000000000600052602260045260246000fd5b60006002820490506001821680610a7357607f821691505b602082108103610a8657610a85610a2c565b5b50919050565b7f4e616d652063616e6e6f7420626520656d707479000000000000000000000000600082015250565b6000610ac260148361067c565b9150610acd82610a8c565b602082019050919050565b60006020820190508181036000830152610af181610ab5565b9050919050565b7f4d6f64656c2063616e6e6f7420626520656d7074790000000000000000000000600082015250565b6000610b2e60158361067c565b9150610b3982610af8565b602082019050919050565b60006020820190508181036000830152610b5d81610b21565b9050919050565b7f53657269616c206e756d6265722063616e6e6f7420626520656d707479000000600082015250565b6000610b9a601d8361067c565b9150610ba582610b64565b602082019050919050565b60006020820190508181036000830152610bc981610b8d565b9050919050565b7f4e487b7100000000000000000000000000000000000000000000000000000000600052601160045260246000fd5b6000610c0a8261060e565b91507fffffffffffffffffffffffffffffffffffffffffffffffffffffffffffffffff8203610c3c57610c3b610bd0565b5b600182019050919050565b60008190508160005260206000209050919050565b60006020601f8301049050919050565b600082821b905092915050565b600060088302610ca97fffffffffffffffffffffffffffffffffffffffffffffffffffffffffffffffff82610c6c565b610cb38683610c6c565b95508019841693508086168417925050509392505050565b6000819050919050565b6000610cf0610ceb610ce68461060e565b610ccb565b61060e565b9050919050565b6000819050919050565b610d0a83610cd5565b610d1e610d1682610cf7565b848454610c79565b825550505050565b600090565b610d33610d26565b610d3e818484610d01565b505050565b5b81811015610d6257610d57600082610d2b565b600181019050610d44565b5050565b601f821115610da757610d7881610c47565b610d8184610c5c565b81016020851015610d90578190505b610da4610d9c85610c5c565b830182610d43565b50505b505050565b600082821c905092915050565b6000610dca60001984600802610dac565b1980831691505092915050565b6000610de38383610db9565b9150826002028217905092915050565b610dfc82610671565b67ffffffffffffffff811115610e1557610e146107fa565b5b610e1f8254610a5b565b610e2a828285610d66565b600060209050601f831160018114610e5d5760008415610e4b578287015190505b610e558582610dd7565b865550610ebd565b601f198416610e6b86610c47565b60005b82811015610e9357848901518255600182019150602085019450602081019050610e6e565b86831015610eb05784890151610eac601f891682610db9565b8355505b6001600288020188555050505b505050505050565b600060a082019050610eda60008301886107c6565b8181036020830152610eec81876106c8565b90508181036040830152610f0081866106c8565b90508181036060830152610f1481856106c8565b9050610f236080830184610733565b969550505050505056fea26469706673582212207865ec09ba96c75b27442f9f69552a52a2716050caa79495c125dae2faa766fe64736f6c63430008180033","opcodes":"PUSH1 0x80 PUSH1 0x40 MSTORE CALLVALUE DUP1 ISZERO PUSH2 0x10 JUMPI PUSH1 0x0 DUP1 REVERT JUMPDEST POP PUSH2 0xF63 DUP1 PUSH2 0x20 PUSH1 0x0 CODECOPY PUSH1 0x0 RETURN INVALID PUSH1 0x80 PUSH1 0x40 MSTORE CALLVALUE DUP1 ISZERO PUSH2 0x10 JUMPI PUSH1 0x0 DUP1 REVERT JUMPDEST POP PUSH1 0x4 CALLDATASIZE LT PUSH2 0x41 JUMPI PUSH1 0x0 CALLDATALOAD PUSH1 0xE0 SHR DUP1 PUSH4 0x22BBAD0B EQ PUSH2 0x46 JUMPI DUP1 PUSH4 0x3EF439FF EQ PUSH2 0x7B JUMPI DUP1 PUSH4 0xCC201213 EQ PUSH2 0x99 JUMPI JUMPDEST PUSH1 0x0 DUP1 REVERT JUMPDEST PUSH2 0x60 PUSH1 0x4 DUP1 CALLDATASIZE SUB DUP2 ADD SWAP1 PUSH2 0x5B SWAP2 SWAP1 PUSH2 0x644 JUMP JUMPDEST PUSH2 0xB5 JUMP JUMPDEST PUSH1 0x40 MLOAD PUSH2 0x72 SWAP7 SWAP6 SWAP5 SWAP4 SWAP3 SWAP2 SWAP1 PUSH2 0x742 JUMP JUMPDEST PUSH1 0x40 MLOAD DUP1 SWAP2 SUB SWAP1 RETURN JUMPDEST PUSH2 0x83 PUSH2 0x3B9 JUMP JUMPDEST PUSH1 0x40 MLOAD PUSH2 0x90 SWAP2 SWAP1 PUSH2 0x7D5 JUMP JUMPDEST PUSH1 0x40 MLOAD DUP1 SWAP2 SUB SWAP1 RETURN JUMPDEST PUSH2 0xB3 PUSH1 0x4 DUP1 CALLDATASIZE SUB DUP2 ADD SWAP1 PUSH2 0xAE SWAP2 SWAP1 PUSH2 0x925 JUMP JUMPDEST PUSH2 0x3BF JUMP JUMPDEST STOP JUMPDEST PUSH1 0x0 PUSH1 0x20 MSTORE DUP1 PUSH1 0x0 MSTORE PUSH1 0x40 PUSH1 0x0 KECCAK256 PUSH1 0x0 SWAP2 POP SWAP1 POP DUP1 PUSH1 0x0 ADD DUP1 SLOAD PUSH2 0xD8 SWAP1 PUSH2 0xA5B JUMP JUMPDEST DUP1 PUSH1 0x1F ADD PUSH1 0x20 DUP1 SWAP2 DIV MUL PUSH1 0x20 ADD PUSH1 0x40 MLOAD SWAP1 DUP2 ADD PUSH1 0x40 MSTORE DUP1 SWAP3 SWAP2 SWAP1 DUP2 DUP2 MSTORE PUSH1 0x20 ADD DUP3 DUP1 SLOAD PUSH2 0x104 SWAP1 PUSH2 0xA5B JUMP JUMPDEST DUP1 ISZERO PUSH2 0x151 JUMPI DUP1 PUSH1 0x1F LT PUSH2 0x126 JUMPI PUSH2 0x100 DUP1 DUP4 SLOAD DIV MUL DUP4 MSTORE SWAP2 PUSH1 0x20 ADD SWAP2 PUSH2 0x151 JUMP JUMPDEST DUP3 ADD SWAP2 SWAP1 PUSH1 0x0 MSTORE PUSH1 0x20 PUSH1 0x0 KECCAK256 SWAP1 JUMPDEST DUP2 SLOAD DUP2 MSTORE SWAP1 PUSH1 0x1 ADD SWAP1 PUSH1 0x20 ADD DUP1 DUP4 GT PUSH2 0x134 JUMPI DUP3 SWAP1 SUB PUSH1 0x1F AND DUP3 ADD SWAP2 JUMPDEST POP POP POP POP POP SWAP1 DUP1 PUSH1 0x1 ADD DUP1 SLOAD PUSH2 0x166 SWAP1 PUSH2 0xA5B JUMP JUMPDEST DUP1 PUSH1 0x1F ADD PUSH1 0x20 DUP1 SWAP2 DIV MUL PUSH1 0x20 ADD PUSH1 0x40 MLOAD SWAP1 DUP2 ADD PUSH1 0x40 MSTORE DUP1 SWAP3 SWAP2 SWAP1 DUP2 DUP2 MSTORE PUSH1 0x20 ADD DUP3 DUP1 SLOAD PUSH2 0x192 SWAP1 PUSH2 0xA5B JUMP JUMPDEST DUP1 ISZERO PUSH2 0x1DF JUMPI DUP1 PUSH1 0x1F LT PUSH2 0x1B4 JUMPI PUSH2 0x100 DUP1 DUP4 SLOAD DIV MUL DUP4 MSTORE SWAP2 PUSH1 0x20 ADD SWAP2 PUSH2 0x1DF JUMP JUMPDEST DUP3 ADD SWAP2 SWAP1 PUSH1 0x0 MSTORE PUSH1 0x20 PUSH1 0x0 KECCAK256 SWAP1 JUMPDEST DUP2 SLOAD DUP2 MSTORE SWAP1 PUSH1 0x1 ADD SWAP1 PUSH1 0x20 ADD DUP1 DUP4 GT PUSH2 0x1C2 JUMPI DUP3 SWAP1 SUB PUSH1 0x1F AND DUP3 ADD SWAP2 JUMPDEST POP POP POP POP POP SWAP1 DUP1 PUSH1 0x2 ADD DUP1 SLOAD PUSH2 0x1F4 SWAP1 PUSH2 0xA5B JUMP JUMPDEST DUP1 PUSH1 0x1F ADD PUSH1 0x20 DUP1 SWAP2 DIV MUL PUSH1 0x20 ADD PUSH1 0x40 MLOAD SWAP1 DUP2 ADD PUSH1 0x40 MSTORE DUP1 SWAP3 SWAP2 SWAP1 DUP2 DUP2 MSTORE PUSH1 0x20 ADD DUP3 DUP1 SLOAD PUSH2 0x220 SWAP1 PUSH2 0xA5B JUMP JUMPDEST DUP1 ISZERO PUSH2 0x26D JUMPI DUP1 PUSH1 0x1F LT PUSH2 0x242 JUMPI PUSH2 0x100 DUP1 DUP4 SLOAD DIV MUL DUP4 MSTORE SWAP2 PUSH1 0x20 ADD SWAP2 PUSH2 0x26D JUMP JUMPDEST DUP3 ADD SWAP2 SWAP1 PUSH1 0x0 MSTORE PUSH1 0x20 PUSH1 0x0 KECCAK256 SWAP1 JUMPDEST DUP2 SLOAD DUP2 MSTORE SWAP1 PUSH1 0x1 ADD SWAP1 PUSH1 0x20 ADD DUP1 DUP4 GT PUSH2 0x250 JUMPI DUP3 SWAP1 SUB PUSH1 0x1F AND DUP3 ADD SWAP2 JUMPDEST POP POP POP POP POP SWAP1 DUP1 PUSH1 0x3 ADD PUSH1 0x0 SWAP1 SLOAD SWAP1 PUSH2 0x100 EXP SWAP1 DIV PUSH20 0xFFFFFFFFFFFFFFFFFFFFFFFFFFFFFFFFFFFFFFFF AND SWAP1 DUP1 PUSH1 0x4 ADD DUP1 SLOAD PUSH2 0x2A8 SWAP1 PUSH2 0xA5B JUMP JUMPDEST DUP1 PUSH1 0x1F ADD PUSH1 0x20 DUP1 SWAP2 DIV MUL PUSH1 0x20 ADD PUSH1 0x40 MLOAD SWAP1 DUP2 ADD PUSH1 0x40 MSTORE DUP1 SWAP3 SWAP2 SWAP1 DUP2 DUP2 MSTORE PUSH1 0x20 ADD DUP3 DUP1 SLOAD PUSH2 0x2D4 SWAP1 PUSH2 0xA5B JUMP JUMPDEST DUP1 ISZERO PUSH2 0x321 JUMPI DUP1 PUSH1 0x1F LT PUSH2 0x2F6 JUMPI PUSH2 0x100 DUP1 DUP4 SLOAD DIV MUL DUP4 MSTORE SWAP2 PUSH1 0x20 ADD SWAP2 PUSH2 0x321 JUMP JUMPDEST DUP3 ADD SWAP2 SWAP1 PUSH1 0x0 MSTORE PUSH1 0x20 PUSH1 0x0 KECCAK256 SWAP1 JUMPDEST DUP2 SLOAD DUP2 MSTORE SWAP1 PUSH1 0x1 ADD SWAP1 PUSH1 0x20 ADD DUP1 DUP4 GT PUSH2 0x304 JUMPI DUP3 SWAP1 SUB PUSH1 0x1F AND DUP3 ADD SWAP2 JUMPDEST POP POP POP POP POP SWAP1 DUP1 PUSH1 0x5 ADD DUP1 SLOAD PUSH2 0x336 SWAP1 PUSH2 0xA5B JUMP JUMPDEST DUP1 PUSH1 0x1F ADD PUSH1 0x20 DUP1 SWAP2 DIV MUL PUSH1 0x20 ADD PUSH1 0x40 MLOAD SWAP1 DUP2 ADD PUSH1 0x40 MSTORE DUP1 SWAP3 SWAP2 SWAP1 DUP2 DUP2 MSTORE PUSH1 0x20 ADD DUP3 DUP1 SLOAD PUSH2 0x362 SWAP1 PUSH2 0xA5B JUMP JUMPDEST DUP1 ISZERO PUSH2 0x3AF JUMPI DUP1 PUSH1 0x1F LT PUSH2 0x384 JUMPI PUSH2 0x100 DUP1 DUP4 SLOAD DIV MUL DUP4 MSTORE SWAP2 PUSH1 0x20 ADD SWAP2 PUSH2 0x3AF JUMP JUMPDEST DUP3 ADD SWAP2 SWAP1 PUSH1 0x0 MSTORE PUSH1 0x20 PUSH1 0x0 KECCAK256 SWAP1 JUMPDEST DUP2 SLOAD DUP2 MSTORE SWAP1 PUSH1 0x1 ADD SWAP1 PUSH1 0x20 ADD DUP1 DUP4 GT PUSH2 0x392 JUMPI DUP3 SWAP1 SUB PUSH1 0x1F AND DUP3 ADD SWAP2 JUMPDEST POP POP POP POP POP SWAP1 POP DUP7 JUMP JUMPDEST PUSH1 0x1 SLOAD DUP2 JUMP JUMPDEST PUSH1 0x0 DUP6 MLOAD GT PUSH2 0x403 JUMPI PUSH1 0x40 MLOAD PUSH32 0x8C379A000000000000000000000000000000000000000000000000000000000 DUP2 MSTORE PUSH1 0x4 ADD PUSH2 0x3FA SWAP1 PUSH2 0xAD8 JUMP JUMPDEST PUSH1 0x40 MLOAD DUP1 SWAP2 SUB SWAP1 REVERT JUMPDEST PUSH1 0x0 DUP5 MLOAD GT PUSH2 0x447 JUMPI PUSH1 0x40 MLOAD PUSH32 0x8C379A000000000000000000000000000000000000000000000000000000000 DUP2 MSTORE PUSH1 0x4 ADD PUSH2 0x43E SWAP1 PUSH2 0xB44 JUMP JUMPDEST PUSH1 0x40 MLOAD DUP1 SWAP2 SUB SWAP1 REVERT JUMPDEST PUSH1 0x0 DUP4 MLOAD GT PUSH2 0x48B JUMPI PUSH1 0x40 MLOAD PUSH32 0x8C379A000000000000000000000000000000000000000000000000000000000 DUP2 MSTORE PUSH1 0x4 ADD PUSH2 0x482 SWAP1 PUSH2 0xBB0 JUMP JUMPDEST PUSH1 0x40 MLOAD DUP1 SWAP2 SUB SWAP1 REVERT JUMPDEST PUSH1 0x1 PUSH1 0x0 DUP2 SLOAD DUP1 SWAP3 SWAP2 SWAP1 PUSH2 0x49E SWAP1 PUSH2 0xBFF JUMP JUMPDEST SWAP2 SWAP1 POP SSTORE POP PUSH1 0x40 MLOAD DUP1 PUSH1 0xC0 ADD PUSH1 0x40 MSTORE DUP1 DUP7 DUP2 MSTORE PUSH1 0x20 ADD DUP6 DUP2 MSTORE PUSH1 0x20 ADD DUP5 DUP2 MSTORE PUSH1 0x20 ADD CALLER PUSH20 0xFFFFFFFFFFFFFFFFFFFFFFFFFFFFFFFFFFFFFFFF AND DUP2 MSTORE PUSH1 0x20 ADD DUP4 DUP2 MSTORE PUSH1 0x20 ADD DUP3 DUP2 MSTORE POP PUSH1 0x0 DUP1 PUSH1 0x1 SLOAD DUP2 MSTORE PUSH1 0x20 ADD SWAP1 DUP2 MSTORE PUSH1 0x20 ADD PUSH1 0x0 KECCAK256 PUSH1 0x0 DUP3 ADD MLOAD DUP2 PUSH1 0x0 ADD SWAP1 DUP2 PUSH2 0x50F SWAP2 SWAP1 PUSH2 0xDF3 JUMP JUMPDEST POP PUSH1 0x20 DUP3 ADD MLOAD DUP2 PUSH1 0x1 ADD SWAP1 DUP2 PUSH2 0x525 SWAP2 SWAP1 PUSH2 0xDF3 JUMP JUMPDEST POP PUSH1 0x40 DUP3 ADD MLOAD DUP2 PUSH1 0x2 ADD SWAP1 DUP2 PUSH2 0x53B SWAP2 SWAP1 PUSH2 0xDF3 JUMP JUMPDEST POP PUSH1 0x60 DUP3 ADD MLOAD DUP2 PUSH1 0x3 ADD PUSH1 0x0 PUSH2 0x100 EXP DUP2 SLOAD DUP2 PUSH20 0xFFFFFFFFFFFFFFFFFFFFFFFFFFFFFFFFFFFFFFFF MUL NOT AND SWAP1 DUP4 PUSH20 0xFFFFFFFFFFFFFFFFFFFFFFFFFFFFFFFFFFFFFFFF AND MUL OR SWAP1 SSTORE POP PUSH1 0x80 DUP3 ADD MLOAD DUP2 PUSH1 0x4 ADD SWAP1 DUP2 PUSH2 0x598 SWAP2 SWAP1 PUSH2 0xDF3 JUMP JUMPDEST POP PUSH1 0xA0 DUP3 ADD MLOAD DUP2 PUSH1 0x5 ADD SWAP1 DUP2 PUSH2 0x5AE SWAP2 SWAP1 PUSH2 0xDF3 JUMP JUMPDEST POP SWAP1 POP POP PUSH32 0x6C5814BFA67CBB27BFAE5C6C9A59D6009633B65FFE8287B75A716B8AD365A70F PUSH1 0x1 SLOAD DUP7 DUP7 DUP7 CALLER PUSH1 0x40 MLOAD PUSH2 0x5EB SWAP6 SWAP5 SWAP4 SWAP3 SWAP2 SWAP1 PUSH2 0xEC5 JUMP JUMPDEST PUSH1 0x40 MLOAD DUP1 SWAP2 SUB SWAP1 LOG1 POP POP POP POP POP JUMP JUMPDEST PUSH1 0x0 PUSH1 0x40 MLOAD SWAP1 POP SWAP1 JUMP JUMPDEST PUSH1 0x0 DUP1 REVERT JUMPDEST PUSH1 0x0 DUP1 REVERT JUMPDEST PUSH1 0x0 DUP2 SWAP1 POP SWAP2 SWAP1 POP JUMP JUMPDEST PUSH2 0x621 DUP2 PUSH2 0x60E JUMP JUMPDEST DUP2 EQ PUSH2 0x62C JUMPI PUSH1 0x0 DUP1 REVERT JUMPDEST POP JUMP JUMPDEST PUSH1 0x0 DUP2 CALLDATALOAD SWAP1 POP PUSH2 0x63E DUP2 PUSH2 0x618 JUMP JUMPDEST SWAP3 SWAP2 POP POP JUMP JUMPDEST PUSH1 0x0 PUSH1 0x20 DUP3 DUP5 SUB SLT ISZERO PUSH2 0x65A JUMPI PUSH2 0x659 PUSH2 0x604 JUMP JUMPDEST JUMPDEST PUSH1 0x0 PUSH2 0x668 DUP5 DUP3 DUP6 ADD PUSH2 0x62F JUMP JUMPDEST SWAP2 POP POP SWAP3 SWAP2 POP POP JUMP JUMPDEST PUSH1 0x0 DUP2 MLOAD SWAP1 POP SWAP2 SWAP1 POP JUMP JUMPDEST PUSH1 0x0 DUP3 DUP3 MSTORE PUSH1 0x20 DUP3 ADD SWAP1 POP SWAP3 SWAP2 POP POP JUMP JUMPDEST PUSH1 0x0 JUMPDEST DUP4 DUP2 LT ISZERO PUSH2 0x6AB JUMPI DUP1 DUP3 ADD MLOAD DUP2 DUP5 ADD MSTORE PUSH1 0x20 DUP2 ADD SWAP1 POP PUSH2 0x690 JUMP JUMPDEST PUSH1 0x0 DUP5 DUP5 ADD MSTORE POP POP POP POP JUMP JUMPDEST PUSH1 0x0 PUSH1 0x1F NOT PUSH1 0x1F DUP4 ADD AND SWAP1 POP SWAP2 SWAP1 POP JUMP JUMPDEST PUSH1 0x0 PUSH2 0x6D3 DUP3 PUSH2 0x671 JUMP JUMPDEST PUSH2 0x6DD DUP2 DUP6 PUSH2 0x67C JUMP JUMPDEST SWAP4 POP PUSH2 0x6ED DUP2 DUP6 PUSH1 0x20 DUP7 ADD PUSH2 0x68D JUMP JUMPDEST PUSH2 0x6F6 DUP2 PUSH2 0x6B7 JUMP JUMPDEST DUP5 ADD SWAP2 POP POP SWAP3 SWAP2 POP POP JUMP JUMPDEST PUSH1 0x0 PUSH20 0xFFFFFFFFFFFFFFFFFFFFFFFFFFFFFFFFFFFFFFFF DUP3 AND SWAP1 POP SWAP2 SWAP1 POP JUMP JUMPDEST PUSH1 0x0 PUSH2 0x72C DUP3 PUSH2 0x701 JUMP JUMPDEST SWAP1 POP SWAP2 SWAP1 POP JUMP JUMPDEST PUSH2 0x73C DUP2 PUSH2 0x721 JUMP JUMPDEST DUP3 MSTORE POP POP JUMP JUMPDEST PUSH1 0x0 PUSH1 0xC0 DUP3 ADD SWAP1 POP DUP2 DUP2 SUB PUSH1 0x0 DUP4 ADD MSTORE PUSH2 0x75C DUP2 DUP10 PUSH2 0x6C8 JUMP JUMPDEST SWAP1 POP DUP2 DUP2 SUB PUSH1 0x20 DUP4 ADD MSTORE PUSH2 0x770 DUP2 DUP9 PUSH2 0x6C8 JUMP JUMPDEST SWAP1 POP DUP2 DUP2 SUB PUSH1 0x40 DUP4 ADD MSTORE PUSH2 0x784 DUP2 DUP8 PUSH2 0x6C8 JUMP JUMPDEST SWAP1 POP PUSH2 0x793 PUSH1 0x60 DUP4 ADD DUP7 PUSH2 0x733 JUMP JUMPDEST DUP2 DUP2 SUB PUSH1 0x80 DUP4 ADD MSTORE PUSH2 0x7A5 DUP2 DUP6 PUSH2 0x6C8 JUMP JUMPDEST SWAP1 POP DUP2 DUP2 SUB PUSH1 0xA0 DUP4 ADD MSTORE PUSH2 0x7B9 DUP2 DUP5 PUSH2 0x6C8 JUMP JUMPDEST SWAP1 POP SWAP8 SWAP7 POP POP POP POP POP POP POP JUMP JUMPDEST PUSH2 0x7CF DUP2 PUSH2 0x60E JUMP JUMPDEST DUP3 MSTORE POP POP JUMP JUMPDEST PUSH1 0x0 PUSH1 0x20 DUP3 ADD SWAP1 POP PUSH2 0x7EA PUSH1 0x0 DUP4 ADD DUP5 PUSH2 0x7C6 JUMP JUMPDEST SWAP3 SWAP2 POP POP JUMP JUMPDEST PUSH1 0x0 DUP1 REVERT JUMPDEST PUSH1 0x0 DUP1 REVERT JUMPDEST PUSH32 0x4E487B7100000000000000000000000000000000000000000000000000000000 PUSH1 0x0 MSTORE PUSH1 0x41 PUSH1 0x4 MSTORE PUSH1 0x24 PUSH1 0x0 REVERT JUMPDEST PUSH2 0x832 DUP3 PUSH2 0x6B7 JUMP JUMPDEST DUP2 ADD DUP2 DUP2 LT PUSH8 0xFFFFFFFFFFFFFFFF DUP3 GT OR ISZERO PUSH2 0x851 JUMPI PUSH2 0x850 PUSH2 0x7FA JUMP JUMPDEST JUMPDEST DUP1 PUSH1 0x40 MSTORE POP POP POP JUMP JUMPDEST PUSH1 0x0 PUSH2 0x864 PUSH2 0x5FA JUMP JUMPDEST SWAP1 POP PUSH2 0x870 DUP3 DUP3 PUSH2 0x829 JUMP JUMPDEST SWAP2 SWAP1 POP JUMP JUMPDEST PUSH1 0x0 PUSH8 0xFFFFFFFFFFFFFFFF DUP3 GT ISZERO PUSH2 0x890 JUMPI PUSH2 0x88F PUSH2 0x7FA JUMP JUMPDEST JUMPDEST PUSH2 0x899 DUP3 PUSH2 0x6B7 JUMP JUMPDEST SWAP1 POP PUSH1 0x20 DUP2 ADD SWAP1 POP SWAP2 SWAP1 POP JUMP JUMPDEST DUP3 DUP2 DUP4 CALLDATACOPY PUSH1 0x0 DUP4 DUP4 ADD MSTORE POP POP POP JUMP JUMPDEST PUSH1 0x0 PUSH2 0x8C8 PUSH2 0x8C3 DUP5 PUSH2 0x875 JUMP JUMPDEST PUSH2 0x85A JUMP JUMPDEST SWAP1 POP DUP3 DUP2 MSTORE PUSH1 0x20 DUP2 ADD DUP5 DUP5 DUP5 ADD GT ISZERO PUSH2 0x8E4 JUMPI PUSH2 0x8E3 PUSH2 0x7F5 JUMP JUMPDEST JUMPDEST PUSH2 0x8EF DUP5 DUP3 DUP6 PUSH2 0x8A6 JUMP JUMPDEST POP SWAP4 SWAP3 POP POP POP JUMP JUMPDEST PUSH1 0x0 DUP3 PUSH1 0x1F DUP4 ADD SLT PUSH2 0x90C JUMPI PUSH2 0x90B PUSH2 0x7F0 JUMP JUMPDEST JUMPDEST DUP2 CALLDATALOAD PUSH2 0x91C DUP5 DUP3 PUSH1 0x20 DUP7 ADD PUSH2 0x8B5 JUMP JUMPDEST SWAP2 POP POP SWAP3 SWAP2 POP POP JUMP JUMPDEST PUSH1 0x0 DUP1 PUSH1 0x0 DUP1 PUSH1 0x0 PUSH1 0xA0 DUP7 DUP9 SUB SLT ISZERO PUSH2 0x941 JUMPI PUSH2 0x940 PUSH2 0x604 JUMP JUMPDEST JUMPDEST PUSH1 0x0 DUP7 ADD CALLDATALOAD PUSH8 0xFFFFFFFFFFFFFFFF DUP2 GT ISZERO PUSH2 0x95F JUMPI PUSH2 0x95E PUSH2 0x609 JUMP JUMPDEST JUMPDEST PUSH2 0x96B DUP9 DUP3 DUP10 ADD PUSH2 0x8F7 JUMP JUMPDEST SWAP6 POP POP PUSH1 0x20 DUP7 ADD CALLDATALOAD PUSH8 0xFFFFFFFFFFFFFFFF DUP2 GT ISZERO PUSH2 0x98C JUMPI PUSH2 0x98B PUSH2 0x609 JUMP JUMPDEST JUMPDEST PUSH2 0x998 DUP9 DUP3 DUP10 ADD PUSH2 0x8F7 JUMP JUMPDEST SWAP5 POP POP PUSH1 0x40 DUP7 ADD CALLDATALOAD PUSH8 0xFFFFFFFFFFFFFFFF DUP2 GT ISZERO PUSH2 0x9B9 JUMPI PUSH2 0x9B8 PUSH2 0x609 JUMP JUMPDEST JUMPDEST PUSH2 0x9C5 DUP9 DUP3 DUP10 ADD PUSH2 0x8F7 JUMP JUMPDEST SWAP4 POP POP PUSH1 0x60 DUP7 ADD CALLDATALOAD PUSH8 0xFFFFFFFFFFFFFFFF DUP2 GT ISZERO PUSH2 0x9E6 JUMPI PUSH2 0x9E5 PUSH2 0x609 JUMP JUMPDEST JUMPDEST PUSH2 0x9F2 DUP9 DUP3 DUP10 ADD PUSH2 0x8F7 JUMP JUMPDEST SWAP3 POP POP PUSH1 0x80 DUP7 ADD CALLDATALOAD PUSH8 0xFFFFFFFFFFFFFFFF DUP2 GT ISZERO PUSH2 0xA13 JUMPI PUSH2 0xA12 PUSH2 0x609 JUMP JUMPDEST JUMPDEST PUSH2 0xA1F DUP9 DUP3 DUP10 ADD PUSH2 0x8F7 JUMP JUMPDEST SWAP2 POP POP SWAP3 SWAP6 POP SWAP3 SWAP6 SWAP1 SWAP4 POP JUMP JUMPDEST PUSH32 0x4E487B7100000000000000000000000000000000000000000000000000000000 PUSH1 0x0 MSTORE PUSH1 0x22 PUSH1 0x4 MSTORE PUSH1 0x24 PUSH1 0x0 REVERT JUMPDEST PUSH1 0x0 PUSH1 0x2 DUP3 DIV SWAP1 POP PUSH1 0x1 DUP3 AND DUP1 PUSH2 0xA73 JUMPI PUSH1 0x7F DUP3 AND SWAP2 POP JUMPDEST PUSH1 0x20 DUP3 LT DUP2 SUB PUSH2 0xA86 JUMPI PUSH2 0xA85 PUSH2 0xA2C JUMP JUMPDEST JUMPDEST POP SWAP2 SWAP1 POP JUMP JUMPDEST PUSH32 0x4E616D652063616E6E6F7420626520656D707479000000000000000000000000 PUSH1 0x0 DUP3 ADD MSTORE POP JUMP JUMPDEST PUSH1 0x0 PUSH2 0xAC2 PUSH1 0x14 DUP4 PUSH2 0x67C JUMP JUMPDEST SWAP2 POP PUSH2 0xACD DUP3 PUSH2 0xA8C JUMP JUMPDEST PUSH1 0x20 DUP3 ADD SWAP1 POP SWAP2 SWAP1 POP JUMP JUMPDEST PUSH1 0x0 PUSH1 0x20 DUP3 ADD SWAP1 POP DUP2 DUP2 SUB PUSH1 0x0 DUP4 ADD MSTORE PUSH2 0xAF1 DUP2 PUSH2 0xAB5 JUMP JUMPDEST SWAP1 POP SWAP2 SWAP1 POP JUMP JUMPDEST PUSH32 0x4D6F64656C2063616E6E6F7420626520656D7074790000000000000000000000 PUSH1 0x0 DUP3 ADD MSTORE POP JUMP JUMPDEST PUSH1 0x0 PUSH2 0xB2E PUSH1 0x15 DUP4 PUSH2 0x67C JUMP JUMPDEST SWAP2 POP PUSH2 0xB39 DUP3 PUSH2 0xAF8 JUMP JUMPDEST PUSH1 0x20 DUP3 ADD SWAP1 POP SWAP2 SWAP1 POP JUMP JUMPDEST PUSH1 0x0 PUSH1 0x20 DUP3 ADD SWAP1 POP DUP2 DUP2 SUB PUSH1 0x0 DUP4 ADD MSTORE PUSH2 0xB5D DUP2 PUSH2 0xB21 JUMP JUMPDEST SWAP1 POP SWAP2 SWAP1 POP JUMP JUMPDEST PUSH32 0x53657269616C206E756D6265722063616E6E6F7420626520656D707479000000 PUSH1 0x0 DUP3 ADD MSTORE POP JUMP JUMPDEST PUSH1 0x0 PUSH2 0xB9A PUSH1 0x1D DUP4 PUSH2 0x67C JUMP JUMPDEST SWAP2 POP PUSH2 0xBA5 DUP3 PUSH2 0xB64 JUMP JUMPDEST PUSH1 0x20 DUP3 ADD SWAP1 POP SWAP2 SWAP1 POP JUMP JUMPDEST PUSH1 0x0 PUSH1 0x20 DUP3 ADD SWAP1 POP DUP2 DUP2 SUB PUSH1 0x0 DUP4 ADD MSTORE PUSH2 0xBC9 DUP2 PUSH2 0xB8D JUMP JUMPDEST SWAP1 POP SWAP2 SWAP1 POP JUMP JUMPDEST PUSH32 0x4E487B7100000000000000000000000000000000000000000000000000000000 PUSH1 0x0 MSTORE PUSH1 0x11 PUSH1 0x4 MSTORE PUSH1 0x24 PUSH1 0x0 REVERT JUMPDEST PUSH1 0x0 PUSH2 0xC0A DUP3 PUSH2 0x60E JUMP JUMPDEST SWAP2 POP PUSH32 0xFFFFFFFFFFFFFFFFFFFFFFFFFFFFFFFFFFFFFFFFFFFFFFFFFFFFFFFFFFFFFFFF DUP3 SUB PUSH2 0xC3C JUMPI PUSH2 0xC3B PUSH2 0xBD0 JUMP JUMPDEST JUMPDEST PUSH1 0x1 DUP3 ADD SWAP1 POP SWAP2 SWAP1 POP JUMP JUMPDEST PUSH1 0x0 DUP2 SWAP1 POP DUP2 PUSH1 0x0 MSTORE PUSH1 0x20 PUSH1 0x0 KECCAK256 SWAP1 POP SWAP2 SWAP1 POP JUMP JUMPDEST PUSH1 0x0 PUSH1 0x20 PUSH1 0x1F DUP4 ADD DIV SWAP1 POP SWAP2 SWAP1 POP JUMP JUMPDEST PUSH1 0x0 DUP3 DUP3 SHL SWAP1 POP SWAP3 SWAP2 POP POP JUMP JUMPDEST PUSH1 0x0 PUSH1 0x8 DUP4 MUL PUSH2 0xCA9 PUSH32 0xFFFFFFFFFFFFFFFFFFFFFFFFFFFFFFFFFFFFFFFFFFFFFFFFFFFFFFFFFFFFFFFF DUP3 PUSH2 0xC6C JUMP JUMPDEST PUSH2 0xCB3 DUP7 DUP4 PUSH2 0xC6C JUMP JUMPDEST SWAP6 POP DUP1 NOT DUP5 AND SWAP4 POP DUP1 DUP7 AND DUP5 OR SWAP3 POP POP POP SWAP4 SWAP3 POP POP POP JUMP JUMPDEST PUSH1 0x0 DUP2 SWAP1 POP SWAP2 SWAP1 POP JUMP JUMPDEST PUSH1 0x0 PUSH2 0xCF0 PUSH2 0xCEB PUSH2 0xCE6 DUP5 PUSH2 0x60E JUMP JUMPDEST PUSH2 0xCCB JUMP JUMPDEST PUSH2 0x60E JUMP JUMPDEST SWAP1 POP SWAP2 SWAP1 POP JUMP JUMPDEST PUSH1 0x0 DUP2 SWAP1 POP SWAP2 SWAP1 POP JUMP JUMPDEST PUSH2 0xD0A DUP4 PUSH2 0xCD5 JUMP JUMPDEST PUSH2 0xD1E PUSH2 0xD16 DUP3 PUSH2 0xCF7 JUMP JUMPDEST DUP5 DUP5 SLOAD PUSH2 0xC79 JUMP JUMPDEST DUP3 SSTORE POP POP POP POP JUMP JUMPDEST PUSH1 0x0 SWAP1 JUMP JUMPDEST PUSH2 0xD33 PUSH2 0xD26 JUMP JUMPDEST PUSH2 0xD3E DUP2 DUP5 DUP5 PUSH2 0xD01 JUMP JUMPDEST POP POP POP JUMP JUMPDEST JUMPDEST DUP2 DUP2 LT ISZERO PUSH2 0xD62 JUMPI PUSH2 0xD57 PUSH1 0x0 DUP3 PUSH2 0xD2B JUMP JUMPDEST PUSH1 0x1 DUP2 ADD SWAP1 POP PUSH2 0xD44 JUMP JUMPDEST POP POP JUMP JUMPDEST PUSH1 0x1F DUP3 GT ISZERO PUSH2 0xDA7 JUMPI PUSH2 0xD78 DUP2 PUSH2 0xC47 JUMP JUMPDEST PUSH2 0xD81 DUP5 PUSH2 0xC5C JUMP JUMPDEST DUP2 ADD PUSH1 0x20 DUP6 LT ISZERO PUSH2 0xD90 JUMPI DUP2 SWAP1 POP JUMPDEST PUSH2 0xDA4 PUSH2 0xD9C DUP6 PUSH2 0xC5C JUMP JUMPDEST DUP4 ADD DUP3 PUSH2 0xD43 JUMP JUMPDEST POP POP JUMPDEST POP POP POP JUMP JUMPDEST PUSH1 0x0 DUP3 DUP3 SHR SWAP1 POP SWAP3 SWAP2 POP POP JUMP JUMPDEST PUSH1 0x0 PUSH2 0xDCA PUSH1 0x0 NOT DUP5 PUSH1 0x8 MUL PUSH2 0xDAC JUMP JUMPDEST NOT DUP1 DUP4 AND SWAP2 POP POP SWAP3 SWAP2 POP POP JUMP JUMPDEST PUSH1 0x0 PUSH2 0xDE3 DUP4 DUP4 PUSH2 0xDB9 JUMP JUMPDEST SWAP2 POP DUP3 PUSH1 0x2 MUL DUP3 OR SWAP1 POP SWAP3 SWAP2 POP POP JUMP JUMPDEST PUSH2 0xDFC DUP3 PUSH2 0x671 JUMP JUMPDEST PUSH8 0xFFFFFFFFFFFFFFFF DUP2 GT ISZERO PUSH2 0xE15 JUMPI PUSH2 0xE14 PUSH2 0x7FA JUMP JUMPDEST JUMPDEST PUSH2 0xE1F DUP3 SLOAD PUSH2 0xA5B JUMP JUMPDEST PUSH2 0xE2A DUP3 DUP3 DUP6 PUSH2 0xD66 JUMP JUMPDEST PUSH1 0x0 PUSH1 0x20 SWAP1 POP PUSH1 0x1F DUP4 GT PUSH1 0x1 DUP2 EQ PUSH2 0xE5D JUMPI PUSH1 0x0 DUP5 ISZERO PUSH2 0xE4B JUMPI DUP3 DUP8 ADD MLOAD SWAP1 POP JUMPDEST PUSH2 0xE55 DUP6 DUP3 PUSH2 0xDD7 JUMP JUMPDEST DUP7 SSTORE POP PUSH2 0xEBD JUMP JUMPDEST PUSH1 0x1F NOT DUP5 AND PUSH2 0xE6B DUP7 PUSH2 0xC47 JUMP JUMPDEST PUSH1 0x0 JUMPDEST DUP3 DUP2 LT ISZERO PUSH2 0xE93 JUMPI DUP5 DUP10 ADD MLOAD DUP3 SSTORE PUSH1 0x1 DUP3 ADD SWAP2 POP PUSH1 0x20 DUP6 ADD SWAP5 POP PUSH1 0x20 DUP2 ADD SWAP1 POP PUSH2 0xE6E JUMP JUMPDEST DUP7 DUP4 LT ISZERO PUSH2 0xEB0 JUMPI DUP5 DUP10 ADD MLOAD PUSH2 0xEAC PUSH1 0x1F DUP10 AND DUP3 PUSH2 0xDB9 JUMP JUMPDEST DUP4 SSTORE POP JUMPDEST PUSH1 0x1 PUSH1 0x2 DUP9 MUL ADD DUP9 SSTORE POP POP POP JUMPDEST POP POP POP POP POP POP JUMP JUMPDEST PUSH1 0x0 PUSH1 0xA0 DUP3 ADD SWAP1 POP PUSH2 0xEDA PUSH1 0x0 DUP4 ADD DUP9 PUSH2 0x7C6 JUMP JUMPDEST DUP2 DUP2 SUB PUSH1 0x20 DUP4 ADD MSTORE PUSH2 0xEEC DUP2 DUP8 PUSH2 0x6C8 JUMP JUMPDEST SWAP1 POP DUP2 DUP2 SUB PUSH1 0x40 DUP4 ADD MSTORE PUSH2 0xF00 DUP2 DUP7 PUSH2 0x6C8 JUMP JUMPDEST SWAP1 POP DUP2 DUP2 SUB PUSH1 0x60 DUP4 ADD MSTORE PUSH2 0xF14 DUP2 DUP6 PUSH2 0x6C8 JUMP JUMPDEST SWAP1 POP PUSH2 0xF23 PUSH1 0x80 DUP4 ADD DUP5 PUSH2 0x733 JUMP JUMPDEST SWAP7 SWAP6 POP POP POP POP POP POP JUMP INVALID LOG2 PUSH5 0x6970667358 0x22 SLT KECCAK256 PUSH25 0x65EC09BA96C75B27442F9F69552A52A2716050CAA79495C125 0xDA 0xE2 STATICCALL 0xA7 PUSH7 0xFE64736F6C6343 STOP ADDMOD XOR STOP CALLER "},"methodIdentifiers":{"addInstrument(string,string,string,string,string)":"cc201213","instruments(uint256)":"22bbad0b","instrumentsCount()":"3ef439ff"}}}}}