{
  "_format": "hh-sol-artifact-1",
  "contractName": "MusicID",
  "sourceName": "contracts/musicID.sol",
  "abi": [
    {
      "anonymous": false,
      "inputs": [
        {
          "indexed": false,
          "internalType": "uint256",
          "name": "id",
          "type": "uint256"
        },
        {
          "indexed": false,
          "internalType": "string",
          "name": "name",
          "type": "string"
        },
        {
          "indexed": false,
          "internalType": "string",
          "name": "model",
          "type": "string"
        },
        {
          "indexed": false,
          "internalType": "string",
          "name": "serialNumber",
          "type": "string"
        },
        {
          "indexed": false,
          "internalType": "address",
          "name": "owner",
          "type": "address"
        }
      ],
      "name": "InstrumentAdded",
      "type": "event"
    },
    {
      "anonymous": false,
      "inputs": [
        {
          "indexed": false,
          "internalType": "uint256",
          "name": "id",
          "type": "uint256"
        },
        {
          "indexed": false,
          "internalType": "bool",
          "name": "isStolen",
          "type": "bool"
        }
      ],
      "name": "InstrumentMarkedAsStolen",
      "type": "event"
    },
    {
      "anonymous": false,
      "inputs": [
        {
          "indexed": false,
          "internalType": "uint256",
          "name": "id",
          "type": "uint256"
        },
        {
          "indexed": false,
          "internalType": "string",
          "name": "maintenanceRecords",
          "type": "string"
        },
        {
          "indexed": false,
          "internalType": "string",
          "name": "image",
          "type": "string"
        }
      ],
      "name": "InstrumentUpdated",
      "type": "event"
    },
    {
      "inputs": [
        {
          "internalType": "string",
          "name": "_name",
          "type": "string"
        },
        {
          "internalType": "string",
          "name": "_model",
          "type": "string"
        },
        {
          "internalType": "string",
          "name": "_serialNumber",
          "type": "string"
        },
        {
          "internalType": "string",
          "name": "_maintenanceRecords",
          "type": "string"
        },
        {
          "internalType": "string",
          "name": "_image",
          "type": "string"
        }
      ],
      "name": "addInstrument",
      "outputs": [
        {
          "internalType": "uint256",
          "name": "",
          "type": "uint256"
        }
      ],
      "stateMutability": "nonpayable",
      "type": "function"
    },
    {
      "inputs": [
        {
          "internalType": "uint256",
          "name": "_id",
          "type": "uint256"
        }
      ],
      "name": "getInstrumentById",
      "outputs": [
        {
          "internalType": "uint256",
          "name": "id",
          "type": "uint256"
        },
        {
          "internalType": "string",
          "name": "name",
          "type": "string"
        },
        {
          "internalType": "string",
          "name": "model",
          "type": "string"
        },
        {
          "internalType": "string",
          "name": "serialNumber",
          "type": "string"
        },
        {
          "internalType": "address",
          "name": "owner",
          "type": "address"
        },
        {
          "internalType": "string",
          "name": "maintenanceRecords",
          "type": "string"
        },
        {
          "internalType": "string",
          "name": "image",
          "type": "string"
        },
        {
          "internalType": "bool",
          "name": "isStolen",
          "type": "bool"
        }
      ],
      "stateMutability": "view",
      "type": "function"
    },
    {
      "inputs": [
        {
          "internalType": "address",
          "name": "_owner",
          "type": "address"
        }
      ],
      "name": "getInstrumentsByOwner",
      "outputs": [
        {
          "internalType": "uint256[]",
          "name": "",
          "type": "uint256[]"
        },
        {
          "internalType": "string[]",
          "name": "",
          "type": "string[]"
        }
      ],
      "stateMutability": "view",
      "type": "function"
    },
    {
      "inputs": [
        {
          "internalType": "uint256",
          "name": "",
          "type": "uint256"
        }
      ],
      "name": "instruments",
      "outputs": [
        {
          "internalType": "string",
          "name": "name",
          "type": "string"
        },
        {
          "internalType": "string",
          "name": "model",
          "type": "string"
        },
        {
          "internalType": "string",
          "name": "serialNumber",
          "type": "string"
        },
        {
          "internalType": "address",
          "name": "owner",
          "type": "address"
        },
        {
          "internalType": "string",
          "name": "maintenanceRecords",
          "type": "string"
        },
        {
          "internalType": "string",
          "name": "image",
          "type": "string"
        },
        {
          "internalType": "bool",
          "name": "isStolen",
          "type": "bool"
        }
      ],
      "stateMutability": "view",
      "type": "function"
    },
    {
      "inputs": [],
      "name": "instrumentsCount",
      "outputs": [
        {
          "internalType": "uint256",
          "name": "",
          "type": "uint256"
        }
      ],
      "stateMutability": "view",
      "type": "function"
    },
    {
      "inputs": [
        {
          "internalType": "uint256",
          "name": "_id",
          "type": "uint256"
        }
      ],
      "name": "markInstrumentAsStolen",
      "outputs": [],
      "stateMutability": "nonpayable",
      "type": "function"
    },
    {
      "inputs": [
        {
          "internalType": "uint256",
          "name": "_id",
          "type": "uint256"
        },
        {
          "internalType": "string",
          "name": "_maintenanceRecords",
          "type": "string"
        },
        {
          "internalType": "string",
          "name": "_image",
          "type": "string"
        }
      ],
      "name": "updateInstrument",
      "outputs": [],
      "stateMutability": "nonpayable",
      "type": "function"
    }
  ],
  "bytecode": "0x608060405234801561001057600080fd5b50612018806100206000396000f3fe608060405234801561001057600080fd5b506004361061007d5760003560e01c8063bb1607be1161005b578063bb1607be146100f2578063c9fc0b131461010e578063cc2012131461013f578063e705c17b1461016f5761007d565b806322bbad0b146100825780633ef439ff146100b85780638e607ca3146100d6575b600080fd5b61009c6004803603810190610097919061111d565b6101a6565b6040516100af9796959493929190611236565b60405180910390f35b6100c06104bd565b6040516100cd91906112d7565b60405180910390f35b6100f060048036038101906100eb9190611427565b6104c3565b005b61010c6004803603810190610107919061111d565b610621565b005b610128600480360381019061012391906114de565b610796565b6040516101369291906116d5565b60405180910390f35b6101596004803603810190610154919061170c565b610a5b565b60405161016691906112d7565b60405180910390f35b6101896004803603810190610184919061111d565b610cc9565b60405161019d989796959493929190611813565b60405180910390f35b60006020528060005260406000206000915090508060000180546101c9906118e3565b80601f01602080910402602001604051908101604052809291908181526020018280546101f5906118e3565b80156102425780601f1061021757610100808354040283529160200191610242565b820191906000526020600020905b81548152906001019060200180831161022557829003601f168201915b505050505090806001018054610257906118e3565b80601f0160208091040260200160405190810160405280929190818152602001828054610283906118e3565b80156102d05780601f106102a5576101008083540402835291602001916102d0565b820191906000526020600020905b8154815290600101906020018083116102b357829003601f168201915b5050505050908060020180546102e5906118e3565b80601f0160208091040260200160405190810160405280929190818152602001828054610311906118e3565b801561035e5780601f106103335761010080835404028352916020019161035e565b820191906000526020600020905b81548152906001019060200180831161034157829003601f168201915b5050505050908060030160009054906101000a900473ffffffffffffffffffffffffffffffffffffffff1690806004018054610399906118e3565b80601f01602080910402602001604051908101604052809291908181526020018280546103c5906118e3565b80156104125780601f106103e757610100808354040283529160200191610412565b820191906000526020600020905b8154815290600101906020018083116103f557829003601f168201915b505050505090806005018054610427906118e3565b80601f0160208091040260200160405190810160405280929190818152602001828054610453906118e3565b80156104a05780601f10610475576101008083540402835291602001916104a0565b820191906000526020600020905b81548152906001019060200180831161048357829003601f168201915b5050505050908060060160009054906101000a900460ff16905087565b60015481565b6000831180156104d557506001548311155b610514576040517f08c379a000000000000000000000000000000000000000000000000000000000815260040161050b90611960565b60405180910390fd5b600080600085815260200190815260200160002090508060030160009054906101000a900473ffffffffffffffffffffffffffffffffffffffff1673ffffffffffffffffffffffffffffffffffffffff163373ffffffffffffffffffffffffffffffffffffffff16146105bc576040517f08c379a00000000000000000000000000000000000000000000000000000000081526004016105b3906119f2565b60405180910390fd5b828160040190816105cd9190611bbe565b50818160050190816105df9190611bbe565b507fb5a80eb1cb6eefef81a9fd32ac38c18c963edf35f4456ffbe221ac23bcf0880584848460405161061393929190611c90565b60405180910390a150505050565b60008111801561063357506001548111155b610672576040517f08c379a000000000000000000000000000000000000000000000000000000000815260040161066990611960565b60405180910390fd5b600080600083815260200190815260200160002090508060030160009054906101000a900473ffffffffffffffffffffffffffffffffffffffff1673ffffffffffffffffffffffffffffffffffffffff163373ffffffffffffffffffffffffffffffffffffffff161461071a576040517f08c379a000000000000000000000000000000000000000000000000000000000815260040161071190611d47565b60405180910390fd5b8060060160009054906101000a900460ff16158160060160006101000a81548160ff0219169083151502179055507ffc1a307220fbfe718488a3431d1a645da1c4d5ddd7ecc7c32a1d7a324e569167828260060160009054906101000a900460ff1660405161078a929190611d67565b60405180910390a15050565b606080600080600190505b6001548111610834578473ffffffffffffffffffffffffffffffffffffffff1660008083815260200190815260200160002060030160009054906101000a900473ffffffffffffffffffffffffffffffffffffffff1673ffffffffffffffffffffffffffffffffffffffff160361082157818061081d90611dbf565b9250505b808061082c90611dbf565b9150506107a1565b5060008167ffffffffffffffff811115610851576108506112fc565b5b60405190808252806020026020018201604052801561087f5781602001602082028036833780820191505090505b50905060008267ffffffffffffffff81111561089e5761089d6112fc565b5b6040519080825280602002602001820160405280156108d157816020015b60608152602001906001900390816108bc5790505b509050600080600190505b6001548111610a4b578773ffffffffffffffffffffffffffffffffffffffff1660008083815260200190815260200160002060030160009054906101000a900473ffffffffffffffffffffffffffffffffffffffff1673ffffffffffffffffffffffffffffffffffffffff1603610a38578084838151811061096157610960611e07565b5b602002602001018181525050600080828152602001908152602001600020600001805461098d906118e3565b80601f01602080910402602001604051908101604052809291908181526020018280546109b9906118e3565b8015610a065780601f106109db57610100808354040283529160200191610a06565b820191906000526020600020905b8154815290600101906020018083116109e957829003601f168201915b5050505050838381518110610a1e57610a1d611e07565b5b60200260200101819052508180610a3490611dbf565b9250505b8080610a4390611dbf565b9150506108dc565b5082829550955050505050915091565b600080865111610aa0576040517f08c379a0000000000000000000000000000000000000000000000000000000008152600401610a9790611e82565b60405180910390fd5b6000855111610ae4576040517f08c379a0000000000000000000000000000000000000000000000000000000008152600401610adb90611eee565b60405180910390fd5b6000845111610b28576040517f08c379a0000000000000000000000000000000000000000000000000000000008152600401610b1f90611f5a565b60405180910390fd5b60016000815480929190610b3b90611dbf565b9190505550600060015490506040518060e001604052808881526020018781526020018681526020013373ffffffffffffffffffffffffffffffffffffffff168152602001858152602001848152602001600015158152506000808381526020019081526020016000206000820151816000019081610bba9190611bbe565b506020820151816001019081610bd09190611bbe565b506040820151816002019081610be69190611bbe565b5060608201518160030160006101000a81548173ffffffffffffffffffffffffffffffffffffffff021916908373ffffffffffffffffffffffffffffffffffffffff1602179055506080820151816004019081610c439190611bbe565b5060a0820151816005019081610c599190611bbe565b5060c08201518160060160006101000a81548160ff0219169083151502179055509050507f6c5814bfa67cbb27bfae5c6c9a59d6009633b65ffe8287b75a716b8ad365a70f8188888833604051610cb4959493929190611f7a565b60405180910390a18091505095945050505050565b60006060806060600060608060008089118015610ce857506001548911155b610d27576040517f08c379a0000000000000000000000000000000000000000000000000000000008152600401610d1e90611960565b60405180910390fd5b60008060008b81526020019081526020016000206040518060e0016040529081600082018054610d56906118e3565b80601f0160208091040260200160405190810160405280929190818152602001828054610d82906118e3565b8015610dcf5780601f10610da457610100808354040283529160200191610dcf565b820191906000526020600020905b815481529060010190602001808311610db257829003601f168201915b50505050508152602001600182018054610de8906118e3565b80601f0160208091040260200160405190810160405280929190818152602001828054610e14906118e3565b8015610e615780601f10610e3657610100808354040283529160200191610e61565b820191906000526020600020905b815481529060010190602001808311610e4457829003601f168201915b50505050508152602001600282018054610e7a906118e3565b80601f0160208091040260200160405190810160405280929190818152602001828054610ea6906118e3565b8015610ef35780601f10610ec857610100808354040283529160200191610ef3565b820191906000526020600020905b815481529060010190602001808311610ed657829003601f168201915b505050505081526020016003820160009054906101000a900473ffffffffffffffffffffffffffffffffffffffff1673ffffffffffffffffffffffffffffffffffffffff1673ffffffffffffffffffffffffffffffffffffffff168152602001600482018054610f62906118e3565b80601f0160208091040260200160405190810160405280929190818152602001828054610f8e906118e3565b8015610fdb5780601f10610fb057610100808354040283529160200191610fdb565b820191906000526020600020905b815481529060010190602001808311610fbe57829003601f168201915b50505050508152602001600582018054610ff4906118e3565b80601f0160208091040260200160405190810160405280929190818152602001828054611020906118e3565b801561106d5780601f106110425761010080835404028352916020019161106d565b820191906000526020600020905b81548152906001019060200180831161105057829003601f168201915b505050505081526020016006820160009054906101000a900460ff161515151581525050905089816000015182602001518360400151846060015185608001518660a001518760c001519850985098509850985098509850985050919395975091939597565b6000604051905090565b600080fd5b600080fd5b6000819050919050565b6110fa816110e7565b811461110557600080fd5b50565b600081359050611117816110f1565b92915050565b600060208284031215611133576111326110dd565b5b600061114184828501611108565b91505092915050565b600081519050919050565b600082825260208201905092915050565b60005b83811015611184578082015181840152602081019050611169565b60008484015250505050565b6000601f19601f8301169050919050565b60006111ac8261114a565b6111b68185611155565b93506111c6818560208601611166565b6111cf81611190565b840191505092915050565b600073ffffffffffffffffffffffffffffffffffffffff82169050919050565b6000611205826111da565b9050919050565b611215816111fa565b82525050565b60008115159050919050565b6112308161121b565b82525050565b600060e0820190508181036000830152611250818a6111a1565b9050818103602083015261126481896111a1565b9050818103604083015261127881886111a1565b9050611287606083018761120c565b818103608083015261129981866111a1565b905081810360a08301526112ad81856111a1565b90506112bc60c0830184611227565b98975050505050505050565b6112d1816110e7565b82525050565b60006020820190506112ec60008301846112c8565b92915050565b600080fd5b600080fd5b7f4e487b7100000000000000000000000000000000000000000000000000000000600052604160045260246000fd5b61133482611190565b810181811067ffffffffffffffff82111715611353576113526112fc565b5b80604052505050565b60006113666110d3565b9050611372828261132b565b919050565b600067ffffffffffffffff821115611392576113916112fc565b5b61139b82611190565b9050602081019050919050565b82818337600083830152505050565b60006113ca6113c584611377565b61135c565b9050828152602081018484840111156113e6576113e56112f7565b5b6113f18482856113a8565b509392505050565b600082601f83011261140e5761140d6112f2565b5b813561141e8482602086016113b7565b91505092915050565b6000806000606084860312156114405761143f6110dd565b5b600061144e86828701611108565b935050602084013567ffffffffffffffff81111561146f5761146e6110e2565b5b61147b868287016113f9565b925050604084013567ffffffffffffffff81111561149c5761149b6110e2565b5b6114a8868287016113f9565b9150509250925092565b6114bb816111fa565b81146114c657600080fd5b50565b6000813590506114d8816114b2565b92915050565b6000602082840312156114f4576114f36110dd565b5b6000611502848285016114c9565b91505092915050565b600081519050919050565b600082825260208201905092915050565b6000819050602082019050919050565b611540816110e7565b82525050565b60006115528383611537565b60208301905092915050565b6000602082019050919050565b60006115768261150b565b6115808185611516565b935061158b83611527565b8060005b838110156115bc5781516115a38882611546565b97506115ae8361155e565b92505060018101905061158f565b5085935050505092915050565b600081519050919050565b600082825260208201905092915050565b6000819050602082019050919050565b600082825260208201905092915050565b60006116118261114a565b61161b81856115f5565b935061162b818560208601611166565b61163481611190565b840191505092915050565b600061164b8383611606565b905092915050565b6000602082019050919050565b600061166b826115c9565b61167581856115d4565b935083602082028501611687856115e5565b8060005b858110156116c357848403895281516116a4858261163f565b94506116af83611653565b925060208a0199505060018101905061168b565b50829750879550505050505092915050565b600060408201905081810360008301526116ef818561156b565b905081810360208301526117038184611660565b90509392505050565b600080600080600060a08688031215611728576117276110dd565b5b600086013567ffffffffffffffff811115611746576117456110e2565b5b611752888289016113f9565b955050602086013567ffffffffffffffff811115611773576117726110e2565b5b61177f888289016113f9565b945050604086013567ffffffffffffffff8111156117a05761179f6110e2565b5b6117ac888289016113f9565b935050606086013567ffffffffffffffff8111156117cd576117cc6110e2565b5b6117d9888289016113f9565b925050608086013567ffffffffffffffff8111156117fa576117f96110e2565b5b611806888289016113f9565b9150509295509295909350565b600061010082019050611829600083018b6112c8565b818103602083015261183b818a6111a1565b9050818103604083015261184f81896111a1565b9050818103606083015261186381886111a1565b9050611872608083018761120c565b81810360a083015261188481866111a1565b905081810360c083015261189881856111a1565b90506118a760e0830184611227565b9998505050505050505050565b7f4e487b7100000000000000000000000000000000000000000000000000000000600052602260045260246000fd5b600060028204905060018216806118fb57607f821691505b60208210810361190e5761190d6118b4565b5b50919050565b7f496e737472756d656e74204944206973206f7574206f6620626f756e64730000600082015250565b600061194a601e83611155565b915061195582611914565b602082019050919050565b600060208201905081810360008301526119798161193d565b9050919050565b7f4f6e6c7920746865206f776e65722063616e207570646174652074686973206960008201527f6e737472756d656e740000000000000000000000000000000000000000000000602082015250565b60006119dc602983611155565b91506119e782611980565b604082019050919050565b60006020820190508181036000830152611a0b816119cf565b9050919050565b60008190508160005260206000209050919050565b60006020601f8301049050919050565b600082821b905092915050565b600060088302611a747fffffffffffffffffffffffffffffffffffffffffffffffffffffffffffffffff82611a37565b611a7e8683611a37565b95508019841693508086168417925050509392505050565b6000819050919050565b6000611abb611ab6611ab1846110e7565b611a96565b6110e7565b9050919050565b6000819050919050565b611ad583611aa0565b611ae9611ae182611ac2565b848454611a44565b825550505050565b600090565b611afe611af1565b611b09818484611acc565b505050565b5b81811015611b2d57611b22600082611af6565b600181019050611b0f565b5050565b601f821115611b7257611b4381611a12565b611b4c84611a27565b81016020851015611b5b578190505b611b6f611b6785611a27565b830182611b0e565b50505b505050565b600082821c905092915050565b6000611b9560001984600802611b77565b1980831691505092915050565b6000611bae8383611b84565b9150826002028217905092915050565b611bc78261114a565b67ffffffffffffffff811115611be057611bdf6112fc565b5b611bea82546118e3565b611bf5828285611b31565b600060209050601f831160018114611c285760008415611c16578287015190505b611c208582611ba2565b865550611c88565b601f198416611c3686611a12565b60005b82811015611c5e57848901518255600182019150602085019450602081019050611c39565b86831015611c7b5784890151611c77601f891682611b84565b8355505b6001600288020188555050505b505050505050565b6000606082019050611ca560008301866112c8565b8181036020830152611cb781856111a1565b90508181036040830152611ccb81846111a1565b9050949350505050565b7f4f6e6c7920746865206f776e65722063616e206d61726b207468697320696e7360008201527f7472756d656e742061732073746f6c656e000000000000000000000000000000602082015250565b6000611d31603183611155565b9150611d3c82611cd5565b604082019050919050565b60006020820190508181036000830152611d6081611d24565b9050919050565b6000604082019050611d7c60008301856112c8565b611d896020830184611227565b9392505050565b7f4e487b7100000000000000000000000000000000000000000000000000000000600052601160045260246000fd5b6000611dca826110e7565b91507fffffffffffffffffffffffffffffffffffffffffffffffffffffffffffffffff8203611dfc57611dfb611d90565b5b600182019050919050565b7f4e487b7100000000000000000000000000000000000000000000000000000000600052603260045260246000fd5b7f4e616d652063616e6e6f7420626520656d707479000000000000000000000000600082015250565b6000611e6c601483611155565b9150611e7782611e36565b602082019050919050565b60006020820190508181036000830152611e9b81611e5f565b9050919050565b7f4d6f64656c2063616e6e6f7420626520656d7074790000000000000000000000600082015250565b6000611ed8601583611155565b9150611ee382611ea2565b602082019050919050565b60006020820190508181036000830152611f0781611ecb565b9050919050565b7f53657269616c206e756d6265722063616e6e6f7420626520656d707479000000600082015250565b6000611f44601d83611155565b9150611f4f82611f0e565b602082019050919050565b60006020820190508181036000830152611f7381611f37565b9050919050565b600060a082019050611f8f60008301886112c8565b8181036020830152611fa181876111a1565b90508181036040830152611fb581866111a1565b90508181036060830152611fc981856111a1565b9050611fd8608083018461120c565b969550505050505056fea2646970667358221220435ae1c8aca0fbcdb97f0e4ebebfea4674e2de5b3f5ab236e2e236751334329164736f6c63430008120033",
  "linkReferences": {},
  "deployedLinkReferences": {}
}