{
  "_format": "hh-sol-artifact-1",
  "contractName": "MusicID",
  "sourceName": "contracts/musicID.sol",
  "abi": [
    {
      "anonymous": false,
      "inputs": [
        {
          "indexed": false,
          "internalType": "uint256",
          "name": "id",
          "type": "uint256"
        },
        {
          "indexed": false,
          "internalType": "string",
          "name": "name",
          "type": "string"
        },
        {
          "indexed": false,
          "internalType": "string",
          "name": "model",
          "type": "string"
        },
        {
          "indexed": false,
          "internalType": "string",
          "name": "serialNumber",
          "type": "string"
        },
        {
          "indexed": false,
          "internalType": "address",
          "name": "owner",
          "type": "address"
        }
      ],
      "name": "InstrumentAdded",
      "type": "event"
    },
    {
      "inputs": [
        {
          "internalType": "string",
          "name": "_name",
          "type": "string"
        },
        {
          "internalType": "string",
          "name": "_model",
          "type": "string"
        },
        {
          "internalType": "string",
          "name": "_serialNumber",
          "type": "string"
        },
        {
          "internalType": "string",
          "name": "_maintenanceRecords",
          "type": "string"
        },
        {
          "internalType": "string",
          "name": "_image",
          "type": "string"
        }
      ],
      "name": "addInstrument",
      "outputs": [],
      "stateMutability": "nonpayable",
      "type": "function"
    },
    {
      "inputs": [
        {
          "internalType": "uint256",
          "name": "",
          "type": "uint256"
        }
      ],
      "name": "instruments",
      "outputs": [
        {
          "internalType": "string",
          "name": "name",
          "type": "string"
        },
        {
          "internalType": "string",
          "name": "model",
          "type": "string"
        },
        {
          "internalType": "string",
          "name": "serialNumber",
          "type": "string"
        },
        {
          "internalType": "address",
          "name": "owner",
          "type": "address"
        },
        {
          "internalType": "string",
          "name": "maintenanceRecords",
          "type": "string"
        },
        {
          "internalType": "string",
          "name": "image",
          "type": "string"
        }
      ],
      "stateMutability": "view",
      "type": "function"
    },
    {
      "inputs": [],
      "name": "instrumentsCount",
      "outputs": [
        {
          "internalType": "uint256",
          "name": "",
          "type": "uint256"
        }
      ],
      "stateMutability": "view",
      "type": "function"
    }
  ],
  "bytecode": "0x608060405234801561001057600080fd5b50610f63806100206000396000f3fe608060405234801561001057600080fd5b50600436106100415760003560e01c806322bbad0b146100465780633ef439ff1461007b578063cc20121314610099575b600080fd5b610060600480360381019061005b9190610644565b6100b5565b60405161007296959493929190610742565b60405180910390f35b6100836103b9565b60405161009091906107d5565b60405180910390f35b6100b360048036038101906100ae9190610925565b6103bf565b005b60006020528060005260406000206000915090508060000180546100d890610a5b565b80601f016020809104026020016040519081016040528092919081815260200182805461010490610a5b565b80156101515780601f1061012657610100808354040283529160200191610151565b820191906000526020600020905b81548152906001019060200180831161013457829003601f168201915b50505050509080600101805461016690610a5b565b80601f016020809104026020016040519081016040528092919081815260200182805461019290610a5b565b80156101df5780601f106101b4576101008083540402835291602001916101df565b820191906000526020600020905b8154815290600101906020018083116101c257829003601f168201915b5050505050908060020180546101f490610a5b565b80601f016020809104026020016040519081016040528092919081815260200182805461022090610a5b565b801561026d5780601f106102425761010080835404028352916020019161026d565b820191906000526020600020905b81548152906001019060200180831161025057829003601f168201915b5050505050908060030160009054906101000a900473ffffffffffffffffffffffffffffffffffffffff16908060040180546102a890610a5b565b80601f01602080910402602001604051908101604052809291908181526020018280546102d490610a5b565b80156103215780601f106102f657610100808354040283529160200191610321565b820191906000526020600020905b81548152906001019060200180831161030457829003601f168201915b50505050509080600501805461033690610a5b565b80601f016020809104026020016040519081016040528092919081815260200182805461036290610a5b565b80156103af5780601f10610384576101008083540402835291602001916103af565b820191906000526020600020905b81548152906001019060200180831161039257829003601f168201915b5050505050905086565b60015481565b6000855111610403576040517f08c379a00000000000000000000000000000000000000000000000000000000081526004016103fa90610ad8565b60405180910390fd5b6000845111610447576040517f08c379a000000000000000000000000000000000000000000000000000000000815260040161043e90610b44565b60405180910390fd5b600083511161048b576040517f08c379a000000000000000000000000000000000000000000000000000000000815260040161048290610bb0565b60405180910390fd5b6001600081548092919061049e90610bff565b91905055506040518060c001604052808681526020018581526020018481526020013373ffffffffffffffffffffffffffffffffffffffff168152602001838152602001828152506000806001548152602001908152602001600020600082015181600001908161050f9190610df3565b5060208201518160010190816105259190610df3565b50604082015181600201908161053b9190610df3565b5060608201518160030160006101000a81548173ffffffffffffffffffffffffffffffffffffffff021916908373ffffffffffffffffffffffffffffffffffffffff16021790555060808201518160040190816105989190610df3565b5060a08201518160050190816105ae9190610df3565b509050507f6c5814bfa67cbb27bfae5c6c9a59d6009633b65ffe8287b75a716b8ad365a70f600154868686336040516105eb959493929190610ec5565b60405180910390a15050505050565b6000604051905090565b600080fd5b600080fd5b6000819050919050565b6106218161060e565b811461062c57600080fd5b50565b60008135905061063e81610618565b92915050565b60006020828403121561065a57610659610604565b5b60006106688482850161062f565b91505092915050565b600081519050919050565b600082825260208201905092915050565b60005b838110156106ab578082015181840152602081019050610690565b60008484015250505050565b6000601f19601f8301169050919050565b60006106d382610671565b6106dd818561067c565b93506106ed81856020860161068d565b6106f6816106b7565b840191505092915050565b600073ffffffffffffffffffffffffffffffffffffffff82169050919050565b600061072c82610701565b9050919050565b61073c81610721565b82525050565b600060c082019050818103600083015261075c81896106c8565b9050818103602083015261077081886106c8565b9050818103604083015261078481876106c8565b90506107936060830186610733565b81810360808301526107a581856106c8565b905081810360a08301526107b981846106c8565b9050979650505050505050565b6107cf8161060e565b82525050565b60006020820190506107ea60008301846107c6565b92915050565b600080fd5b600080fd5b7f4e487b7100000000000000000000000000000000000000000000000000000000600052604160045260246000fd5b610832826106b7565b810181811067ffffffffffffffff82111715610851576108506107fa565b5b80604052505050565b60006108646105fa565b90506108708282610829565b919050565b600067ffffffffffffffff8211156108905761088f6107fa565b5b610899826106b7565b9050602081019050919050565b82818337600083830152505050565b60006108c86108c384610875565b61085a565b9050828152602081018484840111156108e4576108e36107f5565b5b6108ef8482856108a6565b509392505050565b600082601f83011261090c5761090b6107f0565b5b813561091c8482602086016108b5565b91505092915050565b600080600080600060a0868803121561094157610940610604565b5b600086013567ffffffffffffffff81111561095f5761095e610609565b5b61096b888289016108f7565b955050602086013567ffffffffffffffff81111561098c5761098b610609565b5b610998888289016108f7565b945050604086013567ffffffffffffffff8111156109b9576109b8610609565b5b6109c5888289016108f7565b935050606086013567ffffffffffffffff8111156109e6576109e5610609565b5b6109f2888289016108f7565b925050608086013567ffffffffffffffff811115610a1357610a12610609565b5b610a1f888289016108f7565b9150509295509295909350565b7f4e487b7100000000000000000000000000000000000000000000000000000000600052602260045260246000fd5b60006002820490506001821680610a7357607f821691505b602082108103610a8657610a85610a2c565b5b50919050565b7f4e616d652063616e6e6f7420626520656d707479000000000000000000000000600082015250565b6000610ac260148361067c565b9150610acd82610a8c565b602082019050919050565b60006020820190508181036000830152610af181610ab5565b9050919050565b7f4d6f64656c2063616e6e6f7420626520656d7074790000000000000000000000600082015250565b6000610b2e60158361067c565b9150610b3982610af8565b602082019050919050565b60006020820190508181036000830152610b5d81610b21565b9050919050565b7f53657269616c206e756d6265722063616e6e6f7420626520656d707479000000600082015250565b6000610b9a601d8361067c565b9150610ba582610b64565b602082019050919050565b60006020820190508181036000830152610bc981610b8d565b9050919050565b7f4e487b7100000000000000000000000000000000000000000000000000000000600052601160045260246000fd5b6000610c0a8261060e565b91507fffffffffffffffffffffffffffffffffffffffffffffffffffffffffffffffff8203610c3c57610c3b610bd0565b5b600182019050919050565b60008190508160005260206000209050919050565b60006020601f8301049050919050565b600082821b905092915050565b600060088302610ca97fffffffffffffffffffffffffffffffffffffffffffffffffffffffffffffffff82610c6c565b610cb38683610c6c565b95508019841693508086168417925050509392505050565b6000819050919050565b6000610cf0610ceb610ce68461060e565b610ccb565b61060e565b9050919050565b6000819050919050565b610d0a83610cd5565b610d1e610d1682610cf7565b848454610c79565b825550505050565b600090565b610d33610d26565b610d3e818484610d01565b505050565b5b81811015610d6257610d57600082610d2b565b600181019050610d44565b5050565b601f821115610da757610d7881610c47565b610d8184610c5c565b81016020851015610d90578190505b610da4610d9c85610c5c565b830182610d43565b50505b505050565b600082821c905092915050565b6000610dca60001984600802610dac565b1980831691505092915050565b6000610de38383610db9565b9150826002028217905092915050565b610dfc82610671565b67ffffffffffffffff811115610e1557610e146107fa565b5b610e1f8254610a5b565b610e2a828285610d66565b600060209050601f831160018114610e5d5760008415610e4b578287015190505b610e558582610dd7565b865550610ebd565b601f198416610e6b86610c47565b60005b82811015610e9357848901518255600182019150602085019450602081019050610e6e565b86831015610eb05784890151610eac601f891682610db9565b8355505b6001600288020188555050505b505050505050565b600060a082019050610eda60008301886107c6565b8181036020830152610eec81876106c8565b90508181036040830152610f0081866106c8565b90508181036060830152610f1481856106c8565b9050610f236080830184610733565b969550505050505056fea26469706673582212207865ec09ba96c75b27442f9f69552a52a2716050caa79495c125dae2faa766fe64736f6c63430008180033",
  "linkReferences": {},
  "deployedLinkReferences": {}
}