{
  "_format": "hh-sol-artifact-1",
  "contractName": "MusicID",
  "sourceName": "contracts/musicID.sol",
  "abi": [
    {
      "anonymous": false,
      "inputs": [
        {
          "indexed": false,
          "internalType": "uint256",
          "name": "id",
          "type": "uint256"
        },
        {
          "indexed": false,
          "internalType": "string",
          "name": "name",
          "type": "string"
        },
        {
          "indexed": false,
          "internalType": "string",
          "name": "model",
          "type": "string"
        },
        {
          "indexed": false,
          "internalType": "string",
          "name": "serialNumber",
          "type": "string"
        },
        {
          "indexed": false,
          "internalType": "address",
          "name": "owner",
          "type": "address"
        }
      ],
      "name": "InstrumentAdded",
      "type": "event"
    },
    {
      "inputs": [
        {
          "internalType": "string",
          "name": "_name",
          "type": "string"
        },
        {
          "internalType": "string",
          "name": "_model",
          "type": "string"
        },
        {
          "internalType": "string",
          "name": "_serialNumber",
          "type": "string"
        },
        {
          "internalType": "string",
          "name": "_maintenanceRecords",
          "type": "string"
        },
        {
          "internalType": "string",
          "name": "_image",
          "type": "string"
        }
      ],
      "name": "addInstrument",
      "outputs": [
        {
          "internalType": "uint256",
          "name": "",
          "type": "uint256"
        }
      ],
      "stateMutability": "nonpayable",
      "type": "function"
    },
    {
      "inputs": [
        {
          "internalType": "uint256",
          "name": "_id",
          "type": "uint256"
        }
      ],
      "name": "getInstrumentById",
      "outputs": [
        {
          "internalType": "uint256",
          "name": "id",
          "type": "uint256"
        },
        {
          "internalType": "string",
          "name": "name",
          "type": "string"
        },
        {
          "internalType": "string",
          "name": "model",
          "type": "string"
        },
        {
          "internalType": "string",
          "name": "serialNumber",
          "type": "string"
        },
        {
          "internalType": "address",
          "name": "owner",
          "type": "address"
        },
        {
          "internalType": "string",
          "name": "maintenanceRecords",
          "type": "string"
        },
        {
          "internalType": "string",
          "name": "image",
          "type": "string"
        }
      ],
      "stateMutability": "view",
      "type": "function"
    },
    {
      "inputs": [
        {
          "internalType": "address",
          "name": "_owner",
          "type": "address"
        }
      ],
      "name": "getInstrumentsByOwner",
      "outputs": [
        {
          "internalType": "uint256[]",
          "name": "",
          "type": "uint256[]"
        },
        {
          "internalType": "string[]",
          "name": "",
          "type": "string[]"
        }
      ],
      "stateMutability": "view",
      "type": "function"
    },
    {
      "inputs": [
        {
          "internalType": "uint256",
          "name": "",
          "type": "uint256"
        }
      ],
      "name": "instruments",
      "outputs": [
        {
          "internalType": "string",
          "name": "name",
          "type": "string"
        },
        {
          "internalType": "string",
          "name": "model",
          "type": "string"
        },
        {
          "internalType": "string",
          "name": "serialNumber",
          "type": "string"
        },
        {
          "internalType": "address",
          "name": "owner",
          "type": "address"
        },
        {
          "internalType": "string",
          "name": "maintenanceRecords",
          "type": "string"
        },
        {
          "internalType": "string",
          "name": "image",
          "type": "string"
        }
      ],
      "stateMutability": "view",
      "type": "function"
    },
    {
      "inputs": [],
      "name": "instrumentsCount",
      "outputs": [
        {
          "internalType": "uint256",
          "name": "",
          "type": "uint256"
        }
      ],
      "stateMutability": "view",
      "type": "function"
    }
  ],
  "bytecode": "0x608060405234801561001057600080fd5b50611a31806100206000396000f3fe608060405234801561001057600080fd5b50600436106100575760003560e01c806322bbad0b1461005c5780633ef439ff14610091578063c9fc0b13146100af578063cc201213146100e0578063e705c17b14610110575b600080fd5b61007660048036038101906100719190610d8b565b610146565b60405161008896959493929190610e89565b60405180910390f35b61009961044a565b6040516100a69190610f1c565b60405180910390f35b6100c960048036038101906100c49190610f63565b610450565b6040516100d792919061115a565b60405180910390f35b6100fa60048036038101906100f591906112c6565b610715565b6040516101079190610f1c565b60405180910390f35b61012a60048036038101906101259190610d8b565b61095a565b60405161013d97969594939291906113cd565b60405180910390f35b60006020528060005260406000206000915090508060000180546101699061148e565b80601f01602080910402602001604051908101604052809291908181526020018280546101959061148e565b80156101e25780601f106101b7576101008083540402835291602001916101e2565b820191906000526020600020905b8154815290600101906020018083116101c557829003601f168201915b5050505050908060010180546101f79061148e565b80601f01602080910402602001604051908101604052809291908181526020018280546102239061148e565b80156102705780601f1061024557610100808354040283529160200191610270565b820191906000526020600020905b81548152906001019060200180831161025357829003601f168201915b5050505050908060020180546102859061148e565b80601f01602080910402602001604051908101604052809291908181526020018280546102b19061148e565b80156102fe5780601f106102d3576101008083540402835291602001916102fe565b820191906000526020600020905b8154815290600101906020018083116102e157829003601f168201915b5050505050908060030160009054906101000a900473ffffffffffffffffffffffffffffffffffffffff16908060040180546103399061148e565b80601f01602080910402602001604051908101604052809291908181526020018280546103659061148e565b80156103b25780601f10610387576101008083540402835291602001916103b2565b820191906000526020600020905b81548152906001019060200180831161039557829003601f168201915b5050505050908060050180546103c79061148e565b80601f01602080910402602001604051908101604052809291908181526020018280546103f39061148e565b80156104405780601f1061041557610100808354040283529160200191610440565b820191906000526020600020905b81548152906001019060200180831161042357829003601f168201915b5050505050905086565b60015481565b606080600080600190505b60015481116104ee578473ffffffffffffffffffffffffffffffffffffffff1660008083815260200190815260200160002060030160009054906101000a900473ffffffffffffffffffffffffffffffffffffffff1673ffffffffffffffffffffffffffffffffffffffff16036104db5781806104d7906114ee565b9250505b80806104e6906114ee565b91505061045b565b5060008167ffffffffffffffff81111561050b5761050a61119b565b5b6040519080825280602002602001820160405280156105395781602001602082028036833780820191505090505b50905060008267ffffffffffffffff8111156105585761055761119b565b5b60405190808252806020026020018201604052801561058b57816020015b60608152602001906001900390816105765790505b509050600080600190505b6001548111610705578773ffffffffffffffffffffffffffffffffffffffff1660008083815260200190815260200160002060030160009054906101000a900473ffffffffffffffffffffffffffffffffffffffff1673ffffffffffffffffffffffffffffffffffffffff16036106f2578084838151811061061b5761061a611536565b5b60200260200101818152505060008082815260200190815260200160002060000180546106479061148e565b80601f01602080910402602001604051908101604052809291908181526020018280546106739061148e565b80156106c05780601f10610695576101008083540402835291602001916106c0565b820191906000526020600020905b8154815290600101906020018083116106a357829003601f168201915b50505050508383815181106106d8576106d7611536565b5b602002602001018190525081806106ee906114ee565b9250505b80806106fd906114ee565b915050610596565b5082829550955050505050915091565b60008086511161075a576040517f08c379a0000000000000000000000000000000000000000000000000000000008152600401610751906115b1565b60405180910390fd5b600085511161079e576040517f08c379a00000000000000000000000000000000000000000000000000000000081526004016107959061161d565b60405180910390fd5b60008451116107e2576040517f08c379a00000000000000000000000000000000000000000000000000000000081526004016107d990611689565b60405180910390fd5b600160008154809291906107f5906114ee565b9190505550600060015490506040518060c001604052808881526020018781526020018681526020013373ffffffffffffffffffffffffffffffffffffffff16815260200185815260200184815250600080838152602001908152602001600020600082015181600001908161086b9190611855565b5060208201518160010190816108819190611855565b5060408201518160020190816108979190611855565b5060608201518160030160006101000a81548173ffffffffffffffffffffffffffffffffffffffff021916908373ffffffffffffffffffffffffffffffffffffffff16021790555060808201518160040190816108f49190611855565b5060a082015181600501908161090a9190611855565b509050507f6c5814bfa67cbb27bfae5c6c9a59d6009633b65ffe8287b75a716b8ad365a70f8188888833604051610945959493929190611927565b60405180910390a18091505095945050505050565b60006060806060600060608060008811801561097857506001548811155b6109b7576040517f08c379a00000000000000000000000000000000000000000000000000000000081526004016109ae906119db565b60405180910390fd5b60008060008a81526020019081526020016000206040518060c00160405290816000820180546109e69061148e565b80601f0160208091040260200160405190810160405280929190818152602001828054610a129061148e565b8015610a5f5780601f10610a3457610100808354040283529160200191610a5f565b820191906000526020600020905b815481529060010190602001808311610a4257829003601f168201915b50505050508152602001600182018054610a789061148e565b80601f0160208091040260200160405190810160405280929190818152602001828054610aa49061148e565b8015610af15780601f10610ac657610100808354040283529160200191610af1565b820191906000526020600020905b815481529060010190602001808311610ad457829003601f168201915b50505050508152602001600282018054610b0a9061148e565b80601f0160208091040260200160405190810160405280929190818152602001828054610b369061148e565b8015610b835780601f10610b5857610100808354040283529160200191610b83565b820191906000526020600020905b815481529060010190602001808311610b6657829003601f168201915b505050505081526020016003820160009054906101000a900473ffffffffffffffffffffffffffffffffffffffff1673ffffffffffffffffffffffffffffffffffffffff1673ffffffffffffffffffffffffffffffffffffffff168152602001600482018054610bf29061148e565b80601f0160208091040260200160405190810160405280929190818152602001828054610c1e9061148e565b8015610c6b5780601f10610c4057610100808354040283529160200191610c6b565b820191906000526020600020905b815481529060010190602001808311610c4e57829003601f168201915b50505050508152602001600582018054610c849061148e565b80601f0160208091040260200160405190810160405280929190818152602001828054610cb09061148e565b8015610cfd5780601f10610cd257610100808354040283529160200191610cfd565b820191906000526020600020905b815481529060010190602001808311610ce057829003601f168201915b505050505081525050905088816000015182602001518360400151846060015185608001518660a00151975097509750975097509750975050919395979092949650565b6000604051905090565b600080fd5b600080fd5b6000819050919050565b610d6881610d55565b8114610d7357600080fd5b50565b600081359050610d8581610d5f565b92915050565b600060208284031215610da157610da0610d4b565b5b6000610daf84828501610d76565b91505092915050565b600081519050919050565b600082825260208201905092915050565b60005b83811015610df2578082015181840152602081019050610dd7565b60008484015250505050565b6000601f19601f8301169050919050565b6000610e1a82610db8565b610e248185610dc3565b9350610e34818560208601610dd4565b610e3d81610dfe565b840191505092915050565b600073ffffffffffffffffffffffffffffffffffffffff82169050919050565b6000610e7382610e48565b9050919050565b610e8381610e68565b82525050565b600060c0820190508181036000830152610ea38189610e0f565b90508181036020830152610eb78188610e0f565b90508181036040830152610ecb8187610e0f565b9050610eda6060830186610e7a565b8181036080830152610eec8185610e0f565b905081810360a0830152610f008184610e0f565b9050979650505050505050565b610f1681610d55565b82525050565b6000602082019050610f316000830184610f0d565b92915050565b610f4081610e68565b8114610f4b57600080fd5b50565b600081359050610f5d81610f37565b92915050565b600060208284031215610f7957610f78610d4b565b5b6000610f8784828501610f4e565b91505092915050565b600081519050919050565b600082825260208201905092915050565b6000819050602082019050919050565b610fc581610d55565b82525050565b6000610fd78383610fbc565b60208301905092915050565b6000602082019050919050565b6000610ffb82610f90565b6110058185610f9b565b935061101083610fac565b8060005b838110156110415781516110288882610fcb565b975061103383610fe3565b925050600181019050611014565b5085935050505092915050565b600081519050919050565b600082825260208201905092915050565b6000819050602082019050919050565b600082825260208201905092915050565b600061109682610db8565b6110a0818561107a565b93506110b0818560208601610dd4565b6110b981610dfe565b840191505092915050565b60006110d0838361108b565b905092915050565b6000602082019050919050565b60006110f08261104e565b6110fa8185611059565b93508360208202850161110c8561106a565b8060005b85811015611148578484038952815161112985826110c4565b9450611134836110d8565b925060208a01995050600181019050611110565b50829750879550505050505092915050565b600060408201905081810360008301526111748185610ff0565b9050818103602083015261118881846110e5565b90509392505050565b600080fd5b600080fd5b7f4e487b7100000000000000000000000000000000000000000000000000000000600052604160045260246000fd5b6111d382610dfe565b810181811067ffffffffffffffff821117156111f2576111f161119b565b5b80604052505050565b6000611205610d41565b905061121182826111ca565b919050565b600067ffffffffffffffff8211156112315761123061119b565b5b61123a82610dfe565b9050602081019050919050565b82818337600083830152505050565b600061126961126484611216565b6111fb565b90508281526020810184848401111561128557611284611196565b5b611290848285611247565b509392505050565b600082601f8301126112ad576112ac611191565b5b81356112bd848260208601611256565b91505092915050565b600080600080600060a086880312156112e2576112e1610d4b565b5b600086013567ffffffffffffffff811115611300576112ff610d50565b5b61130c88828901611298565b955050602086013567ffffffffffffffff81111561132d5761132c610d50565b5b61133988828901611298565b945050604086013567ffffffffffffffff81111561135a57611359610d50565b5b61136688828901611298565b935050606086013567ffffffffffffffff81111561138757611386610d50565b5b61139388828901611298565b925050608086013567ffffffffffffffff8111156113b4576113b3610d50565b5b6113c088828901611298565b9150509295509295909350565b600060e0820190506113e2600083018a610f0d565b81810360208301526113f48189610e0f565b905081810360408301526114088188610e0f565b9050818103606083015261141c8187610e0f565b905061142b6080830186610e7a565b81810360a083015261143d8185610e0f565b905081810360c08301526114518184610e0f565b905098975050505050505050565b7f4e487b7100000000000000000000000000000000000000000000000000000000600052602260045260246000fd5b600060028204905060018216806114a657607f821691505b6020821081036114b9576114b861145f565b5b50919050565b7f4e487b7100000000000000000000000000000000000000000000000000000000600052601160045260246000fd5b60006114f982610d55565b91507fffffffffffffffffffffffffffffffffffffffffffffffffffffffffffffffff820361152b5761152a6114bf565b5b600182019050919050565b7f4e487b7100000000000000000000000000000000000000000000000000000000600052603260045260246000fd5b7f4e616d652063616e6e6f7420626520656d707479000000000000000000000000600082015250565b600061159b601483610dc3565b91506115a682611565565b602082019050919050565b600060208201905081810360008301526115ca8161158e565b9050919050565b7f4d6f64656c2063616e6e6f7420626520656d7074790000000000000000000000600082015250565b6000611607601583610dc3565b9150611612826115d1565b602082019050919050565b60006020820190508181036000830152611636816115fa565b9050919050565b7f53657269616c206e756d6265722063616e6e6f7420626520656d707479000000600082015250565b6000611673601d83610dc3565b915061167e8261163d565b602082019050919050565b600060208201905081810360008301526116a281611666565b9050919050565b60008190508160005260206000209050919050565b60006020601f8301049050919050565b600082821b905092915050565b60006008830261170b7fffffffffffffffffffffffffffffffffffffffffffffffffffffffffffffffff826116ce565b61171586836116ce565b95508019841693508086168417925050509392505050565b6000819050919050565b600061175261174d61174884610d55565b61172d565b610d55565b9050919050565b6000819050919050565b61176c83611737565b61178061177882611759565b8484546116db565b825550505050565b600090565b611795611788565b6117a0818484611763565b505050565b5b818110156117c4576117b960008261178d565b6001810190506117a6565b5050565b601f821115611809576117da816116a9565b6117e3846116be565b810160208510156117f2578190505b6118066117fe856116be565b8301826117a5565b50505b505050565b600082821c905092915050565b600061182c6000198460080261180e565b1980831691505092915050565b6000611845838361181b565b9150826002028217905092915050565b61185e82610db8565b67ffffffffffffffff8111156118775761187661119b565b5b611881825461148e565b61188c8282856117c8565b600060209050601f8311600181146118bf57600084156118ad578287015190505b6118b78582611839565b86555061191f565b601f1984166118cd866116a9565b60005b828110156118f5578489015182556001820191506020850194506020810190506118d0565b86831015611912578489015161190e601f89168261181b565b8355505b6001600288020188555050505b505050505050565b600060a08201905061193c6000830188610f0d565b818103602083015261194e8187610e0f565b905081810360408301526119628186610e0f565b905081810360608301526119768185610e0f565b90506119856080830184610e7a565b9695505050505050565b7f496e737472756d656e74204944206973206f7574206f6620626f756e64730000600082015250565b60006119c5601e83610dc3565b91506119d08261198f565b602082019050919050565b600060208201905081810360008301526119f4816119b8565b905091905056fea26469706673582212209870f3526eb98c85ec54ddc40e7b0532fd0feee6e5d2b9dd3d2c898e4898716d64736f6c63430008120033",
  "linkReferences": {},
  "deployedLinkReferences": {}
}