{
  "_format": "hh-sol-artifact-1",
  "contractName": "MusicID",
  "sourceName": "contracts/musicID.sol",
  "abi": [
    {
      "anonymous": false,
      "inputs": [
        {
          "indexed": false,
          "internalType": "uint256",
          "name": "id",
          "type": "uint256"
        },
        {
          "indexed": false,
          "internalType": "string",
          "name": "name",
          "type": "string"
        },
        {
          "indexed": false,
          "internalType": "string",
          "name": "model",
          "type": "string"
        },
        {
          "indexed": false,
          "internalType": "string",
          "name": "serialNumber",
          "type": "string"
        },
        {
          "indexed": false,
          "internalType": "address",
          "name": "owner",
          "type": "address"
        }
      ],
      "name": "InstrumentAdded",
      "type": "event"
    },
    {
      "inputs": [
        {
          "internalType": "string",
          "name": "_name",
          "type": "string"
        },
        {
          "internalType": "string",
          "name": "_model",
          "type": "string"
        },
        {
          "internalType": "string",
          "name": "_serialNumber",
          "type": "string"
        },
        {
          "internalType": "string",
          "name": "_maintenanceRecords",
          "type": "string"
        },
        {
          "internalType": "string",
          "name": "_image",
          "type": "string"
        }
      ],
      "name": "addInstrument",
      "outputs": [
        {
          "internalType": "uint256",
          "name": "",
          "type": "uint256"
        }
      ],
      "stateMutability": "nonpayable",
      "type": "function"
    },
    {
      "inputs": [
        {
          "internalType": "uint256",
          "name": "_id",
          "type": "uint256"
        }
      ],
      "name": "getInstrumentById",
      "outputs": [
        {
          "internalType": "uint256",
          "name": "id",
          "type": "uint256"
        },
        {
          "internalType": "string",
          "name": "name",
          "type": "string"
        },
        {
          "internalType": "string",
          "name": "model",
          "type": "string"
        },
        {
          "internalType": "string",
          "name": "serialNumber",
          "type": "string"
        },
        {
          "internalType": "address",
          "name": "owner",
          "type": "address"
        },
        {
          "internalType": "string",
          "name": "maintenanceRecords",
          "type": "string"
        },
        {
          "internalType": "string",
          "name": "image",
          "type": "string"
        }
      ],
      "stateMutability": "view",
      "type": "function"
    },
    {
      "inputs": [
        {
          "internalType": "uint256",
          "name": "",
          "type": "uint256"
        }
      ],
      "name": "instruments",
      "outputs": [
        {
          "internalType": "string",
          "name": "name",
          "type": "string"
        },
        {
          "internalType": "string",
          "name": "model",
          "type": "string"
        },
        {
          "internalType": "string",
          "name": "serialNumber",
          "type": "string"
        },
        {
          "internalType": "address",
          "name": "owner",
          "type": "address"
        },
        {
          "internalType": "string",
          "name": "maintenanceRecords",
          "type": "string"
        },
        {
          "internalType": "string",
          "name": "image",
          "type": "string"
        }
      ],
      "stateMutability": "view",
      "type": "function"
    },
    {
      "inputs": [],
      "name": "instrumentsCount",
      "outputs": [
        {
          "internalType": "uint256",
          "name": "",
          "type": "uint256"
        }
      ],
      "stateMutability": "view",
      "type": "function"
    }
  ],
  "bytecode": "0x608060405234801561001057600080fd5b506114a7806100206000396000f3fe608060405234801561001057600080fd5b506004361061004c5760003560e01c806322bbad0b146100515780633ef439ff14610086578063cc201213146100a4578063e705c17b146100d4575b600080fd5b61006b60048036038101906100669190610a8a565b61010a565b60405161007d96959493929190610b88565b60405180910390f35b61008e61040e565b60405161009b9190610c1b565b60405180910390f35b6100be60048036038101906100b99190610d6b565b610414565b6040516100cb9190610c1b565b60405180910390f35b6100ee60048036038101906100e99190610a8a565b610659565b6040516101019796959493929190610e72565b60405180910390f35b600060205280600052604060002060009150905080600001805461012d90610f33565b80601f016020809104026020016040519081016040528092919081815260200182805461015990610f33565b80156101a65780601f1061017b576101008083540402835291602001916101a6565b820191906000526020600020905b81548152906001019060200180831161018957829003601f168201915b5050505050908060010180546101bb90610f33565b80601f01602080910402602001604051908101604052809291908181526020018280546101e790610f33565b80156102345780601f1061020957610100808354040283529160200191610234565b820191906000526020600020905b81548152906001019060200180831161021757829003601f168201915b50505050509080600201805461024990610f33565b80601f016020809104026020016040519081016040528092919081815260200182805461027590610f33565b80156102c25780601f10610297576101008083540402835291602001916102c2565b820191906000526020600020905b8154815290600101906020018083116102a557829003601f168201915b5050505050908060030160009054906101000a900473ffffffffffffffffffffffffffffffffffffffff16908060040180546102fd90610f33565b80601f016020809104026020016040519081016040528092919081815260200182805461032990610f33565b80156103765780601f1061034b57610100808354040283529160200191610376565b820191906000526020600020905b81548152906001019060200180831161035957829003601f168201915b50505050509080600501805461038b90610f33565b80601f01602080910402602001604051908101604052809291908181526020018280546103b790610f33565b80156104045780601f106103d957610100808354040283529160200191610404565b820191906000526020600020905b8154815290600101906020018083116103e757829003601f168201915b5050505050905086565b60015481565b600080865111610459576040517f08c379a000000000000000000000000000000000000000000000000000000000815260040161045090610fb0565b60405180910390fd5b600085511161049d576040517f08c379a00000000000000000000000000000000000000000000000000000000081526004016104949061101c565b60405180910390fd5b60008451116104e1576040517f08c379a00000000000000000000000000000000000000000000000000000000081526004016104d890611088565b60405180910390fd5b600160008154809291906104f4906110d7565b9190505550600060015490506040518060c001604052808881526020018781526020018681526020013373ffffffffffffffffffffffffffffffffffffffff16815260200185815260200184815250600080838152602001908152602001600020600082015181600001908161056a91906112cb565b50602082015181600101908161058091906112cb565b50604082015181600201908161059691906112cb565b5060608201518160030160006101000a81548173ffffffffffffffffffffffffffffffffffffffff021916908373ffffffffffffffffffffffffffffffffffffffff16021790555060808201518160040190816105f391906112cb565b5060a082015181600501908161060991906112cb565b509050507f6c5814bfa67cbb27bfae5c6c9a59d6009633b65ffe8287b75a716b8ad365a70f818888883360405161064495949392919061139d565b60405180910390a18091505095945050505050565b60006060806060600060608060008811801561067757506001548811155b6106b6576040517f08c379a00000000000000000000000000000000000000000000000000000000081526004016106ad90611451565b60405180910390fd5b60008060008a81526020019081526020016000206040518060c00160405290816000820180546106e590610f33565b80601f016020809104026020016040519081016040528092919081815260200182805461071190610f33565b801561075e5780601f106107335761010080835404028352916020019161075e565b820191906000526020600020905b81548152906001019060200180831161074157829003601f168201915b5050505050815260200160018201805461077790610f33565b80601f01602080910402602001604051908101604052809291908181526020018280546107a390610f33565b80156107f05780601f106107c5576101008083540402835291602001916107f0565b820191906000526020600020905b8154815290600101906020018083116107d357829003601f168201915b5050505050815260200160028201805461080990610f33565b80601f016020809104026020016040519081016040528092919081815260200182805461083590610f33565b80156108825780601f1061085757610100808354040283529160200191610882565b820191906000526020600020905b81548152906001019060200180831161086557829003601f168201915b505050505081526020016003820160009054906101000a900473ffffffffffffffffffffffffffffffffffffffff1673ffffffffffffffffffffffffffffffffffffffff1673ffffffffffffffffffffffffffffffffffffffff1681526020016004820180546108f190610f33565b80601f016020809104026020016040519081016040528092919081815260200182805461091d90610f33565b801561096a5780601f1061093f5761010080835404028352916020019161096a565b820191906000526020600020905b81548152906001019060200180831161094d57829003601f168201915b5050505050815260200160058201805461098390610f33565b80601f01602080910402602001604051908101604052809291908181526020018280546109af90610f33565b80156109fc5780601f106109d1576101008083540402835291602001916109fc565b820191906000526020600020905b8154815290600101906020018083116109df57829003601f168201915b505050505081525050905088816000015182602001518360400151846060015185608001518660a00151975097509750975097509750975050919395979092949650565b6000604051905090565b600080fd5b600080fd5b6000819050919050565b610a6781610a54565b8114610a7257600080fd5b50565b600081359050610a8481610a5e565b92915050565b600060208284031215610aa057610a9f610a4a565b5b6000610aae84828501610a75565b91505092915050565b600081519050919050565b600082825260208201905092915050565b60005b83811015610af1578082015181840152602081019050610ad6565b60008484015250505050565b6000601f19601f8301169050919050565b6000610b1982610ab7565b610b238185610ac2565b9350610b33818560208601610ad3565b610b3c81610afd565b840191505092915050565b600073ffffffffffffffffffffffffffffffffffffffff82169050919050565b6000610b7282610b47565b9050919050565b610b8281610b67565b82525050565b600060c0820190508181036000830152610ba28189610b0e565b90508181036020830152610bb68188610b0e565b90508181036040830152610bca8187610b0e565b9050610bd96060830186610b79565b8181036080830152610beb8185610b0e565b905081810360a0830152610bff8184610b0e565b9050979650505050505050565b610c1581610a54565b82525050565b6000602082019050610c306000830184610c0c565b92915050565b600080fd5b600080fd5b7f4e487b7100000000000000000000000000000000000000000000000000000000600052604160045260246000fd5b610c7882610afd565b810181811067ffffffffffffffff82111715610c9757610c96610c40565b5b80604052505050565b6000610caa610a40565b9050610cb68282610c6f565b919050565b600067ffffffffffffffff821115610cd657610cd5610c40565b5b610cdf82610afd565b9050602081019050919050565b82818337600083830152505050565b6000610d0e610d0984610cbb565b610ca0565b905082815260208101848484011115610d2a57610d29610c3b565b5b610d35848285610cec565b509392505050565b600082601f830112610d5257610d51610c36565b5b8135610d62848260208601610cfb565b91505092915050565b600080600080600060a08688031215610d8757610d86610a4a565b5b600086013567ffffffffffffffff811115610da557610da4610a4f565b5b610db188828901610d3d565b955050602086013567ffffffffffffffff811115610dd257610dd1610a4f565b5b610dde88828901610d3d565b945050604086013567ffffffffffffffff811115610dff57610dfe610a4f565b5b610e0b88828901610d3d565b935050606086013567ffffffffffffffff811115610e2c57610e2b610a4f565b5b610e3888828901610d3d565b925050608086013567ffffffffffffffff811115610e5957610e58610a4f565b5b610e6588828901610d3d565b9150509295509295909350565b600060e082019050610e87600083018a610c0c565b8181036020830152610e998189610b0e565b90508181036040830152610ead8188610b0e565b90508181036060830152610ec18187610b0e565b9050610ed06080830186610b79565b81810360a0830152610ee28185610b0e565b905081810360c0830152610ef68184610b0e565b905098975050505050505050565b7f4e487b7100000000000000000000000000000000000000000000000000000000600052602260045260246000fd5b60006002820490506001821680610f4b57607f821691505b602082108103610f5e57610f5d610f04565b5b50919050565b7f4e616d652063616e6e6f7420626520656d707479000000000000000000000000600082015250565b6000610f9a601483610ac2565b9150610fa582610f64565b602082019050919050565b60006020820190508181036000830152610fc981610f8d565b9050919050565b7f4d6f64656c2063616e6e6f7420626520656d7074790000000000000000000000600082015250565b6000611006601583610ac2565b915061101182610fd0565b602082019050919050565b6000602082019050818103600083015261103581610ff9565b9050919050565b7f53657269616c206e756d6265722063616e6e6f7420626520656d707479000000600082015250565b6000611072601d83610ac2565b915061107d8261103c565b602082019050919050565b600060208201905081810360008301526110a181611065565b9050919050565b7f4e487b7100000000000000000000000000000000000000000000000000000000600052601160045260246000fd5b60006110e282610a54565b91507fffffffffffffffffffffffffffffffffffffffffffffffffffffffffffffffff8203611114576111136110a8565b5b600182019050919050565b60008190508160005260206000209050919050565b60006020601f8301049050919050565b600082821b905092915050565b6000600883026111817fffffffffffffffffffffffffffffffffffffffffffffffffffffffffffffffff82611144565b61118b8683611144565b95508019841693508086168417925050509392505050565b6000819050919050565b60006111c86111c36111be84610a54565b6111a3565b610a54565b9050919050565b6000819050919050565b6111e2836111ad565b6111f66111ee826111cf565b848454611151565b825550505050565b600090565b61120b6111fe565b6112168184846111d9565b505050565b5b8181101561123a5761122f600082611203565b60018101905061121c565b5050565b601f82111561127f576112508161111f565b61125984611134565b81016020851015611268578190505b61127c61127485611134565b83018261121b565b50505b505050565b600082821c905092915050565b60006112a260001984600802611284565b1980831691505092915050565b60006112bb8383611291565b9150826002028217905092915050565b6112d482610ab7565b67ffffffffffffffff8111156112ed576112ec610c40565b5b6112f78254610f33565b61130282828561123e565b600060209050601f8311600181146113355760008415611323578287015190505b61132d85826112af565b865550611395565b601f1984166113438661111f565b60005b8281101561136b57848901518255600182019150602085019450602081019050611346565b868310156113885784890151611384601f891682611291565b8355505b6001600288020188555050505b505050505050565b600060a0820190506113b26000830188610c0c565b81810360208301526113c48187610b0e565b905081810360408301526113d88186610b0e565b905081810360608301526113ec8185610b0e565b90506113fb6080830184610b79565b9695505050505050565b7f496e737472756d656e74204944206973206f7574206f6620626f756e64730000600082015250565b600061143b601e83610ac2565b915061144682611405565b602082019050919050565b6000602082019050818103600083015261146a8161142e565b905091905056fea2646970667358221220e88ef9f9b6624c446fb60f2ad55605de7d83d78e86397b6a62943a907ce3710164736f6c63430008120033",
  "linkReferences": {},
  "deployedLinkReferences": {}
}