{
  "_format": "hh-sol-artifact-1",
  "contractName": "MusicID",
  "sourceName": "contracts/musicID.sol",
  "abi": [
    {
      "anonymous": false,
      "inputs": [
        {
          "indexed": false,
          "internalType": "uint256",
          "name": "id",
          "type": "uint256"
        },
        {
          "indexed": false,
          "internalType": "string",
          "name": "name",
          "type": "string"
        },
        {
          "indexed": false,
          "internalType": "string",
          "name": "model",
          "type": "string"
        },
        {
          "indexed": false,
          "internalType": "string",
          "name": "serialNumber",
          "type": "string"
        },
        {
          "indexed": false,
          "internalType": "address",
          "name": "owner",
          "type": "address"
        }
      ],
      "name": "InstrumentAdded",
      "type": "event"
    },
    {
      "anonymous": false,
      "inputs": [
        {
          "indexed": false,
          "internalType": "uint256",
          "name": "id",
          "type": "uint256"
        },
        {
          "indexed": false,
          "internalType": "bool",
          "name": "isStolen",
          "type": "bool"
        }
      ],
      "name": "InstrumentMarkedAsStolen",
      "type": "event"
    },
    {
      "anonymous": false,
      "inputs": [
        {
          "indexed": false,
          "internalType": "uint256",
          "name": "id",
          "type": "uint256"
        },
        {
          "indexed": false,
          "internalType": "address",
          "name": "previousOwner",
          "type": "address"
        },
        {
          "indexed": false,
          "internalType": "address",
          "name": "newOwner",
          "type": "address"
        }
      ],
      "name": "InstrumentOwnershipTransferred",
      "type": "event"
    },
    {
      "anonymous": false,
      "inputs": [
        {
          "indexed": false,
          "internalType": "uint256",
          "name": "id",
          "type": "uint256"
        },
        {
          "indexed": false,
          "internalType": "string",
          "name": "maintenanceRecords",
          "type": "string"
        },
        {
          "indexed": false,
          "internalType": "string",
          "name": "image",
          "type": "string"
        }
      ],
      "name": "InstrumentUpdated",
      "type": "event"
    },
    {
      "inputs": [
        {
          "internalType": "string",
          "name": "_name",
          "type": "string"
        },
        {
          "internalType": "string",
          "name": "_model",
          "type": "string"
        },
        {
          "internalType": "string",
          "name": "_serialNumber",
          "type": "string"
        },
        {
          "internalType": "string",
          "name": "_maintenanceRecords",
          "type": "string"
        },
        {
          "internalType": "string",
          "name": "_image",
          "type": "string"
        }
      ],
      "name": "addInstrument",
      "outputs": [
        {
          "internalType": "uint256",
          "name": "",
          "type": "uint256"
        }
      ],
      "stateMutability": "nonpayable",
      "type": "function"
    },
    {
      "inputs": [
        {
          "internalType": "uint256",
          "name": "_id",
          "type": "uint256"
        }
      ],
      "name": "getInstrumentById",
      "outputs": [
        {
          "internalType": "uint256",
          "name": "id",
          "type": "uint256"
        },
        {
          "internalType": "string",
          "name": "name",
          "type": "string"
        },
        {
          "internalType": "string",
          "name": "model",
          "type": "string"
        },
        {
          "internalType": "string",
          "name": "serialNumber",
          "type": "string"
        },
        {
          "internalType": "address",
          "name": "owner",
          "type": "address"
        },
        {
          "internalType": "string",
          "name": "maintenanceRecords",
          "type": "string"
        },
        {
          "internalType": "string",
          "name": "image",
          "type": "string"
        },
        {
          "internalType": "bool",
          "name": "isStolen",
          "type": "bool"
        }
      ],
      "stateMutability": "view",
      "type": "function"
    },
    {
      "inputs": [
        {
          "internalType": "address",
          "name": "_owner",
          "type": "address"
        }
      ],
      "name": "getInstrumentsByOwner",
      "outputs": [
        {
          "internalType": "uint256[]",
          "name": "",
          "type": "uint256[]"
        },
        {
          "internalType": "string[]",
          "name": "",
          "type": "string[]"
        }
      ],
      "stateMutability": "view",
      "type": "function"
    },
    {
      "inputs": [
        {
          "internalType": "uint256",
          "name": "",
          "type": "uint256"
        }
      ],
      "name": "instruments",
      "outputs": [
        {
          "internalType": "string",
          "name": "name",
          "type": "string"
        },
        {
          "internalType": "string",
          "name": "model",
          "type": "string"
        },
        {
          "internalType": "string",
          "name": "serialNumber",
          "type": "string"
        },
        {
          "internalType": "address",
          "name": "owner",
          "type": "address"
        },
        {
          "internalType": "string",
          "name": "maintenanceRecords",
          "type": "string"
        },
        {
          "internalType": "string",
          "name": "image",
          "type": "string"
        },
        {
          "internalType": "bool",
          "name": "isStolen",
          "type": "bool"
        }
      ],
      "stateMutability": "view",
      "type": "function"
    },
    {
      "inputs": [],
      "name": "instrumentsCount",
      "outputs": [
        {
          "internalType": "uint256",
          "name": "",
          "type": "uint256"
        }
      ],
      "stateMutability": "view",
      "type": "function"
    },
    {
      "inputs": [
        {
          "internalType": "uint256",
          "name": "_id",
          "type": "uint256"
        }
      ],
      "name": "markInstrumentAsStolen",
      "outputs": [],
      "stateMutability": "nonpayable",
      "type": "function"
    },
    {
      "inputs": [
        {
          "internalType": "uint256",
          "name": "_id",
          "type": "uint256"
        },
        {
          "internalType": "address",
          "name": "_newOwner",
          "type": "address"
        }
      ],
      "name": "transferOwnership",
      "outputs": [],
      "stateMutability": "nonpayable",
      "type": "function"
    },
    {
      "inputs": [
        {
          "internalType": "uint256",
          "name": "_id",
          "type": "uint256"
        },
        {
          "internalType": "string",
          "name": "_maintenanceRecords",
          "type": "string"
        },
        {
          "internalType": "string",
          "name": "_image",
          "type": "string"
        }
      ],
      "name": "updateInstrument",
      "outputs": [],
      "stateMutability": "nonpayable",
      "type": "function"
    }
  ],
  "bytecode": "0x608060405234801561001057600080fd5b506122ee806100206000396000f3fe608060405234801561001057600080fd5b50600436106100885760003560e01c8063bb1607be1161005b578063bb1607be14610119578063c9fc0b1314610135578063cc20121314610166578063e705c17b1461019657610088565b806322bbad0b1461008d57806329507f73146100c35780633ef439ff146100df5780638e607ca3146100fd575b600080fd5b6100a760048036038101906100a291906112ea565b6101cd565b6040516100ba9796959493929190611403565b60405180910390f35b6100dd60048036038101906100d891906114c1565b6104e4565b005b6100e761068a565b6040516100f49190611510565b60405180910390f35b61011760048036038101906101129190611660565b610690565b005b610133600480360381019061012e91906112ea565b6107ee565b005b61014f600480360381019061014a91906116eb565b610963565b60405161015d9291906118e2565b60405180910390f35b610180600480360381019061017b9190611919565b610c28565b60405161018d9190611510565b60405180910390f35b6101b060048036038101906101ab91906112ea565b610e96565b6040516101c4989796959493929190611a20565b60405180910390f35b60006020528060005260406000206000915090508060000180546101f090611af0565b80601f016020809104026020016040519081016040528092919081815260200182805461021c90611af0565b80156102695780601f1061023e57610100808354040283529160200191610269565b820191906000526020600020905b81548152906001019060200180831161024c57829003601f168201915b50505050509080600101805461027e90611af0565b80601f01602080910402602001604051908101604052809291908181526020018280546102aa90611af0565b80156102f75780601f106102cc576101008083540402835291602001916102f7565b820191906000526020600020905b8154815290600101906020018083116102da57829003601f168201915b50505050509080600201805461030c90611af0565b80601f016020809104026020016040519081016040528092919081815260200182805461033890611af0565b80156103855780601f1061035a57610100808354040283529160200191610385565b820191906000526020600020905b81548152906001019060200180831161036857829003601f168201915b5050505050908060030160009054906101000a900473ffffffffffffffffffffffffffffffffffffffff16908060040180546103c090611af0565b80601f01602080910402602001604051908101604052809291908181526020018280546103ec90611af0565b80156104395780601f1061040e57610100808354040283529160200191610439565b820191906000526020600020905b81548152906001019060200180831161041c57829003601f168201915b50505050509080600501805461044e90611af0565b80601f016020809104026020016040519081016040528092919081815260200182805461047a90611af0565b80156104c75780601f1061049c576101008083540402835291602001916104c7565b820191906000526020600020905b8154815290600101906020018083116104aa57829003601f168201915b5050505050908060060160009054906101000a900460ff16905087565b6000821180156104f657506001548211155b610535576040517f08c379a000000000000000000000000000000000000000000000000000000000815260040161052c90611b6d565b60405180910390fd5b600080600084815260200190815260200160002090508060030160009054906101000a900473ffffffffffffffffffffffffffffffffffffffff1673ffffffffffffffffffffffffffffffffffffffff163373ffffffffffffffffffffffffffffffffffffffff16146105dd576040517f08c379a00000000000000000000000000000000000000000000000000000000081526004016105d490611bff565b60405180910390fd5b60008160030160009054906101000a900473ffffffffffffffffffffffffffffffffffffffff169050828260030160006101000a81548173ffffffffffffffffffffffffffffffffffffffff021916908373ffffffffffffffffffffffffffffffffffffffff1602179055507f4e247ee7da5150c584444ed2b289d3ac939569853445a11956e991e8d2e0a2ba84828560405161067c93929190611c1f565b60405180910390a150505050565b60015481565b6000831180156106a257506001548311155b6106e1576040517f08c379a00000000000000000000000000000000000000000000000000000000081526004016106d890611b6d565b60405180910390fd5b600080600085815260200190815260200160002090508060030160009054906101000a900473ffffffffffffffffffffffffffffffffffffffff1673ffffffffffffffffffffffffffffffffffffffff163373ffffffffffffffffffffffffffffffffffffffff1614610789576040517f08c379a000000000000000000000000000000000000000000000000000000000815260040161078090611cc8565b60405180910390fd5b8281600401908161079a9190611e94565b50818160050190816107ac9190611e94565b507fb5a80eb1cb6eefef81a9fd32ac38c18c963edf35f4456ffbe221ac23bcf088058484846040516107e093929190611f66565b60405180910390a150505050565b60008111801561080057506001548111155b61083f576040517f08c379a000000000000000000000000000000000000000000000000000000000815260040161083690611b6d565b60405180910390fd5b600080600083815260200190815260200160002090508060030160009054906101000a900473ffffffffffffffffffffffffffffffffffffffff1673ffffffffffffffffffffffffffffffffffffffff163373ffffffffffffffffffffffffffffffffffffffff16146108e7576040517f08c379a00000000000000000000000000000000000000000000000000000000081526004016108de9061201d565b60405180910390fd5b8060060160009054906101000a900460ff16158160060160006101000a81548160ff0219169083151502179055507ffc1a307220fbfe718488a3431d1a645da1c4d5ddd7ecc7c32a1d7a324e569167828260060160009054906101000a900460ff1660405161095792919061203d565b60405180910390a15050565b606080600080600190505b6001548111610a01578473ffffffffffffffffffffffffffffffffffffffff1660008083815260200190815260200160002060030160009054906101000a900473ffffffffffffffffffffffffffffffffffffffff1673ffffffffffffffffffffffffffffffffffffffff16036109ee5781806109ea90612095565b9250505b80806109f990612095565b91505061096e565b5060008167ffffffffffffffff811115610a1e57610a1d611535565b5b604051908082528060200260200182016040528015610a4c5781602001602082028036833780820191505090505b50905060008267ffffffffffffffff811115610a6b57610a6a611535565b5b604051908082528060200260200182016040528015610a9e57816020015b6060815260200190600190039081610a895790505b509050600080600190505b6001548111610c18578773ffffffffffffffffffffffffffffffffffffffff1660008083815260200190815260200160002060030160009054906101000a900473ffffffffffffffffffffffffffffffffffffffff1673ffffffffffffffffffffffffffffffffffffffff1603610c055780848381518110610b2e57610b2d6120dd565b5b6020026020010181815250506000808281526020019081526020016000206000018054610b5a90611af0565b80601f0160208091040260200160405190810160405280929190818152602001828054610b8690611af0565b8015610bd35780601f10610ba857610100808354040283529160200191610bd3565b820191906000526020600020905b815481529060010190602001808311610bb657829003601f168201915b5050505050838381518110610beb57610bea6120dd565b5b60200260200101819052508180610c0190612095565b9250505b8080610c1090612095565b915050610aa9565b5082829550955050505050915091565b600080865111610c6d576040517f08c379a0000000000000000000000000000000000000000000000000000000008152600401610c6490612158565b60405180910390fd5b6000855111610cb1576040517f08c379a0000000000000000000000000000000000000000000000000000000008152600401610ca8906121c4565b60405180910390fd5b6000845111610cf5576040517f08c379a0000000000000000000000000000000000000000000000000000000008152600401610cec90612230565b60405180910390fd5b60016000815480929190610d0890612095565b9190505550600060015490506040518060e001604052808881526020018781526020018681526020013373ffffffffffffffffffffffffffffffffffffffff168152602001858152602001848152602001600015158152506000808381526020019081526020016000206000820151816000019081610d879190611e94565b506020820151816001019081610d9d9190611e94565b506040820151816002019081610db39190611e94565b5060608201518160030160006101000a81548173ffffffffffffffffffffffffffffffffffffffff021916908373ffffffffffffffffffffffffffffffffffffffff1602179055506080820151816004019081610e109190611e94565b5060a0820151816005019081610e269190611e94565b5060c08201518160060160006101000a81548160ff0219169083151502179055509050507f6c5814bfa67cbb27bfae5c6c9a59d6009633b65ffe8287b75a716b8ad365a70f8188888833604051610e81959493929190612250565b60405180910390a18091505095945050505050565b60006060806060600060608060008089118015610eb557506001548911155b610ef4576040517f08c379a0000000000000000000000000000000000000000000000000000000008152600401610eeb90611b6d565b60405180910390fd5b60008060008b81526020019081526020016000206040518060e0016040529081600082018054610f2390611af0565b80601f0160208091040260200160405190810160405280929190818152602001828054610f4f90611af0565b8015610f9c5780601f10610f7157610100808354040283529160200191610f9c565b820191906000526020600020905b815481529060010190602001808311610f7f57829003601f168201915b50505050508152602001600182018054610fb590611af0565b80601f0160208091040260200160405190810160405280929190818152602001828054610fe190611af0565b801561102e5780601f106110035761010080835404028352916020019161102e565b820191906000526020600020905b81548152906001019060200180831161101157829003601f168201915b5050505050815260200160028201805461104790611af0565b80601f016020809104026020016040519081016040528092919081815260200182805461107390611af0565b80156110c05780601f10611095576101008083540402835291602001916110c0565b820191906000526020600020905b8154815290600101906020018083116110a357829003601f168201915b505050505081526020016003820160009054906101000a900473ffffffffffffffffffffffffffffffffffffffff1673ffffffffffffffffffffffffffffffffffffffff1673ffffffffffffffffffffffffffffffffffffffff16815260200160048201805461112f90611af0565b80601f016020809104026020016040519081016040528092919081815260200182805461115b90611af0565b80156111a85780601f1061117d576101008083540402835291602001916111a8565b820191906000526020600020905b81548152906001019060200180831161118b57829003601f168201915b505050505081526020016005820180546111c190611af0565b80601f01602080910402602001604051908101604052809291908181526020018280546111ed90611af0565b801561123a5780601f1061120f5761010080835404028352916020019161123a565b820191906000526020600020905b81548152906001019060200180831161121d57829003601f168201915b505050505081526020016006820160009054906101000a900460ff161515151581525050905089816000015182602001518360400151846060015185608001518660a001518760c001519850985098509850985098509850985050919395975091939597565b6000604051905090565b600080fd5b600080fd5b6000819050919050565b6112c7816112b4565b81146112d257600080fd5b50565b6000813590506112e4816112be565b92915050565b600060208284031215611300576112ff6112aa565b5b600061130e848285016112d5565b91505092915050565b600081519050919050565b600082825260208201905092915050565b60005b83811015611351578082015181840152602081019050611336565b60008484015250505050565b6000601f19601f8301169050919050565b600061137982611317565b6113838185611322565b9350611393818560208601611333565b61139c8161135d565b840191505092915050565b600073ffffffffffffffffffffffffffffffffffffffff82169050919050565b60006113d2826113a7565b9050919050565b6113e2816113c7565b82525050565b60008115159050919050565b6113fd816113e8565b82525050565b600060e082019050818103600083015261141d818a61136e565b90508181036020830152611431818961136e565b90508181036040830152611445818861136e565b905061145460608301876113d9565b8181036080830152611466818661136e565b905081810360a083015261147a818561136e565b905061148960c08301846113f4565b98975050505050505050565b61149e816113c7565b81146114a957600080fd5b50565b6000813590506114bb81611495565b92915050565b600080604083850312156114d8576114d76112aa565b5b60006114e6858286016112d5565b92505060206114f7858286016114ac565b9150509250929050565b61150a816112b4565b82525050565b60006020820190506115256000830184611501565b92915050565b600080fd5b600080fd5b7f4e487b7100000000000000000000000000000000000000000000000000000000600052604160045260246000fd5b61156d8261135d565b810181811067ffffffffffffffff8211171561158c5761158b611535565b5b80604052505050565b600061159f6112a0565b90506115ab8282611564565b919050565b600067ffffffffffffffff8211156115cb576115ca611535565b5b6115d48261135d565b9050602081019050919050565b82818337600083830152505050565b60006116036115fe846115b0565b611595565b90508281526020810184848401111561161f5761161e611530565b5b61162a8482856115e1565b509392505050565b600082601f8301126116475761164661152b565b5b81356116578482602086016115f0565b91505092915050565b600080600060608486031215611679576116786112aa565b5b6000611687868287016112d5565b935050602084013567ffffffffffffffff8111156116a8576116a76112af565b5b6116b486828701611632565b925050604084013567ffffffffffffffff8111156116d5576116d46112af565b5b6116e186828701611632565b9150509250925092565b600060208284031215611701576117006112aa565b5b600061170f848285016114ac565b91505092915050565b600081519050919050565b600082825260208201905092915050565b6000819050602082019050919050565b61174d816112b4565b82525050565b600061175f8383611744565b60208301905092915050565b6000602082019050919050565b600061178382611718565b61178d8185611723565b935061179883611734565b8060005b838110156117c95781516117b08882611753565b97506117bb8361176b565b92505060018101905061179c565b5085935050505092915050565b600081519050919050565b600082825260208201905092915050565b6000819050602082019050919050565b600082825260208201905092915050565b600061181e82611317565b6118288185611802565b9350611838818560208601611333565b6118418161135d565b840191505092915050565b60006118588383611813565b905092915050565b6000602082019050919050565b6000611878826117d6565b61188281856117e1565b935083602082028501611894856117f2565b8060005b858110156118d057848403895281516118b1858261184c565b94506118bc83611860565b925060208a01995050600181019050611898565b50829750879550505050505092915050565b600060408201905081810360008301526118fc8185611778565b90508181036020830152611910818461186d565b90509392505050565b600080600080600060a08688031215611935576119346112aa565b5b600086013567ffffffffffffffff811115611953576119526112af565b5b61195f88828901611632565b955050602086013567ffffffffffffffff8111156119805761197f6112af565b5b61198c88828901611632565b945050604086013567ffffffffffffffff8111156119ad576119ac6112af565b5b6119b988828901611632565b935050606086013567ffffffffffffffff8111156119da576119d96112af565b5b6119e688828901611632565b925050608086013567ffffffffffffffff811115611a0757611a066112af565b5b611a1388828901611632565b9150509295509295909350565b600061010082019050611a36600083018b611501565b8181036020830152611a48818a61136e565b90508181036040830152611a5c818961136e565b90508181036060830152611a70818861136e565b9050611a7f60808301876113d9565b81810360a0830152611a91818661136e565b905081810360c0830152611aa5818561136e565b9050611ab460e08301846113f4565b9998505050505050505050565b7f4e487b7100000000000000000000000000000000000000000000000000000000600052602260045260246000fd5b60006002820490506001821680611b0857607f821691505b602082108103611b1b57611b1a611ac1565b5b50919050565b7f496e737472756d656e74204944206973206f7574206f6620626f756e64730000600082015250565b6000611b57601e83611322565b9150611b6282611b21565b602082019050919050565b60006020820190508181036000830152611b8681611b4a565b9050919050565b7f4f6e6c79207468652063757272656e74206f776e65722063616e207472616e7360008201527f666572206f776e65727368697000000000000000000000000000000000000000602082015250565b6000611be9602d83611322565b9150611bf482611b8d565b604082019050919050565b60006020820190508181036000830152611c1881611bdc565b9050919050565b6000606082019050611c346000830186611501565b611c4160208301856113d9565b611c4e60408301846113d9565b949350505050565b7f4f6e6c7920746865206f776e65722063616e207570646174652074686973206960008201527f6e737472756d656e740000000000000000000000000000000000000000000000602082015250565b6000611cb2602983611322565b9150611cbd82611c56565b604082019050919050565b60006020820190508181036000830152611ce181611ca5565b9050919050565b60008190508160005260206000209050919050565b60006020601f8301049050919050565b600082821b905092915050565b600060088302611d4a7fffffffffffffffffffffffffffffffffffffffffffffffffffffffffffffffff82611d0d565b611d548683611d0d565b95508019841693508086168417925050509392505050565b6000819050919050565b6000611d91611d8c611d87846112b4565b611d6c565b6112b4565b9050919050565b6000819050919050565b611dab83611d76565b611dbf611db782611d98565b848454611d1a565b825550505050565b600090565b611dd4611dc7565b611ddf818484611da2565b505050565b5b81811015611e0357611df8600082611dcc565b600181019050611de5565b5050565b601f821115611e4857611e1981611ce8565b611e2284611cfd565b81016020851015611e31578190505b611e45611e3d85611cfd565b830182611de4565b50505b505050565b600082821c905092915050565b6000611e6b60001984600802611e4d565b1980831691505092915050565b6000611e848383611e5a565b9150826002028217905092915050565b611e9d82611317565b67ffffffffffffffff811115611eb657611eb5611535565b5b611ec08254611af0565b611ecb828285611e07565b600060209050601f831160018114611efe5760008415611eec578287015190505b611ef68582611e78565b865550611f5e565b601f198416611f0c86611ce8565b60005b82811015611f3457848901518255600182019150602085019450602081019050611f0f565b86831015611f515784890151611f4d601f891682611e5a565b8355505b6001600288020188555050505b505050505050565b6000606082019050611f7b6000830186611501565b8181036020830152611f8d818561136e565b90508181036040830152611fa1818461136e565b9050949350505050565b7f4f6e6c7920746865206f776e65722063616e206d61726b207468697320696e7360008201527f7472756d656e742061732073746f6c656e000000000000000000000000000000602082015250565b6000612007603183611322565b915061201282611fab565b604082019050919050565b6000602082019050818103600083015261203681611ffa565b9050919050565b60006040820190506120526000830185611501565b61205f60208301846113f4565b9392505050565b7f4e487b7100000000000000000000000000000000000000000000000000000000600052601160045260246000fd5b60006120a0826112b4565b91507fffffffffffffffffffffffffffffffffffffffffffffffffffffffffffffffff82036120d2576120d1612066565b5b600182019050919050565b7f4e487b7100000000000000000000000000000000000000000000000000000000600052603260045260246000fd5b7f4e616d652063616e6e6f7420626520656d707479000000000000000000000000600082015250565b6000612142601483611322565b915061214d8261210c565b602082019050919050565b6000602082019050818103600083015261217181612135565b9050919050565b7f4d6f64656c2063616e6e6f7420626520656d7074790000000000000000000000600082015250565b60006121ae601583611322565b91506121b982612178565b602082019050919050565b600060208201905081810360008301526121dd816121a1565b9050919050565b7f53657269616c206e756d6265722063616e6e6f7420626520656d707479000000600082015250565b600061221a601d83611322565b9150612225826121e4565b602082019050919050565b600060208201905081810360008301526122498161220d565b9050919050565b600060a0820190506122656000830188611501565b8181036020830152612277818761136e565b9050818103604083015261228b818661136e565b9050818103606083015261229f818561136e565b90506122ae60808301846113d9565b969550505050505056fea264697066735822122013519433281ef2edbd61d3e2fb22d677bf784630e128fa757df1fc4b588f7e8464736f6c63430008120033",
  "linkReferences": {},
  "deployedLinkReferences": {}
}