{
  "_format": "hh-sol-artifact-1",
  "contractName": "MusicID",
  "sourceName": "contracts/musicID.sol",
  "abi": [
    {
      "anonymous": false,
      "inputs": [
        {
          "indexed": false,
          "internalType": "uint256",
          "name": "id",
          "type": "uint256"
        },
        {
          "indexed": false,
          "internalType": "string",
          "name": "name",
          "type": "string"
        },
        {
          "indexed": false,
          "internalType": "string",
          "name": "model",
          "type": "string"
        },
        {
          "indexed": false,
          "internalType": "string",
          "name": "serialNumber",
          "type": "string"
        },
        {
          "indexed": false,
          "internalType": "address",
          "name": "owner",
          "type": "address"
        }
      ],
      "name": "InstrumentAdded",
      "type": "event"
    },
    {
      "anonymous": false,
      "inputs": [
        {
          "indexed": false,
          "internalType": "uint256",
          "name": "id",
          "type": "uint256"
        }
      ],
      "name": "InstrumentMarkedAsStolen",
      "type": "event"
    },
    {
      "anonymous": false,
      "inputs": [
        {
          "indexed": false,
          "internalType": "uint256",
          "name": "id",
          "type": "uint256"
        },
        {
          "indexed": false,
          "internalType": "string",
          "name": "maintenanceRecords",
          "type": "string"
        },
        {
          "indexed": false,
          "internalType": "string",
          "name": "image",
          "type": "string"
        }
      ],
      "name": "InstrumentUpdated",
      "type": "event"
    },
    {
      "inputs": [
        {
          "internalType": "string",
          "name": "_name",
          "type": "string"
        },
        {
          "internalType": "string",
          "name": "_model",
          "type": "string"
        },
        {
          "internalType": "string",
          "name": "_serialNumber",
          "type": "string"
        },
        {
          "internalType": "string",
          "name": "_maintenanceRecords",
          "type": "string"
        },
        {
          "internalType": "string",
          "name": "_image",
          "type": "string"
        }
      ],
      "name": "addInstrument",
      "outputs": [
        {
          "internalType": "uint256",
          "name": "",
          "type": "uint256"
        }
      ],
      "stateMutability": "nonpayable",
      "type": "function"
    },
    {
      "inputs": [
        {
          "internalType": "uint256",
          "name": "_id",
          "type": "uint256"
        }
      ],
      "name": "getInstrumentById",
      "outputs": [
        {
          "internalType": "uint256",
          "name": "id",
          "type": "uint256"
        },
        {
          "internalType": "string",
          "name": "name",
          "type": "string"
        },
        {
          "internalType": "string",
          "name": "model",
          "type": "string"
        },
        {
          "internalType": "string",
          "name": "serialNumber",
          "type": "string"
        },
        {
          "internalType": "address",
          "name": "owner",
          "type": "address"
        },
        {
          "internalType": "string",
          "name": "maintenanceRecords",
          "type": "string"
        },
        {
          "internalType": "string",
          "name": "image",
          "type": "string"
        },
        {
          "internalType": "bool",
          "name": "isStolen",
          "type": "bool"
        }
      ],
      "stateMutability": "view",
      "type": "function"
    },
    {
      "inputs": [
        {
          "internalType": "address",
          "name": "_owner",
          "type": "address"
        }
      ],
      "name": "getInstrumentsByOwner",
      "outputs": [
        {
          "internalType": "uint256[]",
          "name": "",
          "type": "uint256[]"
        },
        {
          "internalType": "string[]",
          "name": "",
          "type": "string[]"
        }
      ],
      "stateMutability": "view",
      "type": "function"
    },
    {
      "inputs": [
        {
          "internalType": "uint256",
          "name": "",
          "type": "uint256"
        }
      ],
      "name": "instruments",
      "outputs": [
        {
          "internalType": "string",
          "name": "name",
          "type": "string"
        },
        {
          "internalType": "string",
          "name": "model",
          "type": "string"
        },
        {
          "internalType": "string",
          "name": "serialNumber",
          "type": "string"
        },
        {
          "internalType": "address",
          "name": "owner",
          "type": "address"
        },
        {
          "internalType": "string",
          "name": "maintenanceRecords",
          "type": "string"
        },
        {
          "internalType": "string",
          "name": "image",
          "type": "string"
        },
        {
          "internalType": "bool",
          "name": "isStolen",
          "type": "bool"
        }
      ],
      "stateMutability": "view",
      "type": "function"
    },
    {
      "inputs": [],
      "name": "instrumentsCount",
      "outputs": [
        {
          "internalType": "uint256",
          "name": "",
          "type": "uint256"
        }
      ],
      "stateMutability": "view",
      "type": "function"
    },
    {
      "inputs": [
        {
          "internalType": "uint256",
          "name": "_id",
          "type": "uint256"
        }
      ],
      "name": "markInstrumentAsStolen",
      "outputs": [],
      "stateMutability": "nonpayable",
      "type": "function"
    },
    {
      "inputs": [
        {
          "internalType": "uint256",
          "name": "_id",
          "type": "uint256"
        },
        {
          "internalType": "string",
          "name": "_maintenanceRecords",
          "type": "string"
        },
        {
          "internalType": "string",
          "name": "_image",
          "type": "string"
        }
      ],
      "name": "updateInstrument",
      "outputs": [],
      "stateMutability": "nonpayable",
      "type": "function"
    }
  ],
  "bytecode": "0x608060405234801561001057600080fd5b50611fcb806100206000396000f3fe608060405234801561001057600080fd5b506004361061007d5760003560e01c8063bb1607be1161005b578063bb1607be146100f2578063c9fc0b131461010e578063cc2012131461013f578063e705c17b1461016f5761007d565b806322bbad0b146100825780633ef439ff146100b85780638e607ca3146100d6575b600080fd5b61009c600480360381019061009791906110f9565b6101a6565b6040516100af9796959493929190611212565b60405180910390f35b6100c06104bd565b6040516100cd91906112b3565b60405180910390f35b6100f060048036038101906100eb9190611403565b6104c3565b005b61010c600480360381019061010791906110f9565b610621565b005b610128600480360381019061012391906114ba565b610772565b6040516101369291906116b1565b60405180910390f35b610159600480360381019061015491906116e8565b610a37565b60405161016691906112b3565b60405180910390f35b610189600480360381019061018491906110f9565b610ca5565b60405161019d9897969594939291906117ef565b60405180910390f35b60006020528060005260406000206000915090508060000180546101c9906118bf565b80601f01602080910402602001604051908101604052809291908181526020018280546101f5906118bf565b80156102425780601f1061021757610100808354040283529160200191610242565b820191906000526020600020905b81548152906001019060200180831161022557829003601f168201915b505050505090806001018054610257906118bf565b80601f0160208091040260200160405190810160405280929190818152602001828054610283906118bf565b80156102d05780601f106102a5576101008083540402835291602001916102d0565b820191906000526020600020905b8154815290600101906020018083116102b357829003601f168201915b5050505050908060020180546102e5906118bf565b80601f0160208091040260200160405190810160405280929190818152602001828054610311906118bf565b801561035e5780601f106103335761010080835404028352916020019161035e565b820191906000526020600020905b81548152906001019060200180831161034157829003601f168201915b5050505050908060030160009054906101000a900473ffffffffffffffffffffffffffffffffffffffff1690806004018054610399906118bf565b80601f01602080910402602001604051908101604052809291908181526020018280546103c5906118bf565b80156104125780601f106103e757610100808354040283529160200191610412565b820191906000526020600020905b8154815290600101906020018083116103f557829003601f168201915b505050505090806005018054610427906118bf565b80601f0160208091040260200160405190810160405280929190818152602001828054610453906118bf565b80156104a05780601f10610475576101008083540402835291602001916104a0565b820191906000526020600020905b81548152906001019060200180831161048357829003601f168201915b5050505050908060060160009054906101000a900460ff16905087565b60015481565b6000831180156104d557506001548311155b610514576040517f08c379a000000000000000000000000000000000000000000000000000000000815260040161050b9061193c565b60405180910390fd5b600080600085815260200190815260200160002090508060030160009054906101000a900473ffffffffffffffffffffffffffffffffffffffff1673ffffffffffffffffffffffffffffffffffffffff163373ffffffffffffffffffffffffffffffffffffffff16146105bc576040517f08c379a00000000000000000000000000000000000000000000000000000000081526004016105b3906119ce565b60405180910390fd5b828160040190816105cd9190611b9a565b50818160050190816105df9190611b9a565b507fb5a80eb1cb6eefef81a9fd32ac38c18c963edf35f4456ffbe221ac23bcf0880584848460405161061393929190611c6c565b60405180910390a150505050565b60008111801561063357506001548111155b610672576040517f08c379a00000000000000000000000000000000000000000000000000000000081526004016106699061193c565b60405180910390fd5b600080600083815260200190815260200160002090508060030160009054906101000a900473ffffffffffffffffffffffffffffffffffffffff1673ffffffffffffffffffffffffffffffffffffffff163373ffffffffffffffffffffffffffffffffffffffff161461071a576040517f08c379a000000000000000000000000000000000000000000000000000000000815260040161071190611d23565b60405180910390fd5b60018160060160006101000a81548160ff0219169083151502179055507f7fdd207d93ea3bd797b9df68862e695753723195df70d2a7d049db282c3d5b358260405161076691906112b3565b60405180910390a15050565b606080600080600190505b6001548111610810578473ffffffffffffffffffffffffffffffffffffffff1660008083815260200190815260200160002060030160009054906101000a900473ffffffffffffffffffffffffffffffffffffffff1673ffffffffffffffffffffffffffffffffffffffff16036107fd5781806107f990611d72565b9250505b808061080890611d72565b91505061077d565b5060008167ffffffffffffffff81111561082d5761082c6112d8565b5b60405190808252806020026020018201604052801561085b5781602001602082028036833780820191505090505b50905060008267ffffffffffffffff81111561087a576108796112d8565b5b6040519080825280602002602001820160405280156108ad57816020015b60608152602001906001900390816108985790505b509050600080600190505b6001548111610a27578773ffffffffffffffffffffffffffffffffffffffff1660008083815260200190815260200160002060030160009054906101000a900473ffffffffffffffffffffffffffffffffffffffff1673ffffffffffffffffffffffffffffffffffffffff1603610a14578084838151811061093d5761093c611dba565b5b6020026020010181815250506000808281526020019081526020016000206000018054610969906118bf565b80601f0160208091040260200160405190810160405280929190818152602001828054610995906118bf565b80156109e25780601f106109b7576101008083540402835291602001916109e2565b820191906000526020600020905b8154815290600101906020018083116109c557829003601f168201915b50505050508383815181106109fa576109f9611dba565b5b60200260200101819052508180610a1090611d72565b9250505b8080610a1f90611d72565b9150506108b8565b5082829550955050505050915091565b600080865111610a7c576040517f08c379a0000000000000000000000000000000000000000000000000000000008152600401610a7390611e35565b60405180910390fd5b6000855111610ac0576040517f08c379a0000000000000000000000000000000000000000000000000000000008152600401610ab790611ea1565b60405180910390fd5b6000845111610b04576040517f08c379a0000000000000000000000000000000000000000000000000000000008152600401610afb90611f0d565b60405180910390fd5b60016000815480929190610b1790611d72565b9190505550600060015490506040518060e001604052808881526020018781526020018681526020013373ffffffffffffffffffffffffffffffffffffffff168152602001858152602001848152602001600015158152506000808381526020019081526020016000206000820151816000019081610b969190611b9a565b506020820151816001019081610bac9190611b9a565b506040820151816002019081610bc29190611b9a565b5060608201518160030160006101000a81548173ffffffffffffffffffffffffffffffffffffffff021916908373ffffffffffffffffffffffffffffffffffffffff1602179055506080820151816004019081610c1f9190611b9a565b5060a0820151816005019081610c359190611b9a565b5060c08201518160060160006101000a81548160ff0219169083151502179055509050507f6c5814bfa67cbb27bfae5c6c9a59d6009633b65ffe8287b75a716b8ad365a70f8188888833604051610c90959493929190611f2d565b60405180910390a18091505095945050505050565b60006060806060600060608060008089118015610cc457506001548911155b610d03576040517f08c379a0000000000000000000000000000000000000000000000000000000008152600401610cfa9061193c565b60405180910390fd5b60008060008b81526020019081526020016000206040518060e0016040529081600082018054610d32906118bf565b80601f0160208091040260200160405190810160405280929190818152602001828054610d5e906118bf565b8015610dab5780601f10610d8057610100808354040283529160200191610dab565b820191906000526020600020905b815481529060010190602001808311610d8e57829003601f168201915b50505050508152602001600182018054610dc4906118bf565b80601f0160208091040260200160405190810160405280929190818152602001828054610df0906118bf565b8015610e3d5780601f10610e1257610100808354040283529160200191610e3d565b820191906000526020600020905b815481529060010190602001808311610e2057829003601f168201915b50505050508152602001600282018054610e56906118bf565b80601f0160208091040260200160405190810160405280929190818152602001828054610e82906118bf565b8015610ecf5780601f10610ea457610100808354040283529160200191610ecf565b820191906000526020600020905b815481529060010190602001808311610eb257829003601f168201915b505050505081526020016003820160009054906101000a900473ffffffffffffffffffffffffffffffffffffffff1673ffffffffffffffffffffffffffffffffffffffff1673ffffffffffffffffffffffffffffffffffffffff168152602001600482018054610f3e906118bf565b80601f0160208091040260200160405190810160405280929190818152602001828054610f6a906118bf565b8015610fb75780601f10610f8c57610100808354040283529160200191610fb7565b820191906000526020600020905b815481529060010190602001808311610f9a57829003601f168201915b50505050508152602001600582018054610fd0906118bf565b80601f0160208091040260200160405190810160405280929190818152602001828054610ffc906118bf565b80156110495780601f1061101e57610100808354040283529160200191611049565b820191906000526020600020905b81548152906001019060200180831161102c57829003601f168201915b505050505081526020016006820160009054906101000a900460ff161515151581525050905089816000015182602001518360400151846060015185608001518660a001518760c001519850985098509850985098509850985050919395975091939597565b6000604051905090565b600080fd5b600080fd5b6000819050919050565b6110d6816110c3565b81146110e157600080fd5b50565b6000813590506110f3816110cd565b92915050565b60006020828403121561110f5761110e6110b9565b5b600061111d848285016110e4565b91505092915050565b600081519050919050565b600082825260208201905092915050565b60005b83811015611160578082015181840152602081019050611145565b60008484015250505050565b6000601f19601f8301169050919050565b600061118882611126565b6111928185611131565b93506111a2818560208601611142565b6111ab8161116c565b840191505092915050565b600073ffffffffffffffffffffffffffffffffffffffff82169050919050565b60006111e1826111b6565b9050919050565b6111f1816111d6565b82525050565b60008115159050919050565b61120c816111f7565b82525050565b600060e082019050818103600083015261122c818a61117d565b90508181036020830152611240818961117d565b90508181036040830152611254818861117d565b905061126360608301876111e8565b8181036080830152611275818661117d565b905081810360a0830152611289818561117d565b905061129860c0830184611203565b98975050505050505050565b6112ad816110c3565b82525050565b60006020820190506112c860008301846112a4565b92915050565b600080fd5b600080fd5b7f4e487b7100000000000000000000000000000000000000000000000000000000600052604160045260246000fd5b6113108261116c565b810181811067ffffffffffffffff8211171561132f5761132e6112d8565b5b80604052505050565b60006113426110af565b905061134e8282611307565b919050565b600067ffffffffffffffff82111561136e5761136d6112d8565b5b6113778261116c565b9050602081019050919050565b82818337600083830152505050565b60006113a66113a184611353565b611338565b9050828152602081018484840111156113c2576113c16112d3565b5b6113cd848285611384565b509392505050565b600082601f8301126113ea576113e96112ce565b5b81356113fa848260208601611393565b91505092915050565b60008060006060848603121561141c5761141b6110b9565b5b600061142a868287016110e4565b935050602084013567ffffffffffffffff81111561144b5761144a6110be565b5b611457868287016113d5565b925050604084013567ffffffffffffffff811115611478576114776110be565b5b611484868287016113d5565b9150509250925092565b611497816111d6565b81146114a257600080fd5b50565b6000813590506114b48161148e565b92915050565b6000602082840312156114d0576114cf6110b9565b5b60006114de848285016114a5565b91505092915050565b600081519050919050565b600082825260208201905092915050565b6000819050602082019050919050565b61151c816110c3565b82525050565b600061152e8383611513565b60208301905092915050565b6000602082019050919050565b6000611552826114e7565b61155c81856114f2565b935061156783611503565b8060005b8381101561159857815161157f8882611522565b975061158a8361153a565b92505060018101905061156b565b5085935050505092915050565b600081519050919050565b600082825260208201905092915050565b6000819050602082019050919050565b600082825260208201905092915050565b60006115ed82611126565b6115f781856115d1565b9350611607818560208601611142565b6116108161116c565b840191505092915050565b600061162783836115e2565b905092915050565b6000602082019050919050565b6000611647826115a5565b61165181856115b0565b935083602082028501611663856115c1565b8060005b8581101561169f5784840389528151611680858261161b565b945061168b8361162f565b925060208a01995050600181019050611667565b50829750879550505050505092915050565b600060408201905081810360008301526116cb8185611547565b905081810360208301526116df818461163c565b90509392505050565b600080600080600060a08688031215611704576117036110b9565b5b600086013567ffffffffffffffff811115611722576117216110be565b5b61172e888289016113d5565b955050602086013567ffffffffffffffff81111561174f5761174e6110be565b5b61175b888289016113d5565b945050604086013567ffffffffffffffff81111561177c5761177b6110be565b5b611788888289016113d5565b935050606086013567ffffffffffffffff8111156117a9576117a86110be565b5b6117b5888289016113d5565b925050608086013567ffffffffffffffff8111156117d6576117d56110be565b5b6117e2888289016113d5565b9150509295509295909350565b600061010082019050611805600083018b6112a4565b8181036020830152611817818a61117d565b9050818103604083015261182b818961117d565b9050818103606083015261183f818861117d565b905061184e60808301876111e8565b81810360a0830152611860818661117d565b905081810360c0830152611874818561117d565b905061188360e0830184611203565b9998505050505050505050565b7f4e487b7100000000000000000000000000000000000000000000000000000000600052602260045260246000fd5b600060028204905060018216806118d757607f821691505b6020821081036118ea576118e9611890565b5b50919050565b7f496e737472756d656e74204944206973206f7574206f6620626f756e64730000600082015250565b6000611926601e83611131565b9150611931826118f0565b602082019050919050565b6000602082019050818103600083015261195581611919565b9050919050565b7f4f6e6c7920746865206f776e65722063616e207570646174652074686973206960008201527f6e737472756d656e740000000000000000000000000000000000000000000000602082015250565b60006119b8602983611131565b91506119c38261195c565b604082019050919050565b600060208201905081810360008301526119e7816119ab565b9050919050565b60008190508160005260206000209050919050565b60006020601f8301049050919050565b600082821b905092915050565b600060088302611a507fffffffffffffffffffffffffffffffffffffffffffffffffffffffffffffffff82611a13565b611a5a8683611a13565b95508019841693508086168417925050509392505050565b6000819050919050565b6000611a97611a92611a8d846110c3565b611a72565b6110c3565b9050919050565b6000819050919050565b611ab183611a7c565b611ac5611abd82611a9e565b848454611a20565b825550505050565b600090565b611ada611acd565b611ae5818484611aa8565b505050565b5b81811015611b0957611afe600082611ad2565b600181019050611aeb565b5050565b601f821115611b4e57611b1f816119ee565b611b2884611a03565b81016020851015611b37578190505b611b4b611b4385611a03565b830182611aea565b50505b505050565b600082821c905092915050565b6000611b7160001984600802611b53565b1980831691505092915050565b6000611b8a8383611b60565b9150826002028217905092915050565b611ba382611126565b67ffffffffffffffff811115611bbc57611bbb6112d8565b5b611bc682546118bf565b611bd1828285611b0d565b600060209050601f831160018114611c045760008415611bf2578287015190505b611bfc8582611b7e565b865550611c64565b601f198416611c12866119ee565b60005b82811015611c3a57848901518255600182019150602085019450602081019050611c15565b86831015611c575784890151611c53601f891682611b60565b8355505b6001600288020188555050505b505050505050565b6000606082019050611c8160008301866112a4565b8181036020830152611c93818561117d565b90508181036040830152611ca7818461117d565b9050949350505050565b7f4f6e6c7920746865206f776e65722063616e206d61726b207468697320696e7360008201527f7472756d656e742061732073746f6c656e000000000000000000000000000000602082015250565b6000611d0d603183611131565b9150611d1882611cb1565b604082019050919050565b60006020820190508181036000830152611d3c81611d00565b9050919050565b7f4e487b7100000000000000000000000000000000000000000000000000000000600052601160045260246000fd5b6000611d7d826110c3565b91507fffffffffffffffffffffffffffffffffffffffffffffffffffffffffffffffff8203611daf57611dae611d43565b5b600182019050919050565b7f4e487b7100000000000000000000000000000000000000000000000000000000600052603260045260246000fd5b7f4e616d652063616e6e6f7420626520656d707479000000000000000000000000600082015250565b6000611e1f601483611131565b9150611e2a82611de9565b602082019050919050565b60006020820190508181036000830152611e4e81611e12565b9050919050565b7f4d6f64656c2063616e6e6f7420626520656d7074790000000000000000000000600082015250565b6000611e8b601583611131565b9150611e9682611e55565b602082019050919050565b60006020820190508181036000830152611eba81611e7e565b9050919050565b7f53657269616c206e756d6265722063616e6e6f7420626520656d707479000000600082015250565b6000611ef7601d83611131565b9150611f0282611ec1565b602082019050919050565b60006020820190508181036000830152611f2681611eea565b9050919050565b600060a082019050611f4260008301886112a4565b8181036020830152611f54818761117d565b90508181036040830152611f68818661117d565b90508181036060830152611f7c818561117d565b9050611f8b60808301846111e8565b969550505050505056fea264697066735822122042e654d60af4a1c37bc860f3939c0ba3176634e5a89410c1f5519f9dd96b934564736f6c63430008120033",
  "linkReferences": {},
  "deployedLinkReferences": {}
}