{
  "_format": "hh-sol-artifact-1",
  "contractName": "MusicID",
  "sourceName": "contracts/musicID.sol",
  "abi": [
    {
      "anonymous": false,
      "inputs": [
        {
          "indexed": false,
          "internalType": "uint256",
          "name": "id",
          "type": "uint256"
        },
        {
          "indexed": false,
          "internalType": "string",
          "name": "name",
          "type": "string"
        },
        {
          "indexed": false,
          "internalType": "string",
          "name": "model",
          "type": "string"
        },
        {
          "indexed": false,
          "internalType": "string",
          "name": "serialNumber",
          "type": "string"
        },
        {
          "indexed": false,
          "internalType": "address",
          "name": "owner",
          "type": "address"
        }
      ],
      "name": "InstrumentAdded",
      "type": "event"
    },
    {
      "anonymous": false,
      "inputs": [
        {
          "indexed": false,
          "internalType": "uint256",
          "name": "id",
          "type": "uint256"
        },
        {
          "indexed": false,
          "internalType": "string",
          "name": "maintenanceRecords",
          "type": "string"
        },
        {
          "indexed": false,
          "internalType": "string",
          "name": "image",
          "type": "string"
        }
      ],
      "name": "InstrumentUpdated",
      "type": "event"
    },
    {
      "inputs": [
        {
          "internalType": "string",
          "name": "_name",
          "type": "string"
        },
        {
          "internalType": "string",
          "name": "_model",
          "type": "string"
        },
        {
          "internalType": "string",
          "name": "_serialNumber",
          "type": "string"
        },
        {
          "internalType": "string",
          "name": "_maintenanceRecords",
          "type": "string"
        },
        {
          "internalType": "string",
          "name": "_image",
          "type": "string"
        }
      ],
      "name": "addInstrument",
      "outputs": [
        {
          "internalType": "uint256",
          "name": "",
          "type": "uint256"
        }
      ],
      "stateMutability": "nonpayable",
      "type": "function"
    },
    {
      "inputs": [
        {
          "internalType": "uint256",
          "name": "_id",
          "type": "uint256"
        }
      ],
      "name": "getInstrumentById",
      "outputs": [
        {
          "internalType": "uint256",
          "name": "id",
          "type": "uint256"
        },
        {
          "internalType": "string",
          "name": "name",
          "type": "string"
        },
        {
          "internalType": "string",
          "name": "model",
          "type": "string"
        },
        {
          "internalType": "string",
          "name": "serialNumber",
          "type": "string"
        },
        {
          "internalType": "address",
          "name": "owner",
          "type": "address"
        },
        {
          "internalType": "string",
          "name": "maintenanceRecords",
          "type": "string"
        },
        {
          "internalType": "string",
          "name": "image",
          "type": "string"
        }
      ],
      "stateMutability": "view",
      "type": "function"
    },
    {
      "inputs": [
        {
          "internalType": "address",
          "name": "_owner",
          "type": "address"
        }
      ],
      "name": "getInstrumentsByOwner",
      "outputs": [
        {
          "internalType": "uint256[]",
          "name": "",
          "type": "uint256[]"
        },
        {
          "internalType": "string[]",
          "name": "",
          "type": "string[]"
        }
      ],
      "stateMutability": "view",
      "type": "function"
    },
    {
      "inputs": [
        {
          "internalType": "uint256",
          "name": "",
          "type": "uint256"
        }
      ],
      "name": "instruments",
      "outputs": [
        {
          "internalType": "string",
          "name": "name",
          "type": "string"
        },
        {
          "internalType": "string",
          "name": "model",
          "type": "string"
        },
        {
          "internalType": "string",
          "name": "serialNumber",
          "type": "string"
        },
        {
          "internalType": "address",
          "name": "owner",
          "type": "address"
        },
        {
          "internalType": "string",
          "name": "maintenanceRecords",
          "type": "string"
        },
        {
          "internalType": "string",
          "name": "image",
          "type": "string"
        }
      ],
      "stateMutability": "view",
      "type": "function"
    },
    {
      "inputs": [],
      "name": "instrumentsCount",
      "outputs": [
        {
          "internalType": "uint256",
          "name": "",
          "type": "uint256"
        }
      ],
      "stateMutability": "view",
      "type": "function"
    },
    {
      "inputs": [
        {
          "internalType": "uint256",
          "name": "_id",
          "type": "uint256"
        },
        {
          "internalType": "string",
          "name": "_maintenanceRecords",
          "type": "string"
        },
        {
          "internalType": "string",
          "name": "_image",
          "type": "string"
        }
      ],
      "name": "updateInstrument",
      "outputs": [],
      "stateMutability": "nonpayable",
      "type": "function"
    }
  ],
  "bytecode": "0x608060405234801561001057600080fd5b50611d18806100206000396000f3fe608060405234801561001057600080fd5b50600436106100625760003560e01c806322bbad0b146100675780633ef439ff1461009c5780638e607ca3146100ba578063c9fc0b13146100d6578063cc20121314610107578063e705c17b14610137575b600080fd5b610081600480360381019061007c9190610f10565b61016d565b6040516100939695949392919061100e565b60405180910390f35b6100a4610471565b6040516100b191906110a1565b60405180910390f35b6100d460048036038101906100cf91906111f1565b610477565b005b6100f060048036038101906100eb91906112a8565b6105d5565b6040516100fe92919061149f565b60405180910390f35b610121600480360381019061011c91906114d6565b61089a565b60405161012e91906110a1565b60405180910390f35b610151600480360381019061014c9190610f10565b610adf565b60405161016497969594939291906115dd565b60405180910390f35b60006020528060005260406000206000915090508060000180546101909061169e565b80601f01602080910402602001604051908101604052809291908181526020018280546101bc9061169e565b80156102095780601f106101de57610100808354040283529160200191610209565b820191906000526020600020905b8154815290600101906020018083116101ec57829003601f168201915b50505050509080600101805461021e9061169e565b80601f016020809104026020016040519081016040528092919081815260200182805461024a9061169e565b80156102975780601f1061026c57610100808354040283529160200191610297565b820191906000526020600020905b81548152906001019060200180831161027a57829003601f168201915b5050505050908060020180546102ac9061169e565b80601f01602080910402602001604051908101604052809291908181526020018280546102d89061169e565b80156103255780601f106102fa57610100808354040283529160200191610325565b820191906000526020600020905b81548152906001019060200180831161030857829003601f168201915b5050505050908060030160009054906101000a900473ffffffffffffffffffffffffffffffffffffffff16908060040180546103609061169e565b80601f016020809104026020016040519081016040528092919081815260200182805461038c9061169e565b80156103d95780601f106103ae576101008083540402835291602001916103d9565b820191906000526020600020905b8154815290600101906020018083116103bc57829003601f168201915b5050505050908060050180546103ee9061169e565b80601f016020809104026020016040519081016040528092919081815260200182805461041a9061169e565b80156104675780601f1061043c57610100808354040283529160200191610467565b820191906000526020600020905b81548152906001019060200180831161044a57829003601f168201915b5050505050905086565b60015481565b60008311801561048957506001548311155b6104c8576040517f08c379a00000000000000000000000000000000000000000000000000000000081526004016104bf9061171b565b60405180910390fd5b600080600085815260200190815260200160002090508060030160009054906101000a900473ffffffffffffffffffffffffffffffffffffffff1673ffffffffffffffffffffffffffffffffffffffff163373ffffffffffffffffffffffffffffffffffffffff1614610570576040517f08c379a0000000000000000000000000000000000000000000000000000000008152600401610567906117ad565b60405180910390fd5b828160040190816105819190611979565b50818160050190816105939190611979565b507fb5a80eb1cb6eefef81a9fd32ac38c18c963edf35f4456ffbe221ac23bcf088058484846040516105c793929190611a4b565b60405180910390a150505050565b606080600080600190505b6001548111610673578473ffffffffffffffffffffffffffffffffffffffff1660008083815260200190815260200160002060030160009054906101000a900473ffffffffffffffffffffffffffffffffffffffff1673ffffffffffffffffffffffffffffffffffffffff160361066057818061065c90611abf565b9250505b808061066b90611abf565b9150506105e0565b5060008167ffffffffffffffff8111156106905761068f6110c6565b5b6040519080825280602002602001820160405280156106be5781602001602082028036833780820191505090505b50905060008267ffffffffffffffff8111156106dd576106dc6110c6565b5b60405190808252806020026020018201604052801561071057816020015b60608152602001906001900390816106fb5790505b509050600080600190505b600154811161088a578773ffffffffffffffffffffffffffffffffffffffff1660008083815260200190815260200160002060030160009054906101000a900473ffffffffffffffffffffffffffffffffffffffff1673ffffffffffffffffffffffffffffffffffffffff160361087757808483815181106107a05761079f611b07565b5b60200260200101818152505060008082815260200190815260200160002060000180546107cc9061169e565b80601f01602080910402602001604051908101604052809291908181526020018280546107f89061169e565b80156108455780601f1061081a57610100808354040283529160200191610845565b820191906000526020600020905b81548152906001019060200180831161082857829003601f168201915b505050505083838151811061085d5761085c611b07565b5b6020026020010181905250818061087390611abf565b9250505b808061088290611abf565b91505061071b565b5082829550955050505050915091565b6000808651116108df576040517f08c379a00000000000000000000000000000000000000000000000000000000081526004016108d690611b82565b60405180910390fd5b6000855111610923576040517f08c379a000000000000000000000000000000000000000000000000000000000815260040161091a90611bee565b60405180910390fd5b6000845111610967576040517f08c379a000000000000000000000000000000000000000000000000000000000815260040161095e90611c5a565b60405180910390fd5b6001600081548092919061097a90611abf565b9190505550600060015490506040518060c001604052808881526020018781526020018681526020013373ffffffffffffffffffffffffffffffffffffffff1681526020018581526020018481525060008083815260200190815260200160002060008201518160000190816109f09190611979565b506020820151816001019081610a069190611979565b506040820151816002019081610a1c9190611979565b5060608201518160030160006101000a81548173ffffffffffffffffffffffffffffffffffffffff021916908373ffffffffffffffffffffffffffffffffffffffff1602179055506080820151816004019081610a799190611979565b5060a0820151816005019081610a8f9190611979565b509050507f6c5814bfa67cbb27bfae5c6c9a59d6009633b65ffe8287b75a716b8ad365a70f8188888833604051610aca959493929190611c7a565b60405180910390a18091505095945050505050565b600060608060606000606080600088118015610afd57506001548811155b610b3c576040517f08c379a0000000000000000000000000000000000000000000000000000000008152600401610b339061171b565b60405180910390fd5b60008060008a81526020019081526020016000206040518060c0016040529081600082018054610b6b9061169e565b80601f0160208091040260200160405190810160405280929190818152602001828054610b979061169e565b8015610be45780601f10610bb957610100808354040283529160200191610be4565b820191906000526020600020905b815481529060010190602001808311610bc757829003601f168201915b50505050508152602001600182018054610bfd9061169e565b80601f0160208091040260200160405190810160405280929190818152602001828054610c299061169e565b8015610c765780601f10610c4b57610100808354040283529160200191610c76565b820191906000526020600020905b815481529060010190602001808311610c5957829003601f168201915b50505050508152602001600282018054610c8f9061169e565b80601f0160208091040260200160405190810160405280929190818152602001828054610cbb9061169e565b8015610d085780601f10610cdd57610100808354040283529160200191610d08565b820191906000526020600020905b815481529060010190602001808311610ceb57829003601f168201915b505050505081526020016003820160009054906101000a900473ffffffffffffffffffffffffffffffffffffffff1673ffffffffffffffffffffffffffffffffffffffff1673ffffffffffffffffffffffffffffffffffffffff168152602001600482018054610d779061169e565b80601f0160208091040260200160405190810160405280929190818152602001828054610da39061169e565b8015610df05780601f10610dc557610100808354040283529160200191610df0565b820191906000526020600020905b815481529060010190602001808311610dd357829003601f168201915b50505050508152602001600582018054610e099061169e565b80601f0160208091040260200160405190810160405280929190818152602001828054610e359061169e565b8015610e825780601f10610e5757610100808354040283529160200191610e82565b820191906000526020600020905b815481529060010190602001808311610e6557829003601f168201915b505050505081525050905088816000015182602001518360400151846060015185608001518660a00151975097509750975097509750975050919395979092949650565b6000604051905090565b600080fd5b600080fd5b6000819050919050565b610eed81610eda565b8114610ef857600080fd5b50565b600081359050610f0a81610ee4565b92915050565b600060208284031215610f2657610f25610ed0565b5b6000610f3484828501610efb565b91505092915050565b600081519050919050565b600082825260208201905092915050565b60005b83811015610f77578082015181840152602081019050610f5c565b60008484015250505050565b6000601f19601f8301169050919050565b6000610f9f82610f3d565b610fa98185610f48565b9350610fb9818560208601610f59565b610fc281610f83565b840191505092915050565b600073ffffffffffffffffffffffffffffffffffffffff82169050919050565b6000610ff882610fcd565b9050919050565b61100881610fed565b82525050565b600060c08201905081810360008301526110288189610f94565b9050818103602083015261103c8188610f94565b905081810360408301526110508187610f94565b905061105f6060830186610fff565b81810360808301526110718185610f94565b905081810360a08301526110858184610f94565b9050979650505050505050565b61109b81610eda565b82525050565b60006020820190506110b66000830184611092565b92915050565b600080fd5b600080fd5b7f4e487b7100000000000000000000000000000000000000000000000000000000600052604160045260246000fd5b6110fe82610f83565b810181811067ffffffffffffffff8211171561111d5761111c6110c6565b5b80604052505050565b6000611130610ec6565b905061113c82826110f5565b919050565b600067ffffffffffffffff82111561115c5761115b6110c6565b5b61116582610f83565b9050602081019050919050565b82818337600083830152505050565b600061119461118f84611141565b611126565b9050828152602081018484840111156111b0576111af6110c1565b5b6111bb848285611172565b509392505050565b600082601f8301126111d8576111d76110bc565b5b81356111e8848260208601611181565b91505092915050565b60008060006060848603121561120a57611209610ed0565b5b600061121886828701610efb565b935050602084013567ffffffffffffffff81111561123957611238610ed5565b5b611245868287016111c3565b925050604084013567ffffffffffffffff81111561126657611265610ed5565b5b611272868287016111c3565b9150509250925092565b61128581610fed565b811461129057600080fd5b50565b6000813590506112a28161127c565b92915050565b6000602082840312156112be576112bd610ed0565b5b60006112cc84828501611293565b91505092915050565b600081519050919050565b600082825260208201905092915050565b6000819050602082019050919050565b61130a81610eda565b82525050565b600061131c8383611301565b60208301905092915050565b6000602082019050919050565b6000611340826112d5565b61134a81856112e0565b9350611355836112f1565b8060005b8381101561138657815161136d8882611310565b975061137883611328565b925050600181019050611359565b5085935050505092915050565b600081519050919050565b600082825260208201905092915050565b6000819050602082019050919050565b600082825260208201905092915050565b60006113db82610f3d565b6113e581856113bf565b93506113f5818560208601610f59565b6113fe81610f83565b840191505092915050565b600061141583836113d0565b905092915050565b6000602082019050919050565b600061143582611393565b61143f818561139e565b935083602082028501611451856113af565b8060005b8581101561148d578484038952815161146e8582611409565b94506114798361141d565b925060208a01995050600181019050611455565b50829750879550505050505092915050565b600060408201905081810360008301526114b98185611335565b905081810360208301526114cd818461142a565b90509392505050565b600080600080600060a086880312156114f2576114f1610ed0565b5b600086013567ffffffffffffffff8111156115105761150f610ed5565b5b61151c888289016111c3565b955050602086013567ffffffffffffffff81111561153d5761153c610ed5565b5b611549888289016111c3565b945050604086013567ffffffffffffffff81111561156a57611569610ed5565b5b611576888289016111c3565b935050606086013567ffffffffffffffff81111561159757611596610ed5565b5b6115a3888289016111c3565b925050608086013567ffffffffffffffff8111156115c4576115c3610ed5565b5b6115d0888289016111c3565b9150509295509295909350565b600060e0820190506115f2600083018a611092565b81810360208301526116048189610f94565b905081810360408301526116188188610f94565b9050818103606083015261162c8187610f94565b905061163b6080830186610fff565b81810360a083015261164d8185610f94565b905081810360c08301526116618184610f94565b905098975050505050505050565b7f4e487b7100000000000000000000000000000000000000000000000000000000600052602260045260246000fd5b600060028204905060018216806116b657607f821691505b6020821081036116c9576116c861166f565b5b50919050565b7f496e737472756d656e74204944206973206f7574206f6620626f756e64730000600082015250565b6000611705601e83610f48565b9150611710826116cf565b602082019050919050565b60006020820190508181036000830152611734816116f8565b9050919050565b7f4f6e6c7920746865206f776e65722063616e207570646174652074686973206960008201527f6e737472756d656e740000000000000000000000000000000000000000000000602082015250565b6000611797602983610f48565b91506117a28261173b565b604082019050919050565b600060208201905081810360008301526117c68161178a565b9050919050565b60008190508160005260206000209050919050565b60006020601f8301049050919050565b600082821b905092915050565b60006008830261182f7fffffffffffffffffffffffffffffffffffffffffffffffffffffffffffffffff826117f2565b61183986836117f2565b95508019841693508086168417925050509392505050565b6000819050919050565b600061187661187161186c84610eda565b611851565b610eda565b9050919050565b6000819050919050565b6118908361185b565b6118a461189c8261187d565b8484546117ff565b825550505050565b600090565b6118b96118ac565b6118c4818484611887565b505050565b5b818110156118e8576118dd6000826118b1565b6001810190506118ca565b5050565b601f82111561192d576118fe816117cd565b611907846117e2565b81016020851015611916578190505b61192a611922856117e2565b8301826118c9565b50505b505050565b600082821c905092915050565b600061195060001984600802611932565b1980831691505092915050565b6000611969838361193f565b9150826002028217905092915050565b61198282610f3d565b67ffffffffffffffff81111561199b5761199a6110c6565b5b6119a5825461169e565b6119b08282856118ec565b600060209050601f8311600181146119e357600084156119d1578287015190505b6119db858261195d565b865550611a43565b601f1984166119f1866117cd565b60005b82811015611a19578489015182556001820191506020850194506020810190506119f4565b86831015611a365784890151611a32601f89168261193f565b8355505b6001600288020188555050505b505050505050565b6000606082019050611a606000830186611092565b8181036020830152611a728185610f94565b90508181036040830152611a868184610f94565b9050949350505050565b7f4e487b7100000000000000000000000000000000000000000000000000000000600052601160045260246000fd5b6000611aca82610eda565b91507fffffffffffffffffffffffffffffffffffffffffffffffffffffffffffffffff8203611afc57611afb611a90565b5b600182019050919050565b7f4e487b7100000000000000000000000000000000000000000000000000000000600052603260045260246000fd5b7f4e616d652063616e6e6f7420626520656d707479000000000000000000000000600082015250565b6000611b6c601483610f48565b9150611b7782611b36565b602082019050919050565b60006020820190508181036000830152611b9b81611b5f565b9050919050565b7f4d6f64656c2063616e6e6f7420626520656d7074790000000000000000000000600082015250565b6000611bd8601583610f48565b9150611be382611ba2565b602082019050919050565b60006020820190508181036000830152611c0781611bcb565b9050919050565b7f53657269616c206e756d6265722063616e6e6f7420626520656d707479000000600082015250565b6000611c44601d83610f48565b9150611c4f82611c0e565b602082019050919050565b60006020820190508181036000830152611c7381611c37565b9050919050565b600060a082019050611c8f6000830188611092565b8181036020830152611ca18187610f94565b90508181036040830152611cb58186610f94565b90508181036060830152611cc98185610f94565b9050611cd86080830184610fff565b969550505050505056fea2646970667358221220f9c48c6a3c5fd6742d0bfec5a15ae3d8f8c6567a30adc77213c4ea2b2fea478664736f6c63430008120033",
  "linkReferences": {},
  "deployedLinkReferences": {}
}