{
  "_format": "hh-sol-artifact-1",
  "contractName": "MusicID",
  "sourceName": "contracts/musicID.sol",
  "abi": [
    {
      "anonymous": false,
      "inputs": [
        {
          "indexed": false,
          "internalType": "uint256",
          "name": "id",
          "type": "uint256"
        },
        {
          "indexed": false,
          "internalType": "string",
          "name": "name",
          "type": "string"
        },
        {
          "indexed": false,
          "internalType": "string",
          "name": "model",
          "type": "string"
        },
        {
          "indexed": false,
          "internalType": "uint256",
          "name": "year",
          "type": "uint256"
        },
        {
          "indexed": false,
          "internalType": "address",
          "name": "owner",
          "type": "address"
        }
      ],
      "name": "InstrumentAdded",
      "type": "event"
    },
    {
      "inputs": [
        {
          "internalType": "string",
          "name": "_name",
          "type": "string"
        },
        {
          "internalType": "string",
          "name": "_model",
          "type": "string"
        },
        {
          "internalType": "uint256",
          "name": "_year",
          "type": "uint256"
        },
        {
          "internalType": "string",
          "name": "_maintenanceRecords",
          "type": "string"
        },
        {
          "internalType": "string",
          "name": "_image",
          "type": "string"
        }
      ],
      "name": "addInstrument",
      "outputs": [],
      "stateMutability": "nonpayable",
      "type": "function"
    },
    {
      "inputs": [
        {
          "internalType": "uint256",
          "name": "",
          "type": "uint256"
        }
      ],
      "name": "instruments",
      "outputs": [
        {
          "internalType": "string",
          "name": "name",
          "type": "string"
        },
        {
          "internalType": "string",
          "name": "model",
          "type": "string"
        },
        {
          "internalType": "uint256",
          "name": "year",
          "type": "uint256"
        },
        {
          "internalType": "address",
          "name": "owner",
          "type": "address"
        },
        {
          "internalType": "string",
          "name": "maintenanceRecords",
          "type": "string"
        },
        {
          "internalType": "string",
          "name": "image",
          "type": "string"
        }
      ],
      "stateMutability": "view",
      "type": "function"
    },
    {
      "inputs": [],
      "name": "instrumentsCount",
      "outputs": [
        {
          "internalType": "uint256",
          "name": "",
          "type": "uint256"
        }
      ],
      "stateMutability": "view",
      "type": "function"
    }
  ],
  "bytecode": "0x608060405234801561001057600080fd5b50610df5806100206000396000f3fe608060405234801561001057600080fd5b50600436106100415760003560e01c806322bbad0b146100465780633ef439ff1461007b5780638b6d416514610099575b600080fd5b610060600480360381019061005b919061056c565b6100b5565b60405161007296959493929190610679565b60405180910390f35b610083610331565b60405161009091906106f6565b60405180910390f35b6100b360048036038101906100ae9190610846565b610337565b005b60006020528060005260406000206000915090508060000180546100d890610960565b80601f016020809104026020016040519081016040528092919081815260200182805461010490610960565b80156101515780601f1061012657610100808354040283529160200191610151565b820191906000526020600020905b81548152906001019060200180831161013457829003601f168201915b50505050509080600101805461016690610960565b80601f016020809104026020016040519081016040528092919081815260200182805461019290610960565b80156101df5780601f106101b4576101008083540402835291602001916101df565b820191906000526020600020905b8154815290600101906020018083116101c257829003601f168201915b5050505050908060020154908060030160009054906101000a900473ffffffffffffffffffffffffffffffffffffffff169080600401805461022090610960565b80601f016020809104026020016040519081016040528092919081815260200182805461024c90610960565b80156102995780601f1061026e57610100808354040283529160200191610299565b820191906000526020600020905b81548152906001019060200180831161027c57829003601f168201915b5050505050908060050180546102ae90610960565b80601f01602080910402602001604051908101604052809291908181526020018280546102da90610960565b80156103275780601f106102fc57610100808354040283529160200191610327565b820191906000526020600020905b81548152906001019060200180831161030a57829003601f168201915b5050505050905086565b60015481565b600085511161037b576040517f08c379a0000000000000000000000000000000000000000000000000000000008152600401610372906109dd565b60405180910390fd5b60008451116103bf576040517f08c379a00000000000000000000000000000000000000000000000000000000081526004016103b690610a49565b60405180910390fd5b600160008154809291906103d290610a98565b91905055506040518060c001604052808681526020018581526020018481526020013373ffffffffffffffffffffffffffffffffffffffff16815260200183815260200182815250600080600154815260200190815260200160002060008201518160000190816104439190610c8c565b5060208201518160010190816104599190610c8c565b506040820151816002015560608201518160030160006101000a81548173ffffffffffffffffffffffffffffffffffffffff021916908373ffffffffffffffffffffffffffffffffffffffff16021790555060808201518160040190816104c09190610c8c565b5060a08201518160050190816104d69190610c8c565b509050507f141b42f63df8b1bba1373e6a0aa2e34b8f8d2df9a7374053782b6840cfaea95c60015486868633604051610513959493929190610d5e565b60405180910390a15050505050565b6000604051905090565b600080fd5b600080fd5b6000819050919050565b61054981610536565b811461055457600080fd5b50565b60008135905061056681610540565b92915050565b6000602082840312156105825761058161052c565b5b600061059084828501610557565b91505092915050565b600081519050919050565b600082825260208201905092915050565b60005b838110156105d35780820151818401526020810190506105b8565b60008484015250505050565b6000601f19601f8301169050919050565b60006105fb82610599565b61060581856105a4565b93506106158185602086016105b5565b61061e816105df565b840191505092915050565b61063281610536565b82525050565b600073ffffffffffffffffffffffffffffffffffffffff82169050919050565b600061066382610638565b9050919050565b61067381610658565b82525050565b600060c082019050818103600083015261069381896105f0565b905081810360208301526106a781886105f0565b90506106b66040830187610629565b6106c3606083018661066a565b81810360808301526106d581856105f0565b905081810360a08301526106e981846105f0565b9050979650505050505050565b600060208201905061070b6000830184610629565b92915050565b600080fd5b600080fd5b7f4e487b7100000000000000000000000000000000000000000000000000000000600052604160045260246000fd5b610753826105df565b810181811067ffffffffffffffff821117156107725761077161071b565b5b80604052505050565b6000610785610522565b9050610791828261074a565b919050565b600067ffffffffffffffff8211156107b1576107b061071b565b5b6107ba826105df565b9050602081019050919050565b82818337600083830152505050565b60006107e96107e484610796565b61077b565b90508281526020810184848401111561080557610804610716565b5b6108108482856107c7565b509392505050565b600082601f83011261082d5761082c610711565b5b813561083d8482602086016107d6565b91505092915050565b600080600080600060a086880312156108625761086161052c565b5b600086013567ffffffffffffffff8111156108805761087f610531565b5b61088c88828901610818565b955050602086013567ffffffffffffffff8111156108ad576108ac610531565b5b6108b988828901610818565b94505060406108ca88828901610557565b935050606086013567ffffffffffffffff8111156108eb576108ea610531565b5b6108f788828901610818565b925050608086013567ffffffffffffffff81111561091857610917610531565b5b61092488828901610818565b9150509295509295909350565b7f4e487b7100000000000000000000000000000000000000000000000000000000600052602260045260246000fd5b6000600282049050600182168061097857607f821691505b60208210810361098b5761098a610931565b5b50919050565b7f4e616d652063616e6e6f7420626520656d707479000000000000000000000000600082015250565b60006109c76014836105a4565b91506109d282610991565b602082019050919050565b600060208201905081810360008301526109f6816109ba565b9050919050565b7f4d6f64656c2063616e6e6f7420626520656d7074790000000000000000000000600082015250565b6000610a336015836105a4565b9150610a3e826109fd565b602082019050919050565b60006020820190508181036000830152610a6281610a26565b9050919050565b7f4e487b7100000000000000000000000000000000000000000000000000000000600052601160045260246000fd5b6000610aa382610536565b91507fffffffffffffffffffffffffffffffffffffffffffffffffffffffffffffffff8203610ad557610ad4610a69565b5b600182019050919050565b60008190508160005260206000209050919050565b60006020601f8301049050919050565b600082821b905092915050565b600060088302610b427fffffffffffffffffffffffffffffffffffffffffffffffffffffffffffffffff82610b05565b610b4c8683610b05565b95508019841693508086168417925050509392505050565b6000819050919050565b6000610b89610b84610b7f84610536565b610b64565b610536565b9050919050565b6000819050919050565b610ba383610b6e565b610bb7610baf82610b90565b848454610b12565b825550505050565b600090565b610bcc610bbf565b610bd7818484610b9a565b505050565b5b81811015610bfb57610bf0600082610bc4565b600181019050610bdd565b5050565b601f821115610c4057610c1181610ae0565b610c1a84610af5565b81016020851015610c29578190505b610c3d610c3585610af5565b830182610bdc565b50505b505050565b600082821c905092915050565b6000610c6360001984600802610c45565b1980831691505092915050565b6000610c7c8383610c52565b9150826002028217905092915050565b610c9582610599565b67ffffffffffffffff811115610cae57610cad61071b565b5b610cb88254610960565b610cc3828285610bff565b600060209050601f831160018114610cf65760008415610ce4578287015190505b610cee8582610c70565b865550610d56565b601f198416610d0486610ae0565b60005b82811015610d2c57848901518255600182019150602085019450602081019050610d07565b86831015610d495784890151610d45601f891682610c52565b8355505b6001600288020188555050505b505050505050565b600060a082019050610d736000830188610629565b8181036020830152610d8581876105f0565b90508181036040830152610d9981866105f0565b9050610da86060830185610629565b610db5608083018461066a565b969550505050505056fea26469706673582212207f826abfd5e62bc7225999cb90f391a5372126ced2187370709008205b551d4e64736f6c63430008180033",
  "linkReferences": {},
  "deployedLinkReferences": {}
}